{
  "contractName": "Douya",
  "abi": [
    {
      "inputs": [],
      "stateMutability": "nonpayable",
      "type": "constructor"
    },
    {
      "anonymous": false,
      "inputs": [
        {
          "indexed": true,
          "internalType": "address",
          "name": "owner",
          "type": "address"
        },
        {
          "indexed": true,
          "internalType": "address",
          "name": "spender",
          "type": "address"
        },
        {
          "indexed": false,
          "internalType": "uint256",
          "name": "value",
          "type": "uint256"
        }
      ],
      "name": "Approval",
      "type": "event"
    },
    {
      "anonymous": false,
      "inputs": [
        {
          "indexed": false,
          "internalType": "uint256",
          "name": "amount",
          "type": "uint256"
        }
      ],
      "name": "Bought",
      "type": "event"
    },
    {
      "anonymous": false,
      "inputs": [
        {
          "indexed": true,
          "internalType": "bytes32",
          "name": "role",
          "type": "bytes32"
        },
        {
          "indexed": true,
          "internalType": "bytes32",
          "name": "previousAdminRole",
          "type": "bytes32"
        },
        {
          "indexed": true,
          "internalType": "bytes32",
          "name": "newAdminRole",
          "type": "bytes32"
        }
      ],
      "name": "RoleAdminChanged",
      "type": "event"
    },
    {
      "anonymous": false,
      "inputs": [
        {
          "indexed": true,
          "internalType": "bytes32",
          "name": "role",
          "type": "bytes32"
        },
        {
          "indexed": true,
          "internalType": "address",
          "name": "account",
          "type": "address"
        },
        {
          "indexed": true,
          "internalType": "address",
          "name": "sender",
          "type": "address"
        }
      ],
      "name": "RoleGranted",
      "type": "event"
    },
    {
      "anonymous": false,
      "inputs": [
        {
          "indexed": true,
          "internalType": "bytes32",
          "name": "role",
          "type": "bytes32"
        },
        {
          "indexed": true,
          "internalType": "address",
          "name": "account",
          "type": "address"
        },
        {
          "indexed": true,
          "internalType": "address",
          "name": "sender",
          "type": "address"
        }
      ],
      "name": "RoleRevoked",
      "type": "event"
    },
    {
      "anonymous": false,
      "inputs": [
        {
          "indexed": false,
          "internalType": "uint256",
          "name": "amount",
          "type": "uint256"
        }
      ],
      "name": "Sold",
      "type": "event"
    },
    {
      "anonymous": false,
      "inputs": [
        {
          "indexed": true,
          "internalType": "address",
          "name": "from",
          "type": "address"
        },
        {
          "indexed": true,
          "internalType": "address",
          "name": "to",
          "type": "address"
        },
        {
          "indexed": false,
          "internalType": "uint256",
          "name": "value",
          "type": "uint256"
        }
      ],
      "name": "Transfer",
      "type": "event"
    },
    {
      "inputs": [],
      "name": "DEFAULT_ADMIN_ROLE",
      "outputs": [
        {
          "internalType": "bytes32",
          "name": "",
          "type": "bytes32"
        }
      ],
      "stateMutability": "view",
      "type": "function",
      "constant": true
    },
    {
      "inputs": [],
      "name": "MINTER_ROLE",
      "outputs": [
        {
          "internalType": "bytes32",
          "name": "",
          "type": "bytes32"
        }
      ],
      "stateMutability": "view",
      "type": "function",
      "constant": true
    },
    {
      "inputs": [
        {
          "internalType": "address",
          "name": "owner",
          "type": "address"
        },
        {
          "internalType": "address",
          "name": "spender",
          "type": "address"
        }
      ],
      "name": "allowance",
      "outputs": [
        {
          "internalType": "uint256",
          "name": "",
          "type": "uint256"
        }
      ],
      "stateMutability": "view",
      "type": "function",
      "constant": true
    },
    {
      "inputs": [
        {
          "internalType": "address",
          "name": "spender",
          "type": "address"
        },
        {
          "internalType": "uint256",
          "name": "amount",
          "type": "uint256"
        }
      ],
      "name": "approve",
      "outputs": [
        {
          "internalType": "bool",
          "name": "",
          "type": "bool"
        }
      ],
      "stateMutability": "nonpayable",
      "type": "function"
    },
    {
      "inputs": [
        {
          "internalType": "address",
          "name": "account",
          "type": "address"
        }
      ],
      "name": "balanceOf",
      "outputs": [
        {
          "internalType": "uint256",
          "name": "",
          "type": "uint256"
        }
      ],
      "stateMutability": "view",
      "type": "function",
      "constant": true
    },
    {
      "inputs": [],
      "name": "charge",
      "outputs": [
        {
          "internalType": "uint256",
          "name": "",
          "type": "uint256"
        }
      ],
      "stateMutability": "view",
      "type": "function",
      "constant": true
    },
    {
      "inputs": [],
      "name": "decimals",
      "outputs": [
        {
          "internalType": "uint8",
          "name": "",
          "type": "uint8"
        }
      ],
      "stateMutability": "view",
      "type": "function",
      "constant": true
    },
    {
      "inputs": [
        {
          "internalType": "address",
          "name": "spender",
          "type": "address"
        },
        {
          "internalType": "uint256",
          "name": "subtractedValue",
          "type": "uint256"
        }
      ],
      "name": "decreaseAllowance",
      "outputs": [
        {
          "internalType": "bool",
          "name": "",
          "type": "bool"
        }
      ],
      "stateMutability": "nonpayable",
      "type": "function"
    },
    {
      "inputs": [
        {
          "internalType": "bytes32",
          "name": "role",
          "type": "bytes32"
        }
      ],
      "name": "getRoleAdmin",
      "outputs": [
        {
          "internalType": "bytes32",
          "name": "",
          "type": "bytes32"
        }
      ],
      "stateMutability": "view",
      "type": "function",
      "constant": true
    },
    {
      "inputs": [
        {
          "internalType": "bytes32",
          "name": "role",
          "type": "bytes32"
        },
        {
          "internalType": "address",
          "name": "account",
          "type": "address"
        }
      ],
      "name": "grantRole",
      "outputs": [],
      "stateMutability": "nonpayable",
      "type": "function"
    },
    {
      "inputs": [
        {
          "internalType": "bytes32",
          "name": "role",
          "type": "bytes32"
        },
        {
          "internalType": "address",
          "name": "account",
          "type": "address"
        }
      ],
      "name": "hasRole",
      "outputs": [
        {
          "internalType": "bool",
          "name": "",
          "type": "bool"
        }
      ],
      "stateMutability": "view",
      "type": "function",
      "constant": true
    },
    {
      "inputs": [
        {
          "internalType": "address",
          "name": "spender",
          "type": "address"
        },
        {
          "internalType": "uint256",
          "name": "addedValue",
          "type": "uint256"
        }
      ],
      "name": "increaseAllowance",
      "outputs": [
        {
          "internalType": "bool",
          "name": "",
          "type": "bool"
        }
      ],
      "stateMutability": "nonpayable",
      "type": "function"
    },
    {
      "inputs": [],
      "name": "name",
      "outputs": [
        {
          "internalType": "string",
          "name": "",
          "type": "string"
        }
      ],
      "stateMutability": "view",
      "type": "function",
      "constant": true
    },
    {
      "inputs": [],
      "name": "rate",
      "outputs": [
        {
          "internalType": "uint256",
          "name": "",
          "type": "uint256"
        }
      ],
      "stateMutability": "view",
      "type": "function",
      "constant": true
    },
    {
      "inputs": [
        {
          "internalType": "bytes32",
          "name": "role",
          "type": "bytes32"
        },
        {
          "internalType": "address",
          "name": "account",
          "type": "address"
        }
      ],
      "name": "renounceRole",
      "outputs": [],
      "stateMutability": "nonpayable",
      "type": "function"
    },
    {
      "inputs": [
        {
          "internalType": "bytes32",
          "name": "role",
          "type": "bytes32"
        },
        {
          "internalType": "address",
          "name": "account",
          "type": "address"
        }
      ],
      "name": "revokeRole",
      "outputs": [],
      "stateMutability": "nonpayable",
      "type": "function"
    },
    {
      "inputs": [
        {
          "internalType": "bytes4",
          "name": "interfaceId",
          "type": "bytes4"
        }
      ],
      "name": "supportsInterface",
      "outputs": [
        {
          "internalType": "bool",
          "name": "",
          "type": "bool"
        }
      ],
      "stateMutability": "view",
      "type": "function",
      "constant": true
    },
    {
      "inputs": [],
      "name": "symbol",
      "outputs": [
        {
          "internalType": "string",
          "name": "",
          "type": "string"
        }
      ],
      "stateMutability": "view",
      "type": "function",
      "constant": true
    },
    {
      "inputs": [],
      "name": "totalSupply",
      "outputs": [
        {
          "internalType": "uint256",
          "name": "",
          "type": "uint256"
        }
      ],
      "stateMutability": "view",
      "type": "function",
      "constant": true
    },
    {
      "inputs": [
        {
          "internalType": "address",
          "name": "to",
          "type": "address"
        },
        {
          "internalType": "uint256",
          "name": "amount",
          "type": "uint256"
        }
      ],
      "name": "transfer",
      "outputs": [
        {
          "internalType": "bool",
          "name": "",
          "type": "bool"
        }
      ],
      "stateMutability": "nonpayable",
      "type": "function"
    },
    {
      "inputs": [
        {
          "internalType": "address",
          "name": "from",
          "type": "address"
        },
        {
          "internalType": "address",
          "name": "to",
          "type": "address"
        },
        {
          "internalType": "uint256",
          "name": "amount",
          "type": "uint256"
        }
      ],
      "name": "transferFrom",
      "outputs": [
        {
          "internalType": "bool",
          "name": "",
          "type": "bool"
        }
      ],
      "stateMutability": "nonpayable",
      "type": "function"
    },
    {
      "inputs": [
        {
          "internalType": "address",
          "name": "to",
          "type": "address"
        },
        {
          "internalType": "uint256",
          "name": "amount",
          "type": "uint256"
        }
      ],
      "name": "mint",
      "outputs": [],
      "stateMutability": "nonpayable",
      "type": "function"
    },
    {
      "inputs": [
        {
          "internalType": "address",
          "name": "to",
          "type": "address"
        },
        {
          "internalType": "uint256",
          "name": "amount",
          "type": "uint256"
        }
      ],
      "name": "burn",
      "outputs": [],
      "stateMutability": "nonpayable",
      "type": "function"
    },
    {
      "inputs": [
        {
          "internalType": "address",
          "name": "sender",
          "type": "address"
        },
        {
          "internalType": "address",
          "name": "receiver",
          "type": "address"
        },
        {
          "internalType": "uint256",
          "name": "amount",
          "type": "uint256"
        }
      ],
      "name": "transferRole",
      "outputs": [],
      "stateMutability": "nonpayable",
      "type": "function"
    },
    {
      "inputs": [
        {
          "internalType": "address",
          "name": "addr",
          "type": "address"
        }
      ],
      "name": "setRole",
      "outputs": [],
      "stateMutability": "nonpayable",
      "type": "function"
    },
    {
      "inputs": [],
      "name": "exchange",
      "outputs": [],
      "stateMutability": "payable",
      "type": "function",
      "payable": true
    },
    {
      "inputs": [
        {
          "internalType": "uint256",
          "name": "amount",
          "type": "uint256"
        }
      ],
      "name": "withdrawOwner",
      "outputs": [],
      "stateMutability": "nonpayable",
      "type": "function"
    },
    {
      "inputs": [
        {
          "internalType": "uint256",
          "name": "amount",
          "type": "uint256"
        }
      ],
      "name": "withdraw",
      "outputs": [],
      "stateMutability": "nonpayable",
      "type": "function"
    },
    {
      "inputs": [
        {
          "internalType": "address",
          "name": "receiver",
          "type": "address"
        },
        {
          "internalType": "uint256",
          "name": "amount",
          "type": "uint256"
        }
      ],
      "name": "transferOther",
      "outputs": [],
      "stateMutability": "nonpayable",
      "type": "function"
    },
    {
      "inputs": [
        {
          "internalType": "uint256",
          "name": "_rate",
          "type": "uint256"
        }
      ],
      "name": "setRate",
      "outputs": [],
      "stateMutability": "nonpayable",
      "type": "function"
    },
    {
      "inputs": [
        {
          "internalType": "uint256",
          "name": "_charge",
          "type": "uint256"
        }
      ],
      "name": "setCharge",
      "outputs": [],
      "stateMutability": "nonpayable",
      "type": "function"
    }
  ],
  "bytecode": "0x6080604052620f424060065560006007553480156200001d57600080fd5b506040518060400160405280600581526020017f446f7579610000000000000000000000000000000000000000000000000000008152506040518060400160405280600381526020017f444f5500000000000000000000000000000000000000000000000000000000008152508160039080519060200190620000a29291906200043b565b508060049080519060200190620000bb9291906200043b565b505050620000d36000801b336200014b60201b60201c565b620001057f9f2df0fed2c77648de5860a4cc508cd0818c85b8b8a1ab4ceeef8d981c8956a6336200014b60201b60201c565b62000145336200011a6200023d60201b60201c565b600a62000128919062000685565b6305f5e100620001399190620006d6565b6200024660201b60201c565b620008a9565b6200015d8282620003be60201b60201c565b620002395760016005600084815260200190815260200160002060000160008373ffffffffffffffffffffffffffffffffffffffff1673ffffffffffffffffffffffffffffffffffffffff16815260200190815260200160002060006101000a81548160ff021916908315150217905550620001de6200042960201b60201c565b73ffffffffffffffffffffffffffffffffffffffff168173ffffffffffffffffffffffffffffffffffffffff16837f2f8788117e7eff1d82e926ec794901d17c78024a50270940304540a733656f0d60405160405180910390a45b5050565b60006012905090565b600073ffffffffffffffffffffffffffffffffffffffff168273ffffffffffffffffffffffffffffffffffffffff1603620002b8576040517f08c379a0000000000000000000000000000000000000000000000000000000008152600401620002af9062000798565b60405180910390fd5b620002cc600083836200043160201b60201c565b8060026000828254620002e09190620007ba565b92505081905550806000808473ffffffffffffffffffffffffffffffffffffffff1673ffffffffffffffffffffffffffffffffffffffff1681526020019081526020016000206000828254620003379190620007ba565b925050819055508173ffffffffffffffffffffffffffffffffffffffff16600073ffffffffffffffffffffffffffffffffffffffff167fddf252ad1be2c89b69c2b068fc378daa952ba7f163c4a11628f55a4df523b3ef836040516200039e919062000828565b60405180910390a3620003ba600083836200043660201b60201c565b5050565b60006005600084815260200190815260200160002060000160008373ffffffffffffffffffffffffffffffffffffffff1673ffffffffffffffffffffffffffffffffffffffff16815260200190815260200160002060009054906101000a900460ff16905092915050565b600033905090565b505050565b505050565b828054620004499062000874565b90600052602060002090601f0160209004810192826200046d5760008555620004b9565b82601f106200048857805160ff1916838001178555620004b9565b82800160010185558215620004b9579182015b82811115620004b85782518255916020019190600101906200049b565b5b509050620004c89190620004cc565b5090565b5b80821115620004e7576000816000905550600101620004cd565b5090565b7f4e487b7100000000000000000000000000000000000000000000000000000000600052601160045260246000fd5b60008160011c9050919050565b6000808291508390505b60018511156200057957808604811115620005515762000550620004eb565b5b6001851615620005615780820291505b808102905062000571856200051a565b945062000531565b94509492505050565b60008262000594576001905062000667565b81620005a4576000905062000667565b8160018114620005bd5760028114620005c857620005fe565b600191505062000667565b60ff841115620005dd57620005dc620004eb565b5b8360020a915084821115620005f757620005f6620004eb565b5b5062000667565b5060208310610133831016604e8410600b8410161715620006385782820a905083811115620006325762000631620004eb565b5b62000667565b62000647848484600162000527565b92509050818404811115620006615762000660620004eb565b5b81810290505b9392505050565b6000819050919050565b600060ff82169050919050565b600062000692826200066e565b91506200069f8362000678565b9250620006ce7fffffffffffffffffffffffffffffffffffffffffffffffffffffffffffffffff848462000582565b905092915050565b6000620006e3826200066e565b9150620006f0836200066e565b9250817fffffffffffffffffffffffffffffffffffffffffffffffffffffffffffffffff04831182151516156200072c576200072b620004eb565b5b828202905092915050565b600082825260208201905092915050565b7f45524332303a206d696e7420746f20746865207a65726f206164647265737300600082015250565b600062000780601f8362000737565b91506200078d8262000748565b602082019050919050565b60006020820190508181036000830152620007b38162000771565b9050919050565b6000620007c7826200066e565b9150620007d4836200066e565b9250827fffffffffffffffffffffffffffffffffffffffffffffffffffffffffffffffff038211156200080c576200080b620004eb565b5b828201905092915050565b62000822816200066e565b82525050565b60006020820190506200083f600083018462000817565b92915050565b7f4e487b7100000000000000000000000000000000000000000000000000000000600052602260045260246000fd5b600060028204905060018216806200088d57607f821691505b602082108103620008a357620008a262000845565b5b50919050565b612d0880620008b96000396000f3fe6080604052600436106101d85760003560e01c80635516191311610102578063a217fddf11610095578063d539139311610064578063d5391393146106d3578063d547741f146106fe578063dd62ed3e14610727578063fc55b13814610764576101d8565b8063a217fddf14610624578063a457c2d71461064f578063a9059cbb1461068c578063d2f7265a146106c9576101d8565b806391d14854116100d157806391d148541461056a57806395d89b41146105a75780639dc29fac146105d2578063a0362cdd146105fb576101d8565b806355161913146104b05780635d0efc4d146104db5780636ef98b211461050457806370a082311461052d576101d8565b80632c4e722e1161017a57806334fcf4371161014957806334fcf437146103f857806336568abe14610421578063395093511461044a57806340c10f1914610487576101d8565b80632c4e722e146103505780632e1a7d4d1461037b5780632f2ff15d146103a4578063313ce567146103cd576101d8565b8063095ea7b3116101b6578063095ea7b31461026e57806318160ddd146102ab57806323b872dd146102d6578063248a9ca314610313576101d8565b806301ffc9a7146101dd57806306dad3fb1461021a57806306fdde0314610243575b600080fd5b3480156101e957600080fd5b5061020460048036038101906101ff9190611e8b565b61078d565b6040516102119190611ed3565b60405180910390f35b34801561022657600080fd5b50610241600480360381019061023c9190611f82565b610807565b005b34801561024f57600080fd5b5061025861084a565b604051610265919061206e565b60405180910390f35b34801561027a57600080fd5b5061029560048036038101906102909190612090565b6108dc565b6040516102a29190611ed3565b60405180910390f35b3480156102b757600080fd5b506102c06108ff565b6040516102cd91906120df565b60405180910390f35b3480156102e257600080fd5b506102fd60048036038101906102f89190611f82565b610909565b60405161030a9190611ed3565b60405180910390f35b34801561031f57600080fd5b5061033a60048036038101906103359190612130565b610938565b604051610347919061216c565b60405180910390f35b34801561035c57600080fd5b50610365610958565b60405161037291906120df565b60405180910390f35b34801561038757600080fd5b506103a2600480360381019061039d9190612187565b61095e565b005b3480156103b057600080fd5b506103cb60048036038101906103c691906121b4565b610a43565b005b3480156103d957600080fd5b506103e2610a6c565b6040516103ef9190612210565b60405180910390f35b34801561040457600080fd5b5061041f600480360381019061041a9190612187565b610a75565b005b34801561042d57600080fd5b50610448600480360381019061044391906121b4565b610a95565b005b34801561045657600080fd5b50610471600480360381019061046c9190612090565b610b18565b60405161047e9190611ed3565b60405180910390f35b34801561049357600080fd5b506104ae60048036038101906104a99190612090565b610bc2565b005b3480156104bc57600080fd5b506104c5610c03565b6040516104d291906120df565b60405180910390f35b3480156104e757600080fd5b5061050260048036038101906104fd919061222b565b610c09565b005b34801561051057600080fd5b5061052b60048036038101906105269190612187565b610c4c565b005b34801561053957600080fd5b50610554600480360381019061054f919061222b565b610ce3565b60405161056191906120df565b60405180910390f35b34801561057657600080fd5b50610591600480360381019061058c91906121b4565b610d2b565b60405161059e9190611ed3565b60405180910390f35b3480156105b357600080fd5b506105bc610d96565b6040516105c9919061206e565b60405180910390f35b3480156105de57600080fd5b506105f960048036038101906105f49190612090565b610e28565b005b34801561060757600080fd5b50610622600480360381019061061d9190612090565b610e69565b005b34801561063057600080fd5b50610639610e79565b604051610646919061216c565b60405180910390f35b34801561065b57600080fd5b5061067660048036038101906106719190612090565b610e80565b6040516106839190611ed3565b60405180910390f35b34801561069857600080fd5b506106b360048036038101906106ae9190612090565b610f6a565b6040516106c09190611ed3565b60405180910390f35b6106d1610f8d565b005b3480156106df57600080fd5b506106e8611019565b6040516106f5919061216c565b60405180910390f35b34801561070a57600080fd5b50610725600480360381019061072091906121b4565b61103d565b005b34801561073357600080fd5b5061074e60048036038101906107499190612258565b611066565b60405161075b91906120df565b60405180910390f35b34801561077057600080fd5b5061078b60048036038101906107869190612187565b6110ed565b005b60007f7965db0b000000000000000000000000000000000000000000000000000000007bffffffffffffffffffffffffffffffffffffffffffffffffffffffff1916827bffffffffffffffffffffffffffffffffffffffffffffffffffffffff1916148061080057506107ff8261110d565b5b9050919050565b7f9f2df0fed2c77648de5860a4cc508cd0818c85b8b8a1ab4ceeef8d981c8956a661083981610834611177565b61117f565b61084484848461121c565b50505050565b606060038054610859906122c7565b80601f0160208091040260200160405190810160405280929190818152602001828054610885906122c7565b80156108d25780601f106108a7576101008083540402835291602001916108d2565b820191906000526020600020905b8154815290600101906020018083116108b557829003601f168201915b5050505050905090565b6000806108e7611177565b90506108f481858561149b565b600191505092915050565b6000600254905090565b600080610914611177565b9050610921858285611664565b61092c85858561121c565b60019150509392505050565b600060056000838152602001908152602001600020600101549050919050565b60065481565b61096833826116f0565b3373ffffffffffffffffffffffffffffffffffffffff166108fc6064600754620f4240600654866109999190612327565b6109a391906123b0565b6109ad9190612327565b6109b791906123b0565b620f4240600654856109c99190612327565b6109d391906123b0565b6109dd91906123e1565b9081150290604051600060405180830381858888f19350505050158015610a08573d6000803e3d6000fd5b507f92f64ca637d023f354075a4be751b169c1a8a9ccb6d33cdd0cb352054399572781604051610a3891906120df565b60405180910390a150565b610a4c82610938565b610a5d81610a58611177565b61117f565b610a6783836118c6565b505050565b60006012905090565b6000801b610a8a81610a85611177565b61117f565b816006819055505050565b610a9d611177565b73ffffffffffffffffffffffffffffffffffffffff168173ffffffffffffffffffffffffffffffffffffffff1614610b0a576040517f08c379a0000000000000000000000000000000000000000000000000000000008152600401610b0190612487565b60405180910390fd5b610b1482826119a7565b5050565b600080610b23611177565b9050610bb7818585600160008673ffffffffffffffffffffffffffffffffffffffff1673ffffffffffffffffffffffffffffffffffffffff16815260200190815260200160002060008973ffffffffffffffffffffffffffffffffffffffff1673ffffffffffffffffffffffffffffffffffffffff16815260200190815260200160002054610bb291906124a7565b61149b565b600191505092915050565b7f9f2df0fed2c77648de5860a4cc508cd0818c85b8b8a1ab4ceeef8d981c8956a6610bf481610bef611177565b61117f565b610bfe8383611a89565b505050565b60075481565b6000801b610c1e81610c19611177565b61117f565b610c487f9f2df0fed2c77648de5860a4cc508cd0818c85b8b8a1ab4ceeef8d981c8956a6836118c6565b5050565b6000801b610c6181610c5c611177565b61117f565b3373ffffffffffffffffffffffffffffffffffffffff166108fc839081150290604051600060405180830381858888f19350505050158015610ca7573d6000803e3d6000fd5b507f92f64ca637d023f354075a4be751b169c1a8a9ccb6d33cdd0cb352054399572782604051610cd791906120df565b60405180910390a15050565b60008060008373ffffffffffffffffffffffffffffffffffffffff1673ffffffffffffffffffffffffffffffffffffffff168152602001908152602001600020549050919050565b60006005600084815260200190815260200160002060000160008373ffffffffffffffffffffffffffffffffffffffff1673ffffffffffffffffffffffffffffffffffffffff16815260200190815260200160002060009054906101000a900460ff16905092915050565b606060048054610da5906122c7565b80601f0160208091040260200160405190810160405280929190818152602001828054610dd1906122c7565b8015610e1e5780601f10610df357610100808354040283529160200191610e1e565b820191906000526020600020905b815481529060010190602001808311610e0157829003601f168201915b5050505050905090565b7f9f2df0fed2c77648de5860a4cc508cd0818c85b8b8a1ab4ceeef8d981c8956a6610e5a81610e55611177565b61117f565b610e6483836116f0565b505050565b610e74338383610909565b505050565b6000801b81565b600080610e8b611177565b90506000600160008373ffffffffffffffffffffffffffffffffffffffff1673ffffffffffffffffffffffffffffffffffffffff16815260200190815260200160002060008673ffffffffffffffffffffffffffffffffffffffff1673ffffffffffffffffffffffffffffffffffffffff16815260200190815260200160002054905083811015610f51576040517f08c379a0000000000000000000000000000000000000000000000000000000008152600401610f489061256f565b60405180910390fd5b610f5e828686840361149b565b60019250505092915050565b600080610f75611177565b9050610f8281858561121c565b600191505092915050565b600034905060008111610fd5576040517f08c379a0000000000000000000000000000000000000000000000000000000008152600401610fcc906125db565b60405180910390fd5b610fdf3382611a89565b7f4e08ba899977cf7d4c2964bce71c6b9a7ef76ee5166a4c1249a1e08016e33ef18160405161100e91906120df565b60405180910390a150565b7f9f2df0fed2c77648de5860a4cc508cd0818c85b8b8a1ab4ceeef8d981c8956a681565b61104682610938565b61105781611052611177565b61117f565b61106183836119a7565b505050565b6000600160008473ffffffffffffffffffffffffffffffffffffffff1673ffffffffffffffffffffffffffffffffffffffff16815260200190815260200160002060008373ffffffffffffffffffffffffffffffffffffffff1673ffffffffffffffffffffffffffffffffffffffff16815260200190815260200160002054905092915050565b6000801b611102816110fd611177565b61117f565b816007819055505050565b60007f01ffc9a7000000000000000000000000000000000000000000000000000000007bffffffffffffffffffffffffffffffffffffffffffffffffffffffff1916827bffffffffffffffffffffffffffffffffffffffffffffffffffffffff1916149050919050565b600033905090565b6111898282610d2b565b611218576111ae8173ffffffffffffffffffffffffffffffffffffffff166014611be8565b6111bc8360001c6020611be8565b6040516020016111cd9291906126cf565b6040516020818303038152906040526040517f08c379a000000000000000000000000000000000000000000000000000000000815260040161120f919061206e565b60405180910390fd5b5050565b600073ffffffffffffffffffffffffffffffffffffffff168373ffffffffffffffffffffffffffffffffffffffff160361128b576040517f08c379a00000000000000000000000000000000000000000000000000000000081526004016112829061277b565b60405180910390fd5b600073ffffffffffffffffffffffffffffffffffffffff168273ffffffffffffffffffffffffffffffffffffffff16036112fa576040517f08c379a00000000000000000000000000000000000000000000000000000000081526004016112f19061280d565b60405180910390fd5b611305838383611e24565b60008060008573ffffffffffffffffffffffffffffffffffffffff1673ffffffffffffffffffffffffffffffffffffffff1681526020019081526020016000205490508181101561138b576040517f08c379a00000000000000000000000000000000000000000000000000000000081526004016113829061289f565b60405180910390fd5b8181036000808673ffffffffffffffffffffffffffffffffffffffff1673ffffffffffffffffffffffffffffffffffffffff16815260200190815260200160002081905550816000808573ffffffffffffffffffffffffffffffffffffffff1673ffffffffffffffffffffffffffffffffffffffff168152602001908152602001600020600082825461141e91906124a7565b925050819055508273ffffffffffffffffffffffffffffffffffffffff168473ffffffffffffffffffffffffffffffffffffffff167fddf252ad1be2c89b69c2b068fc378daa952ba7f163c4a11628f55a4df523b3ef8460405161148291906120df565b60405180910390a3611495848484611e29565b50505050565b600073ffffffffffffffffffffffffffffffffffffffff168373ffffffffffffffffffffffffffffffffffffffff160361150a576040517f08c379a000000000000000000000000000000000000000000000000000000000815260040161150190612931565b60405180910390fd5b600073ffffffffffffffffffffffffffffffffffffffff168273ffffffffffffffffffffffffffffffffffffffff1603611579576040517f08c379a0000000000000000000000000000000000000000000000000000000008152600401611570906129c3565b60405180910390fd5b80600160008573ffffffffffffffffffffffffffffffffffffffff1673ffffffffffffffffffffffffffffffffffffffff16815260200190815260200160002060008473ffffffffffffffffffffffffffffffffffffffff1673ffffffffffffffffffffffffffffffffffffffff168152602001908152602001600020819055508173ffffffffffffffffffffffffffffffffffffffff168373ffffffffffffffffffffffffffffffffffffffff167f8c5be1e5ebec7d5bd14f71427d1e84f3dd0314c0f7b2291e5b200ac8c7c3b9258360405161165791906120df565b60405180910390a3505050565b60006116708484611066565b90507fffffffffffffffffffffffffffffffffffffffffffffffffffffffffffffffff81146116ea57818110156116dc576040517f08c379a00000000000000000000000000000000000000000000000000000000081526004016116d390612a2f565b60405180910390fd5b6116e9848484840361149b565b5b50505050565b600073ffffffffffffffffffffffffffffffffffffffff168273ffffffffffffffffffffffffffffffffffffffff160361175f576040517f08c379a000000000000000000000000000000000000000000000000000000000815260040161175690612ac1565b60405180910390fd5b61176b82600083611e24565b60008060008473ffffffffffffffffffffffffffffffffffffffff1673ffffffffffffffffffffffffffffffffffffffff168152602001908152602001600020549050818110156117f1576040517f08c379a00000000000000000000000000000000000000000000000000000000081526004016117e890612b53565b60405180910390fd5b8181036000808573ffffffffffffffffffffffffffffffffffffffff1673ffffffffffffffffffffffffffffffffffffffff16815260200190815260200160002081905550816002600082825461184891906123e1565b92505081905550600073ffffffffffffffffffffffffffffffffffffffff168373ffffffffffffffffffffffffffffffffffffffff167fddf252ad1be2c89b69c2b068fc378daa952ba7f163c4a11628f55a4df523b3ef846040516118ad91906120df565b60405180910390a36118c183600084611e29565b505050565b6118d08282610d2b565b6119a35760016005600084815260200190815260200160002060000160008373ffffffffffffffffffffffffffffffffffffffff1673ffffffffffffffffffffffffffffffffffffffff16815260200190815260200160002060006101000a81548160ff021916908315150217905550611948611177565b73ffffffffffffffffffffffffffffffffffffffff168173ffffffffffffffffffffffffffffffffffffffff16837f2f8788117e7eff1d82e926ec794901d17c78024a50270940304540a733656f0d60405160405180910390a45b5050565b6119b18282610d2b565b15611a855760006005600084815260200190815260200160002060000160008373ffffffffffffffffffffffffffffffffffffffff1673ffffffffffffffffffffffffffffffffffffffff16815260200190815260200160002060006101000a81548160ff021916908315150217905550611a2a611177565b73ffffffffffffffffffffffffffffffffffffffff168173ffffffffffffffffffffffffffffffffffffffff16837ff6391f5c32d9c69d2a47ea670b442974b53935d1edc7fd64eb21e047a839171b60405160405180910390a45b5050565b600073ffffffffffffffffffffffffffffffffffffffff168273ffffffffffffffffffffffffffffffffffffffff1603611af8576040517f08c379a0000000000000000000000000000000000000000000000000000000008152600401611aef90612bbf565b60405180910390fd5b611b0460008383611e24565b8060026000828254611b1691906124a7565b92505081905550806000808473ffffffffffffffffffffffffffffffffffffffff1673ffffffffffffffffffffffffffffffffffffffff1681526020019081526020016000206000828254611b6b91906124a7565b925050819055508173ffffffffffffffffffffffffffffffffffffffff16600073ffffffffffffffffffffffffffffffffffffffff167fddf252ad1be2c89b69c2b068fc378daa952ba7f163c4a11628f55a4df523b3ef83604051611bd091906120df565b60405180910390a3611be460008383611e29565b5050565b606060006002836002611bfb9190612327565b611c0591906124a7565b67ffffffffffffffff811115611c1e57611c1d612bdf565b5b6040519080825280601f01601f191660200182016040528015611c505781602001600182028036833780820191505090505b5090507f300000000000000000000000000000000000000000000000000000000000000081600081518110611c8857611c87612c0e565b5b60200101907effffffffffffffffffffffffffffffffffffffffffffffffffffffffffffff1916908160001a9053507f780000000000000000000000000000000000000000000000000000000000000081600181518110611cec57611ceb612c0e565b5b60200101907effffffffffffffffffffffffffffffffffffffffffffffffffffffffffffff1916908160001a90535060006001846002611d2c9190612327565b611d3691906124a7565b90505b6001811115611dd6577f3031323334353637383961626364656600000000000000000000000000000000600f861660108110611d7857611d77612c0e565b5b1a60f81b828281518110611d8f57611d8e612c0e565b5b60200101907effffffffffffffffffffffffffffffffffffffffffffffffffffffffffffff1916908160001a905350600485901c945080611dcf90612c3d565b9050611d39565b5060008414611e1a576040517f08c379a0000000000000000000000000000000000000000000000000000000008152600401611e1190612cb2565b60405180910390fd5b8091505092915050565b505050565b505050565b600080fd5b60007fffffffff0000000000000000000000000000000000000000000000000000000082169050919050565b611e6881611e33565b8114611e7357600080fd5b50565b600081359050611e8581611e5f565b92915050565b600060208284031215611ea157611ea0611e2e565b5b6000611eaf84828501611e76565b91505092915050565b60008115159050919050565b611ecd81611eb8565b82525050565b6000602082019050611ee86000830184611ec4565b92915050565b600073ffffffffffffffffffffffffffffffffffffffff82169050919050565b6000611f1982611eee565b9050919050565b611f2981611f0e565b8114611f3457600080fd5b50565b600081359050611f4681611f20565b92915050565b6000819050919050565b611f5f81611f4c565b8114611f6a57600080fd5b50565b600081359050611f7c81611f56565b92915050565b600080600060608486031215611f9b57611f9a611e2e565b5b6000611fa986828701611f37565b9350506020611fba86828701611f37565b9250506040611fcb86828701611f6d565b9150509250925092565b600081519050919050565b600082825260208201905092915050565b60005b8381101561200f578082015181840152602081019050611ff4565b8381111561201e576000848401525b50505050565b6000601f19601f8301169050919050565b600061204082611fd5565b61204a8185611fe0565b935061205a818560208601611ff1565b61206381612024565b840191505092915050565b600060208201905081810360008301526120888184612035565b905092915050565b600080604083850312156120a7576120a6611e2e565b5b60006120b585828601611f37565b92505060206120c685828601611f6d565b9150509250929050565b6120d981611f4c565b82525050565b60006020820190506120f460008301846120d0565b92915050565b6000819050919050565b61210d816120fa565b811461211857600080fd5b50565b60008135905061212a81612104565b92915050565b60006020828403121561214657612145611e2e565b5b60006121548482850161211b565b91505092915050565b612166816120fa565b82525050565b6000602082019050612181600083018461215d565b92915050565b60006020828403121561219d5761219c611e2e565b5b60006121ab84828501611f6d565b91505092915050565b600080604083850312156121cb576121ca611e2e565b5b60006121d98582860161211b565b92505060206121ea85828601611f37565b9150509250929050565b600060ff82169050919050565b61220a816121f4565b82525050565b60006020820190506122256000830184612201565b92915050565b60006020828403121561224157612240611e2e565b5b600061224f84828501611f37565b91505092915050565b6000806040838503121561226f5761226e611e2e565b5b600061227d85828601611f37565b925050602061228e85828601611f37565b9150509250929050565b7f4e487b7100000000000000000000000000000000000000000000000000000000600052602260045260246000fd5b600060028204905060018216806122df57607f821691505b6020821081036122f2576122f1612298565b5b50919050565b7f4e487b7100000000000000000000000000000000000000000000000000000000600052601160045260246000fd5b600061233282611f4c565b915061233d83611f4c565b9250817fffffffffffffffffffffffffffffffffffffffffffffffffffffffffffffffff0483118215151615612376576123756122f8565b5b828202905092915050565b7f4e487b7100000000000000000000000000000000000000000000000000000000600052601260045260246000fd5b60006123bb82611f4c565b91506123c683611f4c565b9250826123d6576123d5612381565b5b828204905092915050565b60006123ec82611f4c565b91506123f783611f4c565b92508282101561240a576124096122f8565b5b828203905092915050565b7f416363657373436f6e74726f6c3a2063616e206f6e6c792072656e6f756e636560008201527f20726f6c657320666f722073656c660000000000000000000000000000000000602082015250565b6000612471602f83611fe0565b915061247c82612415565b604082019050919050565b600060208201905081810360008301526124a081612464565b9050919050565b60006124b282611f4c565b91506124bd83611f4c565b9250827fffffffffffffffffffffffffffffffffffffffffffffffffffffffffffffffff038211156124f2576124f16122f8565b5b828201905092915050565b7f45524332303a2064656372656173656420616c6c6f77616e63652062656c6f7760008201527f207a65726f000000000000000000000000000000000000000000000000000000602082015250565b6000612559602583611fe0565b9150612564826124fd565b604082019050919050565b600060208201905081810360008301526125888161254c565b9050919050565b7f596f75206e65656420746f2073656e6420736f6d652045746865720000000000600082015250565b60006125c5601b83611fe0565b91506125d08261258f565b602082019050919050565b600060208201905081810360008301526125f4816125b8565b9050919050565b600081905092915050565b7f416363657373436f6e74726f6c3a206163636f756e7420000000000000000000600082015250565b600061263c6017836125fb565b915061264782612606565b601782019050919050565b600061265d82611fd5565b61266781856125fb565b9350612677818560208601611ff1565b80840191505092915050565b7f206973206d697373696e6720726f6c6520000000000000000000000000000000600082015250565b60006126b96011836125fb565b91506126c482612683565b601182019050919050565b60006126da8261262f565b91506126e68285612652565b91506126f1826126ac565b91506126fd8284612652565b91508190509392505050565b7f45524332303a207472616e736665722066726f6d20746865207a65726f20616460008201527f6472657373000000000000000000000000000000000000000000000000000000602082015250565b6000612765602583611fe0565b915061277082612709565b604082019050919050565b6000602082019050818103600083015261279481612758565b9050919050565b7f45524332303a207472616e7366657220746f20746865207a65726f206164647260008201527f6573730000000000000000000000000000000000000000000000000000000000602082015250565b60006127f7602383611fe0565b91506128028261279b565b604082019050919050565b60006020820190508181036000830152612826816127ea565b9050919050565b7f45524332303a207472616e7366657220616d6f756e742065786365656473206260008201527f616c616e63650000000000000000000000000000000000000000000000000000602082015250565b6000612889602683611fe0565b91506128948261282d565b604082019050919050565b600060208201905081810360008301526128b88161287c565b9050919050565b7f45524332303a20617070726f76652066726f6d20746865207a65726f2061646460008201527f7265737300000000000000000000000000000000000000000000000000000000602082015250565b600061291b602483611fe0565b9150612926826128bf565b604082019050919050565b6000602082019050818103600083015261294a8161290e565b9050919050565b7f45524332303a20617070726f766520746f20746865207a65726f20616464726560008201527f7373000000000000000000000000000000000000000000000000000000000000602082015250565b60006129ad602283611fe0565b91506129b882612951565b604082019050919050565b600060208201905081810360008301526129dc816129a0565b9050919050565b7f45524332303a20696e73756666696369656e7420616c6c6f77616e6365000000600082015250565b6000612a19601d83611fe0565b9150612a24826129e3565b602082019050919050565b60006020820190508181036000830152612a4881612a0c565b9050919050565b7f45524332303a206275726e2066726f6d20746865207a65726f2061646472657360008201527f7300000000000000000000000000000000000000000000000000000000000000602082015250565b6000612aab602183611fe0565b9150612ab682612a4f565b604082019050919050565b60006020820190508181036000830152612ada81612a9e565b9050919050565b7f45524332303a206275726e20616d6f756e7420657863656564732062616c616e60008201527f6365000000000000000000000000000000000000000000000000000000000000602082015250565b6000612b3d602283611fe0565b9150612b4882612ae1565b604082019050919050565b60006020820190508181036000830152612b6c81612b30565b9050919050565b7f45524332303a206d696e7420746f20746865207a65726f206164647265737300600082015250565b6000612ba9601f83611fe0565b9150612bb482612b73565b602082019050919050565b60006020820190508181036000830152612bd881612b9c565b9050919050565b7f4e487b7100000000000000000000000000000000000000000000000000000000600052604160045260246000fd5b7f4e487b7100000000000000000000000000000000000000000000000000000000600052603260045260246000fd5b6000612c4882611f4c565b915060008203612c5b57612c5a6122f8565b5b600182039050919050565b7f537472696e67733a20686578206c656e67746820696e73756666696369656e74600082015250565b6000612c9c602083611fe0565b9150612ca782612c66565b602082019050919050565b60006020820190508181036000830152612ccb81612c8f565b905091905056fea264697066735822122081d900ef40d2de4839069024059b275ed7988ab1fcecfb6bfe9ef00a3a7efd9764736f6c634300080d0033",
  "immutableReferences": {},
  "source": "// SPDX-License-Identifier: MIT\r\npragma solidity ^0.8.13;\r\n\r\nimport \"@openzeppelin/contracts/token/ERC20/ERC20.sol\";\r\nimport \"@openzeppelin/contracts/access/AccessControl.sol\";\r\n\r\ncontract Douya is ERC20, AccessControl {\r\n\r\n    // byte32\r\n    bytes32 public constant MINTER_ROLE = keccak256(\"MINTER_ROLE\");\r\n\r\n    event Bought(uint256 amount);\r\n    event Sold(uint256 amount);\r\n\r\n    constructor() ERC20(\"Douya\", \"DOU\") {\r\n        _grantRole(DEFAULT_ADMIN_ROLE, msg.sender);\r\n        _grantRole(MINTER_ROLE, msg.sender);\r\n        _mint(msg.sender, 100000000 * 10**decimals());\r\n    }\r\n\r\n    function mint(address to, uint256 amount) public onlyRole(MINTER_ROLE) {\r\n        _mint(to, amount);\r\n    }\r\n\r\n    function burn(address to, uint256 amount) public onlyRole(MINTER_ROLE) {\r\n        _burn(to, amount);\r\n    }\r\n\r\n    function transferRole(address sender, address receiver, uint256 amount) public onlyRole(MINTER_ROLE) {\r\n        _transfer(sender, receiver, amount);\r\n    }\r\n\r\n    function setRole(address addr) public onlyRole(DEFAULT_ADMIN_ROLE) {\r\n        _grantRole(MINTER_ROLE, addr);\r\n    }\r\n\r\n    // (eth)\r\n    function exchange() payable public {\r\n        uint256 amountTobuy = msg.value;\r\n        require(amountTobuy > 0, \"You need to send some Ether\");\r\n        _mint(msg.sender, amountTobuy);\r\n        emit Bought(amountTobuy);\r\n    }\r\n\r\n    // eth\r\n    function withdrawOwner(uint256 amount) public onlyRole(DEFAULT_ADMIN_ROLE) {\r\n        payable(msg.sender).transfer(amount);\r\n        emit Sold(amount);\r\n    }\r\n\r\n    uint256 public rate = 1000000;\r\n\r\n    uint256 public charge=0;\r\n\r\n    function withdraw(uint256 amount) public {\r\n        _burn(msg.sender, amount);\r\n        payable(msg.sender).transfer(amount*rate/1000000-amount*rate/1000000*charge/100);\r\n        emit Sold(amount);\r\n    }\r\n\r\n    function transferOther(address receiver, uint256 amount) public {\r\n        transferFrom(msg.sender, receiver, amount);\r\n    }\r\n\r\n    function setRate(uint256 _rate) public onlyRole(DEFAULT_ADMIN_ROLE) {\r\n        rate = _rate;\r\n    }\r\n\r\n    function setCharge(uint256 _charge) public onlyRole(DEFAULT_ADMIN_ROLE) {\r\n        charge = _charge;\r\n    }\r\n}\r\n",
  "sourcePath": "E:\\Douya_Coin_NFT\\contracts\\Douya.sol",
  "compiler": {
    "name": "solc",
    "version": "0.8.13+commit.abaa5c0e.Emscripten.clang"
  },
  "schemaVersion": "3.3.4",
  "updatedAt": "2022-03-21T15:10:37.442Z",
  "networkType": "ethereum",
  "devdoc": {
    "kind": "dev",
    "methods": {
      "allowance(address,address)": {
        "details": "See {IERC20-allowance}."
      },
      "approve(address,uint256)": {
        "details": "See {IERC20-approve}. NOTE: If `amount` is the maximum `uint256`, the allowance is not updated on `transferFrom`. This is semantically equivalent to an infinite approval. Requirements: - `spender` cannot be the zero address."
      },
      "balanceOf(address)": {
        "details": "See {IERC20-balanceOf}."
      },
      "decimals()": {
        "details": "Returns the number of decimals used to get its user representation. For example, if `decimals` equals `2`, a balance of `505` tokens should be displayed to a user as `5.05` (`505 / 10 ** 2`). Tokens usually opt for a value of 18, imitating the relationship between Ether and Wei. This is the value {ERC20} uses, unless this function is overridden; NOTE: This information is only used for _display_ purposes: it in no way affects any of the arithmetic of the contract, including {IERC20-balanceOf} and {IERC20-transfer}."
      },
      "decreaseAllowance(address,uint256)": {
        "details": "Atomically decreases the allowance granted to `spender` by the caller. This is an alternative to {approve} that can be used as a mitigation for problems described in {IERC20-approve}. Emits an {Approval} event indicating the updated allowance. Requirements: - `spender` cannot be the zero address. - `spender` must have allowance for the caller of at least `subtractedValue`."
      },
      "getRoleAdmin(bytes32)": {
        "details": "Returns the admin role that controls `role`. See {grantRole} and {revokeRole}. To change a role's admin, use {_setRoleAdmin}."
      },
      "grantRole(bytes32,address)": {
        "details": "Grants `role` to `account`. If `account` had not been already granted `role`, emits a {RoleGranted} event. Requirements: - the caller must have ``role``'s admin role."
      },
      "hasRole(bytes32,address)": {
        "details": "Returns `true` if `account` has been granted `role`."
      },
      "increaseAllowance(address,uint256)": {
        "details": "Atomically increases the allowance granted to `spender` by the caller. This is an alternative to {approve} that can be used as a mitigation for problems described in {IERC20-approve}. Emits an {Approval} event indicating the updated allowance. Requirements: - `spender` cannot be the zero address."
      },
      "name()": {
        "details": "Returns the name of the token."
      },
      "renounceRole(bytes32,address)": {
        "details": "Revokes `role` from the calling account. Roles are often managed via {grantRole} and {revokeRole}: this function's purpose is to provide a mechanism for accounts to lose their privileges if they are compromised (such as when a trusted device is misplaced). If the calling account had been revoked `role`, emits a {RoleRevoked} event. Requirements: - the caller must be `account`."
      },
      "revokeRole(bytes32,address)": {
        "details": "Revokes `role` from `account`. If `account` had been granted `role`, emits a {RoleRevoked} event. Requirements: - the caller must have ``role``'s admin role."
      },
      "supportsInterface(bytes4)": {
        "details": "See {IERC165-supportsInterface}."
      },
      "symbol()": {
        "details": "Returns the symbol of the token, usually a shorter version of the name."
      },
      "totalSupply()": {
        "details": "See {IERC20-totalSupply}."
      },
      "transfer(address,uint256)": {
        "details": "See {IERC20-transfer}. Requirements: - `to` cannot be the zero address. - the caller must have a balance of at least `amount`."
      },
      "transferFrom(address,address,uint256)": {
        "details": "See {IERC20-transferFrom}. Emits an {Approval} event indicating the updated allowance. This is not required by the EIP. See the note at the beginning of {ERC20}. NOTE: Does not update the allowance if the current allowance is the maximum `uint256`. Requirements: - `from` and `to` cannot be the zero address. - `from` must have a balance of at least `amount`. - the caller must have allowance for ``from``'s tokens of at least `amount`."
      }
    },
    "version": 1
  },
  "userdoc": {
    "kind": "user",
    "methods": {},
    "version": 1
  }
}