{
  "contractName": "DouyaNFT",
  "abi": [
    {
      "inputs": [
        {
          "internalType": "address",
          "name": "douyacoin",
          "type": "address"
        }
      ],
      "stateMutability": "nonpayable",
      "type": "constructor"
    },
    {
      "anonymous": false,
      "inputs": [
        {
          "indexed": true,
          "internalType": "address",
          "name": "owner",
          "type": "address"
        },
        {
          "indexed": true,
          "internalType": "address",
          "name": "approved",
          "type": "address"
        },
        {
          "indexed": true,
          "internalType": "uint256",
          "name": "tokenId",
          "type": "uint256"
        }
      ],
      "name": "Approval",
      "type": "event"
    },
    {
      "anonymous": false,
      "inputs": [
        {
          "indexed": true,
          "internalType": "address",
          "name": "owner",
          "type": "address"
        },
        {
          "indexed": true,
          "internalType": "address",
          "name": "operator",
          "type": "address"
        },
        {
          "indexed": false,
          "internalType": "bool",
          "name": "approved",
          "type": "bool"
        }
      ],
      "name": "ApprovalForAll",
      "type": "event"
    },
    {
      "anonymous": false,
      "inputs": [
        {
          "indexed": false,
          "internalType": "bool",
          "name": "successed",
          "type": "bool"
        },
        {
          "indexed": false,
          "internalType": "uint256",
          "name": "amount",
          "type": "uint256"
        }
      ],
      "name": "Dig",
      "type": "event"
    },
    {
      "anonymous": false,
      "inputs": [
        {
          "indexed": true,
          "internalType": "bytes32",
          "name": "role",
          "type": "bytes32"
        },
        {
          "indexed": true,
          "internalType": "bytes32",
          "name": "previousAdminRole",
          "type": "bytes32"
        },
        {
          "indexed": true,
          "internalType": "bytes32",
          "name": "newAdminRole",
          "type": "bytes32"
        }
      ],
      "name": "RoleAdminChanged",
      "type": "event"
    },
    {
      "anonymous": false,
      "inputs": [
        {
          "indexed": true,
          "internalType": "bytes32",
          "name": "role",
          "type": "bytes32"
        },
        {
          "indexed": true,
          "internalType": "address",
          "name": "account",
          "type": "address"
        },
        {
          "indexed": true,
          "internalType": "address",
          "name": "sender",
          "type": "address"
        }
      ],
      "name": "RoleGranted",
      "type": "event"
    },
    {
      "anonymous": false,
      "inputs": [
        {
          "indexed": true,
          "internalType": "bytes32",
          "name": "role",
          "type": "bytes32"
        },
        {
          "indexed": true,
          "internalType": "address",
          "name": "account",
          "type": "address"
        },
        {
          "indexed": true,
          "internalType": "address",
          "name": "sender",
          "type": "address"
        }
      ],
      "name": "RoleRevoked",
      "type": "event"
    },
    {
      "anonymous": false,
      "inputs": [
        {
          "indexed": true,
          "internalType": "address",
          "name": "from",
          "type": "address"
        },
        {
          "indexed": true,
          "internalType": "address",
          "name": "to",
          "type": "address"
        },
        {
          "indexed": true,
          "internalType": "uint256",
          "name": "tokenId",
          "type": "uint256"
        }
      ],
      "name": "Transfer",
      "type": "event"
    },
    {
      "inputs": [],
      "name": "DEFAULT_ADMIN_ROLE",
      "outputs": [
        {
          "internalType": "bytes32",
          "name": "",
          "type": "bytes32"
        }
      ],
      "stateMutability": "view",
      "type": "function",
      "constant": true
    },
    {
      "inputs": [],
      "name": "MAX_SUPPLY",
      "outputs": [
        {
          "internalType": "uint256",
          "name": "",
          "type": "uint256"
        }
      ],
      "stateMutability": "view",
      "type": "function",
      "constant": true
    },
    {
      "inputs": [],
      "name": "MINTER_ROLE",
      "outputs": [
        {
          "internalType": "bytes32",
          "name": "",
          "type": "bytes32"
        }
      ],
      "stateMutability": "view",
      "type": "function",
      "constant": true
    },
    {
      "inputs": [],
      "name": "_isSaleActive",
      "outputs": [
        {
          "internalType": "bool",
          "name": "",
          "type": "bool"
        }
      ],
      "stateMutability": "view",
      "type": "function",
      "constant": true
    },
    {
      "inputs": [],
      "name": "_revealed",
      "outputs": [
        {
          "internalType": "bool",
          "name": "",
          "type": "bool"
        }
      ],
      "stateMutability": "view",
      "type": "function",
      "constant": true
    },
    {
      "inputs": [
        {
          "internalType": "address",
          "name": "to",
          "type": "address"
        },
        {
          "internalType": "uint256",
          "name": "tokenId",
          "type": "uint256"
        }
      ],
      "name": "approve",
      "outputs": [],
      "stateMutability": "nonpayable",
      "type": "function"
    },
    {
      "inputs": [
        {
          "internalType": "address",
          "name": "owner",
          "type": "address"
        }
      ],
      "name": "balanceOf",
      "outputs": [
        {
          "internalType": "uint256",
          "name": "",
          "type": "uint256"
        }
      ],
      "stateMutability": "view",
      "type": "function",
      "constant": true
    },
    {
      "inputs": [],
      "name": "baseExtension",
      "outputs": [
        {
          "internalType": "string",
          "name": "",
          "type": "string"
        }
      ],
      "stateMutability": "view",
      "type": "function",
      "constant": true
    },
    {
      "inputs": [
        {
          "internalType": "uint256",
          "name": "tokenId",
          "type": "uint256"
        }
      ],
      "name": "getApproved",
      "outputs": [
        {
          "internalType": "address",
          "name": "",
          "type": "address"
        }
      ],
      "stateMutability": "view",
      "type": "function",
      "constant": true
    },
    {
      "inputs": [
        {
          "internalType": "bytes32",
          "name": "role",
          "type": "bytes32"
        }
      ],
      "name": "getRoleAdmin",
      "outputs": [
        {
          "internalType": "bytes32",
          "name": "",
          "type": "bytes32"
        }
      ],
      "stateMutability": "view",
      "type": "function",
      "constant": true
    },
    {
      "inputs": [
        {
          "internalType": "bytes32",
          "name": "role",
          "type": "bytes32"
        },
        {
          "internalType": "address",
          "name": "account",
          "type": "address"
        }
      ],
      "name": "grantRole",
      "outputs": [],
      "stateMutability": "nonpayable",
      "type": "function"
    },
    {
      "inputs": [
        {
          "internalType": "bytes32",
          "name": "role",
          "type": "bytes32"
        },
        {
          "internalType": "address",
          "name": "account",
          "type": "address"
        }
      ],
      "name": "hasRole",
      "outputs": [
        {
          "internalType": "bool",
          "name": "",
          "type": "bool"
        }
      ],
      "stateMutability": "view",
      "type": "function",
      "constant": true
    },
    {
      "inputs": [
        {
          "internalType": "address",
          "name": "owner",
          "type": "address"
        },
        {
          "internalType": "address",
          "name": "operator",
          "type": "address"
        }
      ],
      "name": "isApprovedForAll",
      "outputs": [
        {
          "internalType": "bool",
          "name": "",
          "type": "bool"
        }
      ],
      "stateMutability": "view",
      "type": "function",
      "constant": true
    },
    {
      "inputs": [],
      "name": "maxBalance",
      "outputs": [
        {
          "internalType": "uint256",
          "name": "",
          "type": "uint256"
        }
      ],
      "stateMutability": "view",
      "type": "function",
      "constant": true
    },
    {
      "inputs": [],
      "name": "maxMint",
      "outputs": [
        {
          "internalType": "uint256",
          "name": "",
          "type": "uint256"
        }
      ],
      "stateMutability": "view",
      "type": "function",
      "constant": true
    },
    {
      "inputs": [],
      "name": "mintPrice",
      "outputs": [
        {
          "internalType": "uint256",
          "name": "",
          "type": "uint256"
        }
      ],
      "stateMutability": "view",
      "type": "function",
      "constant": true
    },
    {
      "inputs": [],
      "name": "name",
      "outputs": [
        {
          "internalType": "string",
          "name": "",
          "type": "string"
        }
      ],
      "stateMutability": "view",
      "type": "function",
      "constant": true
    },
    {
      "inputs": [],
      "name": "notRevealedUri",
      "outputs": [
        {
          "internalType": "string",
          "name": "",
          "type": "string"
        }
      ],
      "stateMutability": "view",
      "type": "function",
      "constant": true
    },
    {
      "inputs": [
        {
          "internalType": "uint256",
          "name": "tokenId",
          "type": "uint256"
        }
      ],
      "name": "ownerOf",
      "outputs": [
        {
          "internalType": "address",
          "name": "",
          "type": "address"
        }
      ],
      "stateMutability": "view",
      "type": "function",
      "constant": true
    },
    {
      "inputs": [
        {
          "internalType": "uint256",
          "name": "",
          "type": "uint256"
        }
      ],
      "name": "props",
      "outputs": [
        {
          "internalType": "uint16",
          "name": "power",
          "type": "uint16"
        }
      ],
      "stateMutability": "view",
      "type": "function",
      "constant": true
    },
    {
      "inputs": [
        {
          "internalType": "bytes32",
          "name": "role",
          "type": "bytes32"
        },
        {
          "internalType": "address",
          "name": "account",
          "type": "address"
        }
      ],
      "name": "renounceRole",
      "outputs": [],
      "stateMutability": "nonpayable",
      "type": "function"
    },
    {
      "inputs": [
        {
          "internalType": "bytes32",
          "name": "role",
          "type": "bytes32"
        },
        {
          "internalType": "address",
          "name": "account",
          "type": "address"
        }
      ],
      "name": "revokeRole",
      "outputs": [],
      "stateMutability": "nonpayable",
      "type": "function"
    },
    {
      "inputs": [
        {
          "internalType": "address",
          "name": "from",
          "type": "address"
        },
        {
          "internalType": "address",
          "name": "to",
          "type": "address"
        },
        {
          "internalType": "uint256",
          "name": "tokenId",
          "type": "uint256"
        }
      ],
      "name": "safeTransferFrom",
      "outputs": [],
      "stateMutability": "nonpayable",
      "type": "function"
    },
    {
      "inputs": [
        {
          "internalType": "address",
          "name": "from",
          "type": "address"
        },
        {
          "internalType": "address",
          "name": "to",
          "type": "address"
        },
        {
          "internalType": "uint256",
          "name": "tokenId",
          "type": "uint256"
        },
        {
          "internalType": "bytes",
          "name": "_data",
          "type": "bytes"
        }
      ],
      "name": "safeTransferFrom",
      "outputs": [],
      "stateMutability": "nonpayable",
      "type": "function"
    },
    {
      "inputs": [
        {
          "internalType": "address",
          "name": "operator",
          "type": "address"
        },
        {
          "internalType": "bool",
          "name": "approved",
          "type": "bool"
        }
      ],
      "name": "setApprovalForAll",
      "outputs": [],
      "stateMutability": "nonpayable",
      "type": "function"
    },
    {
      "inputs": [],
      "name": "symbol",
      "outputs": [
        {
          "internalType": "string",
          "name": "",
          "type": "string"
        }
      ],
      "stateMutability": "view",
      "type": "function",
      "constant": true
    },
    {
      "inputs": [
        {
          "internalType": "uint256",
          "name": "index",
          "type": "uint256"
        }
      ],
      "name": "tokenByIndex",
      "outputs": [
        {
          "internalType": "uint256",
          "name": "",
          "type": "uint256"
        }
      ],
      "stateMutability": "view",
      "type": "function",
      "constant": true
    },
    {
      "inputs": [
        {
          "internalType": "address",
          "name": "owner",
          "type": "address"
        },
        {
          "internalType": "uint256",
          "name": "index",
          "type": "uint256"
        }
      ],
      "name": "tokenOfOwnerByIndex",
      "outputs": [
        {
          "internalType": "uint256",
          "name": "",
          "type": "uint256"
        }
      ],
      "stateMutability": "view",
      "type": "function",
      "constant": true
    },
    {
      "inputs": [],
      "name": "totalSupply",
      "outputs": [
        {
          "internalType": "uint256",
          "name": "",
          "type": "uint256"
        }
      ],
      "stateMutability": "view",
      "type": "function",
      "constant": true
    },
    {
      "inputs": [
        {
          "internalType": "address",
          "name": "from",
          "type": "address"
        },
        {
          "internalType": "address",
          "name": "to",
          "type": "address"
        },
        {
          "internalType": "uint256",
          "name": "tokenId",
          "type": "uint256"
        }
      ],
      "name": "transferFrom",
      "outputs": [],
      "stateMutability": "nonpayable",
      "type": "function"
    },
    {
      "inputs": [],
      "name": "tokenIds",
      "outputs": [
        {
          "internalType": "uint256",
          "name": "",
          "type": "uint256"
        }
      ],
      "stateMutability": "view",
      "type": "function",
      "constant": true
    },
    {
      "inputs": [],
      "name": "mintDouyaNFT",
      "outputs": [
        {
          "internalType": "uint256",
          "name": "",
          "type": "uint256"
        }
      ],
      "stateMutability": "payable",
      "type": "function",
      "payable": true
    },
    {
      "inputs": [
        {
          "internalType": "string",
          "name": "_newBaseURI",
          "type": "string"
        }
      ],
      "name": "setBaseURI",
      "outputs": [],
      "stateMutability": "nonpayable",
      "type": "function"
    },
    {
      "inputs": [
        {
          "internalType": "string",
          "name": "_notRevealedURI",
          "type": "string"
        }
      ],
      "name": "setNotRevealedURI",
      "outputs": [],
      "stateMutability": "nonpayable",
      "type": "function"
    },
    {
      "inputs": [
        {
          "internalType": "uint256",
          "name": "tokenId",
          "type": "uint256"
        }
      ],
      "name": "tokenURI",
      "outputs": [
        {
          "internalType": "string",
          "name": "",
          "type": "string"
        }
      ],
      "stateMutability": "view",
      "type": "function",
      "constant": true
    },
    {
      "inputs": [
        {
          "internalType": "address",
          "name": "addr",
          "type": "address"
        }
      ],
      "name": "setRole",
      "outputs": [],
      "stateMutability": "nonpayable",
      "type": "function"
    },
    {
      "inputs": [
        {
          "internalType": "address",
          "name": "owner",
          "type": "address"
        },
        {
          "internalType": "address",
          "name": "addr",
          "type": "address"
        },
        {
          "internalType": "bool",
          "name": "b",
          "type": "bool"
        }
      ],
      "name": "setMoveNft",
      "outputs": [],
      "stateMutability": "nonpayable",
      "type": "function"
    },
    {
      "inputs": [
        {
          "internalType": "bytes4",
          "name": "interfaceId",
          "type": "bytes4"
        }
      ],
      "name": "supportsInterface",
      "outputs": [
        {
          "internalType": "bool",
          "name": "",
          "type": "bool"
        }
      ],
      "stateMutability": "view",
      "type": "function",
      "constant": true
    },
    {
      "inputs": [],
      "name": "flipSaleActive",
      "outputs": [],
      "stateMutability": "nonpayable",
      "type": "function"
    },
    {
      "inputs": [],
      "name": "flipReveal",
      "outputs": [],
      "stateMutability": "nonpayable",
      "type": "function"
    },
    {
      "inputs": [
        {
          "internalType": "address",
          "name": "_owner",
          "type": "address"
        }
      ],
      "name": "getByOwner",
      "outputs": [
        {
          "internalType": "uint256[]",
          "name": "",
          "type": "uint256[]"
        }
      ],
      "stateMutability": "view",
      "type": "function",
      "constant": true
    },
    {
      "inputs": [
        {
          "internalType": "uint256",
          "name": "tokenId",
          "type": "uint256"
        }
      ],
      "name": "getPower",
      "outputs": [
        {
          "internalType": "uint256",
          "name": "",
          "type": "uint256"
        }
      ],
      "stateMutability": "view",
      "type": "function",
      "constant": true
    },
    {
      "inputs": [
        {
          "internalType": "address",
          "name": "player",
          "type": "address"
        },
        {
          "internalType": "uint256",
          "name": "tokenId",
          "type": "uint256"
        }
      ],
      "name": "dig",
      "outputs": [],
      "stateMutability": "nonpayable",
      "type": "function"
    },
    {
      "inputs": [
        {
          "internalType": "uint256",
          "name": "_tokenId",
          "type": "uint256"
        }
      ],
      "name": "digAlow",
      "outputs": [
        {
          "internalType": "bool",
          "name": "",
          "type": "bool"
        }
      ],
      "stateMutability": "view",
      "type": "function",
      "constant": true
    },
    {
      "inputs": [],
      "name": "rand",
      "outputs": [
        {
          "internalType": "uint256",
          "name": "",
          "type": "uint256"
        }
      ],
      "stateMutability": "view",
      "type": "function",
      "constant": true
    },
    {
      "inputs": [
        {
          "internalType": "address",
          "name": "to",
          "type": "address"
        }
      ],
      "name": "withdraw",
      "outputs": [],
      "stateMutability": "nonpayable",
      "type": "function"
    }
  ],
  "bytecode": "0x60806040526000600c60146101000a81548160ff0219169083151502179055506000600c60156101000a81548160ff021916908315150217905550666a94d74f430000600d556002600e556001600f556040518060400160405280600581526020017f2e6a736f6e000000000000000000000000000000000000000000000000000000815250601290805190602001906200009c92919062000362565b50348015620000aa57600080fd5b506040516200590d3803806200590d8339818101604052810190620000d091906200047c565b6040518060400160405280600881526020017f446f7579614e46540000000000000000000000000000000000000000000000008152506040518060400160405280600481526020017f444f554e0000000000000000000000000000000000000000000000000000000081525081600190805190602001906200015492919062000362565b5080600290805190602001906200016d92919062000362565b50505080600c60006101000a81548173ffffffffffffffffffffffffffffffffffffffff021916908373ffffffffffffffffffffffffffffffffffffffff160217905550620001c66000801b33620001ff60201b60201c565b620001f87f9f2df0fed2c77648de5860a4cc508cd0818c85b8b8a1ab4ceeef8d981c8956a633620001ff60201b60201c565b5062000512565b620002118282620002f060201b60201c565b620002ec57600160008084815260200190815260200160002060000160008373ffffffffffffffffffffffffffffffffffffffff1673ffffffffffffffffffffffffffffffffffffffff16815260200190815260200160002060006101000a81548160ff021916908315150217905550620002916200035a60201b60201c565b73ffffffffffffffffffffffffffffffffffffffff168173ffffffffffffffffffffffffffffffffffffffff16837f2f8788117e7eff1d82e926ec794901d17c78024a50270940304540a733656f0d60405160405180910390a45b5050565b600080600084815260200190815260200160002060000160008373ffffffffffffffffffffffffffffffffffffffff1673ffffffffffffffffffffffffffffffffffffffff16815260200190815260200160002060009054906101000a900460ff16905092915050565b600033905090565b8280546200037090620004dd565b90600052602060002090601f016020900481019282620003945760008555620003e0565b82601f10620003af57805160ff1916838001178555620003e0565b82800160010185558215620003e0579182015b82811115620003df578251825591602001919060010190620003c2565b5b509050620003ef9190620003f3565b5090565b5b808211156200040e576000816000905550600101620003f4565b5090565b600080fd5b600073ffffffffffffffffffffffffffffffffffffffff82169050919050565b6000620004448262000417565b9050919050565b620004568162000437565b81146200046257600080fd5b50565b60008151905062000476816200044b565b92915050565b60006020828403121562000495576200049462000412565b5b6000620004a58482850162000465565b91505092915050565b7f4e487b7100000000000000000000000000000000000000000000000000000000600052602260045260246000fd5b60006002820490506001821680620004f657607f821691505b6020821081036200050c576200050b620004ae565b5b50919050565b6153eb80620005226000396000f3fe60806040526004361061027d5760003560e01c80636817c76c1161014f578063a5f101d6116100c1578063d547741f1161007a578063d547741f146109db578063de8b51e114610a04578063e985e9c514610a1b578063f2c4ce1e14610a58578063fb85d8dc14610a81578063fda54c1614610aaa5761027d565b8063a5f101d6146108c4578063b88d4fde146108e2578063c66828621461090b578063c87b56dd14610936578063cbcbf10d14610973578063d5391393146109b05761027d565b806373ad468a1161011357806373ad468a146107b25780637501f741146107dd57806391d148541461080857806395d89b4114610845578063a217fddf14610870578063a22cb4651461089b5761027d565b80636817c76c146106c95780636ebeac85146106f45780637080d6fc1461071f57806370a082311461074a578063714cff56146107875761027d565b806332cb6b0c116101f357806342842e0e116101ac57806342842e0e146105ab5780634f6ccce7146105d457806351cff8d91461061157806355f804b31461063a5780635d0efc4d146106635780636352211e1461068c5761027d565b806332cb6b0c146104af57806336568abe146104da578063379c5131146105035780633b3dca76146105405780633b84d9c61461056b578063412fc746146105825761027d565b8063095ea7b311610245578063095ea7b31461038f57806318160ddd146103b857806323b872dd146103e3578063248a9ca31461040c5780632f2ff15d146104495780632f745c59146104725761027d565b8063017fe8091461028257806301ffc9a7146102bf57806306fdde03146102fc578063081812fc14610327578063081c8c4414610364575b600080fd5b34801561028e57600080fd5b506102a960048036038101906102a4919061382c565b610ae7565b6040516102b69190613868565b60405180910390f35b3480156102cb57600080fd5b506102e660048036038101906102e191906138db565b610b19565b6040516102f39190613923565b60405180910390f35b34801561030857600080fd5b50610311610b2b565b60405161031e91906139d7565b60405180910390f35b34801561033357600080fd5b5061034e6004803603810190610349919061382c565b610bbd565b60405161035b9190613a3a565b60405180910390f35b34801561037057600080fd5b50610379610c42565b60405161038691906139d7565b60405180910390f35b34801561039b57600080fd5b506103b660048036038101906103b19190613a81565b610cd0565b005b3480156103c457600080fd5b506103cd610de7565b6040516103da9190613868565b60405180910390f35b3480156103ef57600080fd5b5061040a60048036038101906104059190613ac1565b610df4565b005b34801561041857600080fd5b50610433600480360381019061042e9190613b4a565b610e54565b6040516104409190613b86565b60405180910390f35b34801561045557600080fd5b50610470600480360381019061046b9190613ba1565b610e73565b005b34801561047e57600080fd5b5061049960048036038101906104949190613a81565b610e9c565b6040516104a69190613868565b60405180910390f35b3480156104bb57600080fd5b506104c4610f41565b6040516104d19190613868565b60405180910390f35b3480156104e657600080fd5b5061050160048036038101906104fc9190613ba1565b610f46565b005b34801561050f57600080fd5b5061052a60048036038101906105259190613be1565b610fc9565b6040516105379190613ccc565b60405180910390f35b34801561054c57600080fd5b506105556110c0565b6040516105629190613868565b60405180910390f35b34801561057757600080fd5b50610580611110565b005b34801561058e57600080fd5b506105a960048036038101906105a49190613a81565b611152565b005b3480156105b757600080fd5b506105d260048036038101906105cd9190613ac1565b6113c6565b005b3480156105e057600080fd5b506105fb60048036038101906105f6919061382c565b6113e6565b6040516106089190613868565b60405180910390f35b34801561061d57600080fd5b5061063860048036038101906106339190613be1565b611457565b005b34801561064657600080fd5b50610661600480360381019061065c9190613e23565b6114da565b005b34801561066f57600080fd5b5061068a60048036038101906106859190613be1565b611527565b005b34801561069857600080fd5b506106b360048036038101906106ae919061382c565b61156a565b6040516106c09190613a3a565b60405180910390f35b3480156106d557600080fd5b506106de61161b565b6040516106eb9190613868565b60405180910390f35b34801561070057600080fd5b50610709611621565b6040516107169190613923565b60405180910390f35b34801561072b57600080fd5b50610734611634565b6040516107419190613923565b60405180910390f35b34801561075657600080fd5b50610771600480360381019061076c9190613be1565b611647565b60405161077e9190613868565b60405180910390f35b34801561079357600080fd5b5061079c6116fe565b6040516107a99190613868565b60405180910390f35b3480156107be57600080fd5b506107c761170f565b6040516107d49190613868565b60405180910390f35b3480156107e957600080fd5b506107f2611715565b6040516107ff9190613868565b60405180910390f35b34801561081457600080fd5b5061082f600480360381019061082a9190613ba1565b61171b565b60405161083c9190613923565b60405180910390f35b34801561085157600080fd5b5061085a611785565b60405161086791906139d7565b60405180910390f35b34801561087c57600080fd5b50610885611817565b6040516108929190613b86565b60405180910390f35b3480156108a757600080fd5b506108c260048036038101906108bd9190613e98565b61181e565b005b6108cc611834565b6040516108d99190613868565b60405180910390f35b3480156108ee57600080fd5b5061090960048036038101906109049190613f79565b611abe565b005b34801561091757600080fd5b50610920611b20565b60405161092d91906139d7565b60405180910390f35b34801561094257600080fd5b5061095d6004803603810190610958919061382c565b611bae565b60405161096a91906139d7565b60405180910390f35b34801561097f57600080fd5b5061099a6004803603810190610995919061382c565b611d2e565b6040516109a79190613923565b60405180910390f35b3480156109bc57600080fd5b506109c5611e27565b6040516109d29190613b86565b60405180910390f35b3480156109e757600080fd5b50610a0260048036038101906109fd9190613ba1565b611e4b565b005b348015610a1057600080fd5b50610a19611e74565b005b348015610a2757600080fd5b50610a426004803603810190610a3d9190613ffc565b611eb6565b604051610a4f9190613923565b60405180910390f35b348015610a6457600080fd5b50610a7f6004803603810190610a7a9190613e23565b611f4a565b005b348015610a8d57600080fd5b50610aa86004803603810190610aa3919061403c565b611f97565b005b348015610ab657600080fd5b50610ad16004803603810190610acc919061382c565b611fda565b604051610ade91906140ac565b60405180910390f35b60006013600083815260200190815260200160002060000160009054906101000a900461ffff1661ffff169050919050565b6000610b2482612006565b9050919050565b606060018054610b3a906140f6565b80601f0160208091040260200160405190810160405280929190818152602001828054610b66906140f6565b8015610bb35780601f10610b8857610100808354040283529160200191610bb3565b820191906000526020600020905b815481529060010190602001808311610b9657829003601f168201915b5050505050905090565b6000610bc882612080565b610c07576040517f08c379a0000000000000000000000000000000000000000000000000000000008152600401610bfe90614199565b60405180910390fd5b6005600083815260200190815260200160002060009054906101000a900473ffffffffffffffffffffffffffffffffffffffff169050919050565b60118054610c4f906140f6565b80601f0160208091040260200160405190810160405280929190818152602001828054610c7b906140f6565b8015610cc85780601f10610c9d57610100808354040283529160200191610cc8565b820191906000526020600020905b815481529060010190602001808311610cab57829003601f168201915b505050505081565b6000610cdb8261156a565b90508073ffffffffffffffffffffffffffffffffffffffff168373ffffffffffffffffffffffffffffffffffffffff1603610d4b576040517f08c379a0000000000000000000000000000000000000000000000000000000008152600401610d429061422b565b60405180910390fd5b8073ffffffffffffffffffffffffffffffffffffffff16610d6a6120ec565b73ffffffffffffffffffffffffffffffffffffffff161480610d995750610d9881610d936120ec565b611eb6565b5b610dd8576040517f08c379a0000000000000000000000000000000000000000000000000000000008152600401610dcf906142bd565b60405180910390fd5b610de283836120f4565b505050565b6000600980549050905090565b610e05610dff6120ec565b826121ad565b610e44576040517f08c379a0000000000000000000000000000000000000000000000000000000008152600401610e3b9061434f565b60405180910390fd5b610e4f83838361228b565b505050565b6000806000838152602001908152602001600020600101549050919050565b610e7c82610e54565b610e8d81610e886120ec565b6124f1565b610e97838361258e565b505050565b6000610ea783611647565b8210610ee8576040517f08c379a0000000000000000000000000000000000000000000000000000000008152600401610edf906143e1565b60405180910390fd5b600760008473ffffffffffffffffffffffffffffffffffffffff1673ffffffffffffffffffffffffffffffffffffffff168152602001908152602001600020600083815260200190815260200160002054905092915050565b603281565b610f4e6120ec565b73ffffffffffffffffffffffffffffffffffffffff168173ffffffffffffffffffffffffffffffffffffffff1614610fbb576040517f08c379a0000000000000000000000000000000000000000000000000000000008152600401610fb290614473565b60405180910390fd5b610fc5828261266e565b5050565b60606000610fd683611647565b67ffffffffffffffff811115610fef57610fee613cf8565b5b60405190808252806020026020018201604052801561101d5781602001602082028036833780820191505090505b509050600080600190505b611032600b61274f565b81116110b5578473ffffffffffffffffffffffffffffffffffffffff166110588261156a565b73ffffffffffffffffffffffffffffffffffffffff16036110a2578083838151811061108757611086614493565b5b602002602001018181525050818061109e906144f1565b9250505b80806110ad906144f1565b915050611028565b508192505050919050565b60008044426040516020016110d692919061455a565b6040516020818303038152906040528051906020012060001c9050600160648261110091906145b5565b61110a91906145e6565b91505090565b6000801b611125816111206120ec565b6124f1565b600c60159054906101000a900460ff1615600c60156101000a81548160ff02191690831515021790555050565b8173ffffffffffffffffffffffffffffffffffffffff166111728261156a565b73ffffffffffffffffffffffffffffffffffffffff16146111c8576040517f08c379a00000000000000000000000000000000000000000000000000000000081526004016111bf90614688565b60405180910390fd5b6111d181611d2e565b611210576040517f08c379a0000000000000000000000000000000000000000000000000000000008152600401611207906146f4565b60405180910390fd5b6013600082815260200190815260200160002060010142908060018154018082558091505060019003906000526020600020016000909190919091505560006013600083815260200190815260200160002060000160009054906101000a900461ffff1661ffff169050600060016064444260405160200161129392919061455a565b6040516020818303038152906040528051906020012060001c6112b691906145b5565b6112c091906145e6565b9050600081836112d09190614714565b9050600c60009054906101000a900473ffffffffffffffffffffffffffffffffffffffff1673ffffffffffffffffffffffffffffffffffffffff166340c10f193366038d7ea4c68000846113249190614714565b6040518363ffffffff1660e01b815260040161134192919061476e565b600060405180830381600087803b15801561135b57600080fd5b505af115801561136f573d6000803e3d6000fd5b505050507fc1cac68055d038429280f6eb1126e709c6be291f286895b51ea88569e2c98230600166038d7ea4c68000836113a99190614714565b6040516113b7929190614797565b60405180910390a15050505050565b6113e183838360405180602001604052806000815250611abe565b505050565b60006113f0610de7565b8210611431576040517f08c379a000000000000000000000000000000000000000000000000000000000815260040161142890614832565b60405180910390fd5b6009828154811061144557611444614493565b5b90600052602060002001549050919050565b7f9f2df0fed2c77648de5860a4cc508cd0818c85b8b8a1ab4ceeef8d981c8956a6611489816114846120ec565b6124f1565b60004790508273ffffffffffffffffffffffffffffffffffffffff166108fc829081150290604051600060405180830381858888f193505050501580156114d4573d6000803e3d6000fd5b50505050565b7f9f2df0fed2c77648de5860a4cc508cd0818c85b8b8a1ab4ceeef8d981c8956a661150c816115076120ec565b6124f1565b81601090805190602001906115229291906136d4565b505050565b6000801b61153c816115376120ec565b6124f1565b6115667f9f2df0fed2c77648de5860a4cc508cd0818c85b8b8a1ab4ceeef8d981c8956a68361258e565b5050565b6000806003600084815260200190815260200160002060009054906101000a900473ffffffffffffffffffffffffffffffffffffffff169050600073ffffffffffffffffffffffffffffffffffffffff168173ffffffffffffffffffffffffffffffffffffffff1603611612576040517f08c379a0000000000000000000000000000000000000000000000000000000008152600401611609906148c4565b60405180910390fd5b80915050919050565b600d5481565b600c60159054906101000a900460ff1681565b600c60149054906101000a900460ff1681565b60008073ffffffffffffffffffffffffffffffffffffffff168273ffffffffffffffffffffffffffffffffffffffff16036116b7576040517f08c379a00000000000000000000000000000000000000000000000000000000081526004016116ae90614956565b60405180910390fd5b600460008373ffffffffffffffffffffffffffffffffffffffff1673ffffffffffffffffffffffffffffffffffffffff168152602001908152602001600020549050919050565b600061170a600b61274f565b905090565b600e5481565b600f5481565b600080600084815260200190815260200160002060000160008373ffffffffffffffffffffffffffffffffffffffff1673ffffffffffffffffffffffffffffffffffffffff16815260200190815260200160002060009054906101000a900460ff16905092915050565b606060028054611794906140f6565b80601f01602080910402602001604051908101604052809291908181526020018280546117c0906140f6565b801561180d5780601f106117e25761010080835404028352916020019161180d565b820191906000526020600020905b8154815290600101906020018083116117f057829003601f168201915b5050505050905090565b6000801b81565b6118306118296120ec565b838361275d565b5050565b60007f9f2df0fed2c77648de5860a4cc508cd0818c85b8b8a1ab4ceeef8d981c8956a6611868816118636120ec565b6124f1565b60326001611874610de7565b61187e91906145e6565b11156118bf576040517f08c379a00000000000000000000000000000000000000000000000000000000081526004016118b6906149c2565b60405180910390fd5b600c60149054906101000a900460ff1661190e576040517f08c379a000000000000000000000000000000000000000000000000000000000815260040161190590614a54565b60405180910390fd5b600e54600161191c33611647565b61192691906145e6565b1115611967576040517f08c379a000000000000000000000000000000000000000000000000000000000815260040161195e90614ac0565b60405180910390fd5b34600d5460016119779190614714565b11156119b8576040517f08c379a00000000000000000000000000000000000000000000000000000000081526004016119af90614b2c565b60405180910390fd5b600f54600111156119fe576040517f08c379a00000000000000000000000000000000000000000000000000000000081526004016119f590614b98565b60405180910390fd5b611a08600b6128c9565b6000611a14600b61274f565b90506032611a20610de7565b1015611ab457611a2e61375a565b611a366110c0565b816000019061ffff16908161ffff1681525050806013600084815260200190815260200160002060008201518160000160006101000a81548161ffff021916908361ffff1602179055506020820151816001019080519060200190611a9c929190613778565b50905050611aaa33836128df565b8193505050611aba565b60009250505b5090565b611acf611ac96120ec565b836121ad565b611b0e576040517f08c379a0000000000000000000000000000000000000000000000000000000008152600401611b059061434f565b60405180910390fd5b611b1a84848484612ab8565b50505050565b60128054611b2d906140f6565b80601f0160208091040260200160405190810160405280929190818152602001828054611b59906140f6565b8015611ba65780601f10611b7b57610100808354040283529160200191611ba6565b820191906000526020600020905b815481529060010190602001808311611b8957829003601f168201915b505050505081565b6060611bb982612080565b611bf8576040517f08c379a0000000000000000000000000000000000000000000000000000000008152600401611bef90614c2a565b60405180910390fd5b60001515600c60159054906101000a900460ff16151503611ca55760118054611c20906140f6565b80601f0160208091040260200160405190810160405280929190818152602001828054611c4c906140f6565b8015611c995780601f10611c6e57610100808354040283529160200191611c99565b820191906000526020600020905b815481529060010190602001808311611c7c57829003601f168201915b50505050509050611d29565b6000611caf612b14565b90506000815103611cf8576040518060400160405280600181526020017f3000000000000000000000000000000000000000000000000000000000000000815250915050611d29565b80611d0284612ba6565b6012604051602001611d1693929190614d1a565b6040516020818303038152906040529150505b919050565b6000806201518042611d409190614d4b565b905060004290506000805b6013600087815260200190815260200160002060010180549050811015611e055783601360008881526020019081526020016000206001018281548110611d9557611d94614493565b5b9060005260206000200154118015611dde575082601360008881526020019081526020016000206001018281548110611dd157611dd0614493565b5b9060005260206000200154105b15611df2578180611dee906144f1565b9250505b8080611dfd906144f1565b915050611d4b565b5060018110611e1a5760009350505050611e22565b600193505050505b919050565b7f9f2df0fed2c77648de5860a4cc508cd0818c85b8b8a1ab4ceeef8d981c8956a681565b611e5482610e54565b611e6581611e606120ec565b6124f1565b611e6f838361266e565b505050565b6000801b611e8981611e846120ec565b6124f1565b600c60149054906101000a900460ff1615600c60146101000a81548160ff02191690831515021790555050565b6000600660008473ffffffffffffffffffffffffffffffffffffffff1673ffffffffffffffffffffffffffffffffffffffff16815260200190815260200160002060008373ffffffffffffffffffffffffffffffffffffffff1673ffffffffffffffffffffffffffffffffffffffff16815260200190815260200160002060009054906101000a900460ff16905092915050565b7f9f2df0fed2c77648de5860a4cc508cd0818c85b8b8a1ab4ceeef8d981c8956a6611f7c81611f776120ec565b6124f1565b8160119080519060200190611f929291906136d4565b505050565b7f9f2df0fed2c77648de5860a4cc508cd0818c85b8b8a1ab4ceeef8d981c8956a6611fc981611fc46120ec565b6124f1565b611fd484848461275d565b50505050565b60136020528060005260406000206000915090508060000160009054906101000a900461ffff16905081565b60007f780e9d63000000000000000000000000000000000000000000000000000000007bffffffffffffffffffffffffffffffffffffffffffffffffffffffff1916827bffffffffffffffffffffffffffffffffffffffffffffffffffffffff19161480612079575061207882612d06565b5b9050919050565b60008073ffffffffffffffffffffffffffffffffffffffff166003600084815260200190815260200160002060009054906101000a900473ffffffffffffffffffffffffffffffffffffffff1673ffffffffffffffffffffffffffffffffffffffff1614159050919050565b600033905090565b816005600083815260200190815260200160002060006101000a81548173ffffffffffffffffffffffffffffffffffffffff021916908373ffffffffffffffffffffffffffffffffffffffff160217905550808273ffffffffffffffffffffffffffffffffffffffff166121678361156a565b73ffffffffffffffffffffffffffffffffffffffff167f8c5be1e5ebec7d5bd14f71427d1e84f3dd0314c0f7b2291e5b200ac8c7c3b92560405160405180910390a45050565b60006121b882612080565b6121f7576040517f08c379a00000000000000000000000000000000000000000000000000000000081526004016121ee90614df1565b60405180910390fd5b60006122028361156a565b90508073ffffffffffffffffffffffffffffffffffffffff168473ffffffffffffffffffffffffffffffffffffffff16148061227157508373ffffffffffffffffffffffffffffffffffffffff1661225984610bbd565b73ffffffffffffffffffffffffffffffffffffffff16145b8061228257506122818185611eb6565b5b91505092915050565b8273ffffffffffffffffffffffffffffffffffffffff166122ab8261156a565b73ffffffffffffffffffffffffffffffffffffffff1614612301576040517f08c379a00000000000000000000000000000000000000000000000000000000081526004016122f890614e83565b60405180910390fd5b600073ffffffffffffffffffffffffffffffffffffffff168273ffffffffffffffffffffffffffffffffffffffff1603612370576040517f08c379a000000000000000000000000000000000000000000000000000000000815260040161236790614f15565b60405180910390fd5b61237b838383612de8565b6123866000826120f4565b6001600460008573ffffffffffffffffffffffffffffffffffffffff1673ffffffffffffffffffffffffffffffffffffffff16815260200190815260200160002060008282546123d69190614d4b565b925050819055506001600460008473ffffffffffffffffffffffffffffffffffffffff1673ffffffffffffffffffffffffffffffffffffffff168152602001908152602001600020600082825461242d91906145e6565b92505081905550816003600083815260200190815260200160002060006101000a81548173ffffffffffffffffffffffffffffffffffffffff021916908373ffffffffffffffffffffffffffffffffffffffff160217905550808273ffffffffffffffffffffffffffffffffffffffff168473ffffffffffffffffffffffffffffffffffffffff167fddf252ad1be2c89b69c2b068fc378daa952ba7f163c4a11628f55a4df523b3ef60405160405180910390a46124ec838383612efa565b505050565b6124fb828261171b565b61258a576125208173ffffffffffffffffffffffffffffffffffffffff166014612eff565b61252e8360001c6020612eff565b60405160200161253f929190614fcd565b6040516020818303038152906040526040517f08c379a000000000000000000000000000000000000000000000000000000000815260040161258191906139d7565b60405180910390fd5b5050565b612598828261171b565b61266a57600160008084815260200190815260200160002060000160008373ffffffffffffffffffffffffffffffffffffffff1673ffffffffffffffffffffffffffffffffffffffff16815260200190815260200160002060006101000a81548160ff02191690831515021790555061260f6120ec565b73ffffffffffffffffffffffffffffffffffffffff168173ffffffffffffffffffffffffffffffffffffffff16837f2f8788117e7eff1d82e926ec794901d17c78024a50270940304540a733656f0d60405160405180910390a45b5050565b612678828261171b565b1561274b57600080600084815260200190815260200160002060000160008373ffffffffffffffffffffffffffffffffffffffff1673ffffffffffffffffffffffffffffffffffffffff16815260200190815260200160002060006101000a81548160ff0219169083151502179055506126f06120ec565b73ffffffffffffffffffffffffffffffffffffffff168173ffffffffffffffffffffffffffffffffffffffff16837ff6391f5c32d9c69d2a47ea670b442974b53935d1edc7fd64eb21e047a839171b60405160405180910390a45b5050565b600081600001549050919050565b8173ffffffffffffffffffffffffffffffffffffffff168373ffffffffffffffffffffffffffffffffffffffff16036127cb576040517f08c379a00000000000000000000000000000000000000000000000000000000081526004016127c290615053565b60405180910390fd5b80600660008573ffffffffffffffffffffffffffffffffffffffff1673ffffffffffffffffffffffffffffffffffffffff16815260200190815260200160002060008473ffffffffffffffffffffffffffffffffffffffff1673ffffffffffffffffffffffffffffffffffffffff16815260200190815260200160002060006101000a81548160ff0219169083151502179055508173ffffffffffffffffffffffffffffffffffffffff168373ffffffffffffffffffffffffffffffffffffffff167f17307eab39ab6107e8899845ad3d59bd9653f200f220920489ca2b5937696c31836040516128bc9190613923565b60405180910390a3505050565b6001816000016000828254019250508190555050565b600073ffffffffffffffffffffffffffffffffffffffff168273ffffffffffffffffffffffffffffffffffffffff160361294e576040517f08c379a0000000000000000000000000000000000000000000000000000000008152600401612945906150bf565b60405180910390fd5b61295781612080565b15612997576040517f08c379a000000000000000000000000000000000000000000000000000000000815260040161298e9061512b565b60405180910390fd5b6129a360008383612de8565b6001600460008473ffffffffffffffffffffffffffffffffffffffff1673ffffffffffffffffffffffffffffffffffffffff16815260200190815260200160002060008282546129f391906145e6565b92505081905550816003600083815260200190815260200160002060006101000a81548173ffffffffffffffffffffffffffffffffffffffff021916908373ffffffffffffffffffffffffffffffffffffffff160217905550808273ffffffffffffffffffffffffffffffffffffffff16600073ffffffffffffffffffffffffffffffffffffffff167fddf252ad1be2c89b69c2b068fc378daa952ba7f163c4a11628f55a4df523b3ef60405160405180910390a4612ab460008383612efa565b5050565b612ac384848461228b565b612acf8484848461313b565b612b0e576040517f08c379a0000000000000000000000000000000000000000000000000000000008152600401612b05906151bd565b60405180910390fd5b50505050565b606060108054612b23906140f6565b80601f0160208091040260200160405190810160405280929190818152602001828054612b4f906140f6565b8015612b9c5780601f10612b7157610100808354040283529160200191612b9c565b820191906000526020600020905b815481529060010190602001808311612b7f57829003601f168201915b5050505050905090565b606060008203612bed576040518060400160405280600181526020017f30000000000000000000000000000000000000000000000000000000000000008152509050612d01565b600082905060005b60008214612c1f578080612c08906144f1565b915050600a82612c1891906151dd565b9150612bf5565b60008167ffffffffffffffff811115612c3b57612c3a613cf8565b5b6040519080825280601f01601f191660200182016040528015612c6d5781602001600182028036833780820191505090505b5090505b60008514612cfa57600182612c869190614d4b565b9150600a85612c9591906145b5565b6030612ca191906145e6565b60f81b818381518110612cb757612cb6614493565b5b60200101907effffffffffffffffffffffffffffffffffffffffffffffffffffffffffffff1916908160001a905350600a85612cf391906151dd565b9450612c71565b8093505050505b919050565b60007f80ac58cd000000000000000000000000000000000000000000000000000000007bffffffffffffffffffffffffffffffffffffffffffffffffffffffff1916827bffffffffffffffffffffffffffffffffffffffffffffffffffffffff19161480612dd157507f5b5e139f000000000000000000000000000000000000000000000000000000007bffffffffffffffffffffffffffffffffffffffffffffffffffffffff1916827bffffffffffffffffffffffffffffffffffffffffffffffffffffffff1916145b80612de15750612de0826132c2565b5b9050919050565b612df383838361333c565b600073ffffffffffffffffffffffffffffffffffffffff168373ffffffffffffffffffffffffffffffffffffffff1603612e3557612e3081613341565b612e74565b8173ffffffffffffffffffffffffffffffffffffffff168373ffffffffffffffffffffffffffffffffffffffff1614612e7357612e72838261338a565b5b5b600073ffffffffffffffffffffffffffffffffffffffff168273ffffffffffffffffffffffffffffffffffffffff1603612eb657612eb1816134f7565b612ef5565b8273ffffffffffffffffffffffffffffffffffffffff168273ffffffffffffffffffffffffffffffffffffffff1614612ef457612ef382826135c8565b5b5b505050565b505050565b606060006002836002612f129190614714565b612f1c91906145e6565b67ffffffffffffffff811115612f3557612f34613cf8565b5b6040519080825280601f01601f191660200182016040528015612f675781602001600182028036833780820191505090505b5090507f300000000000000000000000000000000000000000000000000000000000000081600081518110612f9f57612f9e614493565b5b60200101907effffffffffffffffffffffffffffffffffffffffffffffffffffffffffffff1916908160001a9053507f78000000000000000000000000000000000000000000000000000000000000008160018151811061300357613002614493565b5b60200101907effffffffffffffffffffffffffffffffffffffffffffffffffffffffffffff1916908160001a905350600060018460026130439190614714565b61304d91906145e6565b90505b60018111156130ed577f3031323334353637383961626364656600000000000000000000000000000000600f86166010811061308f5761308e614493565b5b1a60f81b8282815181106130a6576130a5614493565b5b60200101907effffffffffffffffffffffffffffffffffffffffffffffffffffffffffffff1916908160001a905350600485901c9450806130e69061520e565b9050613050565b5060008414613131576040517f08c379a000000000000000000000000000000000000000000000000000000000815260040161312890615283565b60405180910390fd5b8091505092915050565b600061315c8473ffffffffffffffffffffffffffffffffffffffff16613647565b156132b5578373ffffffffffffffffffffffffffffffffffffffff1663150b7a026131856120ec565b8786866040518563ffffffff1660e01b81526004016131a794939291906152f8565b6020604051808303816000875af19250505080156131e357506040513d601f19601f820116820180604052508101906131e09190615359565b60015b613265573d8060008114613213576040519150601f19603f3d011682016040523d82523d6000602084013e613218565b606091505b50600081510361325d576040517f08c379a0000000000000000000000000000000000000000000000000000000008152600401613254906151bd565b60405180910390fd5b805181602001fd5b63150b7a0260e01b7bffffffffffffffffffffffffffffffffffffffffffffffffffffffff1916817bffffffffffffffffffffffffffffffffffffffffffffffffffffffff1916149150506132ba565b600190505b949350505050565b60007f7965db0b000000000000000000000000000000000000000000000000000000007bffffffffffffffffffffffffffffffffffffffffffffffffffffffff1916827bffffffffffffffffffffffffffffffffffffffffffffffffffffffff1916148061333557506133348261366a565b5b9050919050565b505050565b600980549050600a600083815260200190815260200160002081905550600981908060018154018082558091505060019003906000526020600020016000909190919091505550565b6000600161339784611647565b6133a19190614d4b565b9050600060086000848152602001908152602001600020549050818114613486576000600760008673ffffffffffffffffffffffffffffffffffffffff1673ffffffffffffffffffffffffffffffffffffffff168152602001908152602001600020600084815260200190815260200160002054905080600760008773ffffffffffffffffffffffffffffffffffffffff1673ffffffffffffffffffffffffffffffffffffffff168152602001908152602001600020600084815260200190815260200160002081905550816008600083815260200190815260200160002081905550505b6008600084815260200190815260200160002060009055600760008573ffffffffffffffffffffffffffffffffffffffff1673ffffffffffffffffffffffffffffffffffffffff16815260200190815260200160002060008381526020019081526020016000206000905550505050565b6000600160098054905061350b9190614d4b565b90506000600a600084815260200190815260200160002054905060006009838154811061353b5761353a614493565b5b90600052602060002001549050806009838154811061355d5761355c614493565b5b906000526020600020018190555081600a600083815260200190815260200160002081905550600a60008581526020019081526020016000206000905560098054806135ac576135ab615386565b5b6001900381819060005260206000200160009055905550505050565b60006135d383611647565b905081600760008573ffffffffffffffffffffffffffffffffffffffff1673ffffffffffffffffffffffffffffffffffffffff168152602001908152602001600020600083815260200190815260200160002081905550806008600084815260200190815260200160002081905550505050565b6000808273ffffffffffffffffffffffffffffffffffffffff163b119050919050565b60007f01ffc9a7000000000000000000000000000000000000000000000000000000007bffffffffffffffffffffffffffffffffffffffffffffffffffffffff1916827bffffffffffffffffffffffffffffffffffffffffffffffffffffffff1916149050919050565b8280546136e0906140f6565b90600052602060002090601f0160209004810192826137025760008555613749565b82601f1061371b57805160ff1916838001178555613749565b82800160010185558215613749579182015b8281111561374857825182559160200191906001019061372d565b5b50905061375691906137c5565b5090565b6040518060400160405280600061ffff168152602001606081525090565b8280548282559060005260206000209081019282156137b4579160200282015b828111156137b3578251825591602001919060010190613798565b5b5090506137c191906137c5565b5090565b5b808211156137de5760008160009055506001016137c6565b5090565b6000604051905090565b600080fd5b600080fd5b6000819050919050565b613809816137f6565b811461381457600080fd5b50565b60008135905061382681613800565b92915050565b600060208284031215613842576138416137ec565b5b600061385084828501613817565b91505092915050565b613862816137f6565b82525050565b600060208201905061387d6000830184613859565b92915050565b60007fffffffff0000000000000000000000000000000000000000000000000000000082169050919050565b6138b881613883565b81146138c357600080fd5b50565b6000813590506138d5816138af565b92915050565b6000602082840312156138f1576138f06137ec565b5b60006138ff848285016138c6565b91505092915050565b60008115159050919050565b61391d81613908565b82525050565b60006020820190506139386000830184613914565b92915050565b600081519050919050565b600082825260208201905092915050565b60005b8381101561397857808201518184015260208101905061395d565b83811115613987576000848401525b50505050565b6000601f19601f8301169050919050565b60006139a98261393e565b6139b38185613949565b93506139c381856020860161395a565b6139cc8161398d565b840191505092915050565b600060208201905081810360008301526139f1818461399e565b905092915050565b600073ffffffffffffffffffffffffffffffffffffffff82169050919050565b6000613a24826139f9565b9050919050565b613a3481613a19565b82525050565b6000602082019050613a4f6000830184613a2b565b92915050565b613a5e81613a19565b8114613a6957600080fd5b50565b600081359050613a7b81613a55565b92915050565b60008060408385031215613a9857613a976137ec565b5b6000613aa685828601613a6c565b9250506020613ab785828601613817565b9150509250929050565b600080600060608486031215613ada57613ad96137ec565b5b6000613ae886828701613a6c565b9350506020613af986828701613a6c565b9250506040613b0a86828701613817565b9150509250925092565b6000819050919050565b613b2781613b14565b8114613b3257600080fd5b50565b600081359050613b4481613b1e565b92915050565b600060208284031215613b6057613b5f6137ec565b5b6000613b6e84828501613b35565b91505092915050565b613b8081613b14565b82525050565b6000602082019050613b9b6000830184613b77565b92915050565b60008060408385031215613bb857613bb76137ec565b5b6000613bc685828601613b35565b9250506020613bd785828601613a6c565b9150509250929050565b600060208284031215613bf757613bf66137ec565b5b6000613c0584828501613a6c565b91505092915050565b600081519050919050565b600082825260208201905092915050565b6000819050602082019050919050565b613c43816137f6565b82525050565b6000613c558383613c3a565b60208301905092915050565b6000602082019050919050565b6000613c7982613c0e565b613c838185613c19565b9350613c8e83613c2a565b8060005b83811015613cbf578151613ca68882613c49565b9750613cb183613c61565b925050600181019050613c92565b5085935050505092915050565b60006020820190508181036000830152613ce68184613c6e565b905092915050565b600080fd5b600080fd5b7f4e487b7100000000000000000000000000000000000000000000000000000000600052604160045260246000fd5b613d308261398d565b810181811067ffffffffffffffff82111715613d4f57613d4e613cf8565b5b80604052505050565b6000613d626137e2565b9050613d6e8282613d27565b919050565b600067ffffffffffffffff821115613d8e57613d8d613cf8565b5b613d978261398d565b9050602081019050919050565b82818337600083830152505050565b6000613dc6613dc184613d73565b613d58565b905082815260208101848484011115613de257613de1613cf3565b5b613ded848285613da4565b509392505050565b600082601f830112613e0a57613e09613cee565b5b8135613e1a848260208601613db3565b91505092915050565b600060208284031215613e3957613e386137ec565b5b600082013567ffffffffffffffff811115613e5757613e566137f1565b5b613e6384828501613df5565b91505092915050565b613e7581613908565b8114613e8057600080fd5b50565b600081359050613e9281613e6c565b92915050565b60008060408385031215613eaf57613eae6137ec565b5b6000613ebd85828601613a6c565b9250506020613ece85828601613e83565b9150509250929050565b600067ffffffffffffffff821115613ef357613ef2613cf8565b5b613efc8261398d565b9050602081019050919050565b6000613f1c613f1784613ed8565b613d58565b905082815260208101848484011115613f3857613f37613cf3565b5b613f43848285613da4565b509392505050565b600082601f830112613f6057613f5f613cee565b5b8135613f70848260208601613f09565b91505092915050565b60008060008060808587031215613f9357613f926137ec565b5b6000613fa187828801613a6c565b9450506020613fb287828801613a6c565b9350506040613fc387828801613817565b925050606085013567ffffffffffffffff811115613fe457613fe36137f1565b5b613ff087828801613f4b565b91505092959194509250565b60008060408385031215614013576140126137ec565b5b600061402185828601613a6c565b925050602061403285828601613a6c565b9150509250929050565b600080600060608486031215614055576140546137ec565b5b600061406386828701613a6c565b935050602061407486828701613a6c565b925050604061408586828701613e83565b9150509250925092565b600061ffff82169050919050565b6140a68161408f565b82525050565b60006020820190506140c1600083018461409d565b92915050565b7f4e487b7100000000000000000000000000000000000000000000000000000000600052602260045260246000fd5b6000600282049050600182168061410e57607f821691505b602082108103614121576141206140c7565b5b50919050565b7f4552433732313a20617070726f76656420717565727920666f72206e6f6e657860008201527f697374656e7420746f6b656e0000000000000000000000000000000000000000602082015250565b6000614183602c83613949565b915061418e82614127565b604082019050919050565b600060208201905081810360008301526141b281614176565b9050919050565b7f4552433732313a20617070726f76616c20746f2063757272656e74206f776e6560008201527f7200000000000000000000000000000000000000000000000000000000000000602082015250565b6000614215602183613949565b9150614220826141b9565b604082019050919050565b6000602082019050818103600083015261424481614208565b9050919050565b7f4552433732313a20617070726f76652063616c6c6572206973206e6f74206f7760008201527f6e6572206e6f7220617070726f76656420666f7220616c6c0000000000000000602082015250565b60006142a7603883613949565b91506142b28261424b565b604082019050919050565b600060208201905081810360008301526142d68161429a565b9050919050565b7f4552433732313a207472616e736665722063616c6c6572206973206e6f74206f60008201527f776e6572206e6f7220617070726f766564000000000000000000000000000000602082015250565b6000614339603183613949565b9150614344826142dd565b604082019050919050565b600060208201905081810360008301526143688161432c565b9050919050565b7f455243373231456e756d657261626c653a206f776e657220696e646578206f7560008201527f74206f6620626f756e6473000000000000000000000000000000000000000000602082015250565b60006143cb602b83613949565b91506143d68261436f565b604082019050919050565b600060208201905081810360008301526143fa816143be565b9050919050565b7f416363657373436f6e74726f6c3a2063616e206f6e6c792072656e6f756e636560008201527f20726f6c657320666f722073656c660000000000000000000000000000000000602082015250565b600061445d602f83613949565b915061446882614401565b604082019050919050565b6000602082019050818103600083015261448c81614450565b9050919050565b7f4e487b7100000000000000000000000000000000000000000000000000000000600052603260045260246000fd5b7f4e487b7100000000000000000000000000000000000000000000000000000000600052601160045260246000fd5b60006144fc826137f6565b91507fffffffffffffffffffffffffffffffffffffffffffffffffffffffffffffffff820361452e5761452d6144c2565b5b600182019050919050565b6000819050919050565b61455461454f826137f6565b614539565b82525050565b60006145668285614543565b6020820191506145768284614543565b6020820191508190509392505050565b7f4e487b7100000000000000000000000000000000000000000000000000000000600052601260045260246000fd5b60006145c0826137f6565b91506145cb836137f6565b9250826145db576145da614586565b5b828206905092915050565b60006145f1826137f6565b91506145fc836137f6565b9250827fffffffffffffffffffffffffffffffffffffffffffffffffffffffffffffffff03821115614631576146306144c2565b5b828201905092915050565b7f706c6179657220616e6420746f6b656e206e6f74206d61746368656400000000600082015250565b6000614672601c83613949565b915061467d8261463c565b602082019050919050565b600060208201905081810360008301526146a181614665565b9050919050565b7f64696720636f756e74206e6f7420656e6f756768000000000000000000000000600082015250565b60006146de601483613949565b91506146e9826146a8565b602082019050919050565b6000602082019050818103600083015261470d816146d1565b9050919050565b600061471f826137f6565b915061472a836137f6565b9250817fffffffffffffffffffffffffffffffffffffffffffffffffffffffffffffffff0483118215151615614763576147626144c2565b5b828202905092915050565b60006040820190506147836000830185613a2b565b6147906020830184613859565b9392505050565b60006040820190506147ac6000830185613914565b6147b96020830184613859565b9392505050565b7f455243373231456e756d657261626c653a20676c6f62616c20696e646578206f60008201527f7574206f6620626f756e64730000000000000000000000000000000000000000602082015250565b600061481c602c83613949565b9150614827826147c0565b604082019050919050565b6000602082019050818103600083015261484b8161480f565b9050919050565b7f4552433732313a206f776e657220717565727920666f72206e6f6e657869737460008201527f656e7420746f6b656e0000000000000000000000000000000000000000000000602082015250565b60006148ae602983613949565b91506148b982614852565b604082019050919050565b600060208201905081810360008301526148dd816148a1565b9050919050565b7f4552433732313a2062616c616e636520717565727920666f7220746865207a6560008201527f726f206164647265737300000000000000000000000000000000000000000000602082015250565b6000614940602a83613949565b915061494b826148e4565b604082019050919050565b6000602082019050818103600083015261496f81614933565b9050919050565b7f53616c6520776f756c6420657863656564206d617820737570706c7900000000600082015250565b60006149ac601c83613949565b91506149b782614976565b602082019050919050565b600060208201905081810360008301526149db8161499f565b9050919050565b7f53616c65206d7573742062652061637469766520746f206d696e7420446f757960008201527f614d657461730000000000000000000000000000000000000000000000000000602082015250565b6000614a3e602683613949565b9150614a49826149e2565b604082019050919050565b60006020820190508181036000830152614a6d81614a31565b9050919050565b7f53616c6520776f756c6420657863656564206d61782062616c616e6365000000600082015250565b6000614aaa601d83613949565b9150614ab582614a74565b602082019050919050565b60006020820190508181036000830152614ad981614a9d565b9050919050565b7f4e6f7420656e6f7567682065746865722073656e740000000000000000000000600082015250565b6000614b16601583613949565b9150614b2182614ae0565b602082019050919050565b60006020820190508181036000830152614b4581614b09565b9050919050565b7f43616e206f6e6c79206d696e74203120746f6b656e7320617420612074696d65600082015250565b6000614b82602083613949565b9150614b8d82614b4c565b602082019050919050565b60006020820190508181036000830152614bb181614b75565b9050919050565b7f4552433732314d657461646174613a2055524920717565727920666f72206e6f60008201527f6e6578697374656e7420746f6b656e0000000000000000000000000000000000602082015250565b6000614c14602f83613949565b9150614c1f82614bb8565b604082019050919050565b60006020820190508181036000830152614c4381614c07565b9050919050565b600081905092915050565b6000614c608261393e565b614c6a8185614c4a565b9350614c7a81856020860161395a565b80840191505092915050565b60008190508160005260206000209050919050565b60008154614ca8816140f6565b614cb28186614c4a565b94506001821660008114614ccd5760018114614cde57614d11565b60ff19831686528186019350614d11565b614ce785614c86565b60005b83811015614d0957815481890152600182019150602081019050614cea565b838801955050505b50505092915050565b6000614d268286614c55565b9150614d328285614c55565b9150614d3e8284614c9b565b9150819050949350505050565b6000614d56826137f6565b9150614d61836137f6565b925082821015614d7457614d736144c2565b5b828203905092915050565b7f4552433732313a206f70657261746f7220717565727920666f72206e6f6e657860008201527f697374656e7420746f6b656e0000000000000000000000000000000000000000602082015250565b6000614ddb602c83613949565b9150614de682614d7f565b604082019050919050565b60006020820190508181036000830152614e0a81614dce565b9050919050565b7f4552433732313a207472616e736665722066726f6d20696e636f72726563742060008201527f6f776e6572000000000000000000000000000000000000000000000000000000602082015250565b6000614e6d602583613949565b9150614e7882614e11565b604082019050919050565b60006020820190508181036000830152614e9c81614e60565b9050919050565b7f4552433732313a207472616e7366657220746f20746865207a65726f2061646460008201527f7265737300000000000000000000000000000000000000000000000000000000602082015250565b6000614eff602483613949565b9150614f0a82614ea3565b604082019050919050565b60006020820190508181036000830152614f2e81614ef2565b9050919050565b7f416363657373436f6e74726f6c3a206163636f756e7420000000000000000000600082015250565b6000614f6b601783614c4a565b9150614f7682614f35565b601782019050919050565b7f206973206d697373696e6720726f6c6520000000000000000000000000000000600082015250565b6000614fb7601183614c4a565b9150614fc282614f81565b601182019050919050565b6000614fd882614f5e565b9150614fe48285614c55565b9150614fef82614faa565b9150614ffb8284614c55565b91508190509392505050565b7f4552433732313a20617070726f766520746f2063616c6c657200000000000000600082015250565b600061503d601983613949565b915061504882615007565b602082019050919050565b6000602082019050818103600083015261506c81615030565b9050919050565b7f4552433732313a206d696e7420746f20746865207a65726f2061646472657373600082015250565b60006150a9602083613949565b91506150b482615073565b602082019050919050565b600060208201905081810360008301526150d88161509c565b9050919050565b7f4552433732313a20746f6b656e20616c7265616479206d696e74656400000000600082015250565b6000615115601c83613949565b9150615120826150df565b602082019050919050565b6000602082019050818103600083015261514481615108565b9050919050565b7f4552433732313a207472616e7366657220746f206e6f6e20455243373231526560008201527f63656976657220696d706c656d656e7465720000000000000000000000000000602082015250565b60006151a7603283613949565b91506151b28261514b565b604082019050919050565b600060208201905081810360008301526151d68161519a565b9050919050565b60006151e8826137f6565b91506151f3836137f6565b92508261520357615202614586565b5b828204905092915050565b6000615219826137f6565b91506000820361522c5761522b6144c2565b5b600182039050919050565b7f537472696e67733a20686578206c656e67746820696e73756666696369656e74600082015250565b600061526d602083613949565b915061527882615237565b602082019050919050565b6000602082019050818103600083015261529c81615260565b9050919050565b600081519050919050565b600082825260208201905092915050565b60006152ca826152a3565b6152d481856152ae565b93506152e481856020860161395a565b6152ed8161398d565b840191505092915050565b600060808201905061530d6000830187613a2b565b61531a6020830186613a2b565b6153276040830185613859565b818103606083015261533981846152bf565b905095945050505050565b600081519050615353816138af565b92915050565b60006020828403121561536f5761536e6137ec565b5b600061537d84828501615344565b91505092915050565b7f4e487b7100000000000000000000000000000000000000000000000000000000600052603160045260246000fdfea264697066735822122009e46bee86151de81fcb3e2e4832043df39d0dba3199ce8f2cb061c08a44f0bd64736f6c634300080d0033",
  "immutableReferences": {},
  "source": "// SPDX-License-Identifier: MIT\r\n\r\npragma solidity ^0.8.13;\r\n\r\nimport \"@openzeppelin/contracts/token/ERC721/extensions/ERC721Enumerable.sol\";\r\nimport \"@openzeppelin/contracts/utils/Counters.sol\";\r\nimport \"@openzeppelin/contracts/access/AccessControl.sol\";\r\nimport \"@openzeppelin/contracts/utils/Strings.sol\";\r\nimport \"./Douya.sol\";\r\n\r\ncontract DouyaNFT is AccessControl, ERC721Enumerable {\r\n    using Counters for Counters.Counter;\r\n    using Strings for uint256;\r\n    Counters.Counter private _tokenIds;\r\n\r\n    // import douya coin\r\n    Douya private _douya;\r\n\r\n    bool public _isSaleActive = false;\r\n    bool public _revealed = false;\r\n\r\n    bytes32 public constant MINTER_ROLE = keccak256(\"MINTER_ROLE\");\r\n\r\n    // Constants\r\n    uint256 public constant MAX_SUPPLY = 50;\r\n    uint256 public mintPrice = 0.03 ether;\r\n    uint256 public maxBalance = 2;\r\n    uint256 public maxMint = 1;\r\n\r\n    string baseURI;\r\n    string public notRevealedUri;\r\n    string public baseExtension = \".json\";\r\n\r\n    struct Prop {\r\n        uint16 power; // power\r\n        uint256[] digTime; // mining timestamp\r\n    }\r\n\r\n    mapping(uint256 => Prop) public props;\r\n\r\n    constructor(address douyacoin) ERC721(\"DouyaNFT\", \"DOUN\") {\r\n        _douya = Douya(douyacoin);\r\n        _grantRole(DEFAULT_ADMIN_ROLE, msg.sender);\r\n        _grantRole(MINTER_ROLE, msg.sender);\r\n    }\r\n\r\n    function tokenIds() public view returns (uint256) {\r\n        return _tokenIds.current();\r\n    }\r\n\r\n    event Dig(bool successed, uint256 amount);\r\n\r\n    function mintDouyaNFT()\r\n        public\r\n        payable\r\n        onlyRole(MINTER_ROLE)\r\n        returns (uint256)\r\n    {\r\n        require(\r\n            totalSupply() + 1 <= MAX_SUPPLY,\r\n            \"Sale would exceed max supply\"\r\n        );\r\n        require(_isSaleActive, \"Sale must be active to mint DouyaMetas\");\r\n        require(\r\n            balanceOf(msg.sender) + 1 <= maxBalance,\r\n            \"Sale would exceed max balance\"\r\n        );\r\n        require(1 * mintPrice <= msg.value, \"Not enough ether sent\");\r\n        require(1 <= maxMint, \"Can only mint 1 tokens at a time\");\r\n\r\n        _tokenIds.increment();\r\n        uint256 newItemId = _tokenIds.current();\r\n        if (totalSupply() < MAX_SUPPLY) {\r\n            Prop memory i;\r\n            i.power = uint16(rand());\r\n            props[newItemId] = i;\r\n            _mint(msg.sender, newItemId);\r\n            // _setTokenURI(newItemId, tokenURI);\r\n            return newItemId;\r\n        }\r\n        return 0;\r\n    }\r\n\r\n    function setBaseURI(string memory _newBaseURI)\r\n        public\r\n        onlyRole(MINTER_ROLE)\r\n    {\r\n        baseURI = _newBaseURI;\r\n    }\r\n\r\n        function _baseURI() internal view virtual override returns (string memory) {\r\n        return baseURI;\r\n    }\r\n\r\n    function setNotRevealedURI(string memory _notRevealedURI)\r\n        public\r\n        onlyRole(MINTER_ROLE)\r\n    {\r\n        notRevealedUri = _notRevealedURI;\r\n    }\r\n\r\n    function tokenURI(uint256 tokenId)\r\n        public\r\n        view\r\n        virtual\r\n        override\r\n        returns (string memory)\r\n    {\r\n        require(\r\n            _exists(tokenId),\r\n            \"ERC721Metadata: URI query for nonexistent token\"\r\n        );\r\n\r\n        if (_revealed == false) {\r\n            return notRevealedUri;\r\n        }\r\n\r\n        // string memory _tokenURI = _tokenURIs[tokenId];\r\n        string memory base = _baseURI();\r\n\r\n        // If there is no base URI, return the token URI.\r\n        if (bytes(base).length == 0) {\r\n            return \"0\";\r\n        }\r\n\r\n        // If there is a baseURI but no tokenURI, concatenate the tokenID to the baseURI.\r\n        return\r\n            string(abi.encodePacked(base, tokenId.toString(), baseExtension));\r\n    }\r\n\r\n    function setRole(address addr) public onlyRole(DEFAULT_ADMIN_ROLE) {\r\n        _grantRole(MINTER_ROLE, addr);\r\n    }\r\n\r\n    function setMoveNft(\r\n        address owner,\r\n        address addr,\r\n        bool b\r\n    ) public onlyRole(MINTER_ROLE) {\r\n        _setApprovalForAll(owner, addr, b); //allow market contract transfer NFT\r\n    }\r\n\r\n    function supportsInterface(bytes4 interfaceId)\r\n        public\r\n        view\r\n        override(ERC721Enumerable, AccessControl)\r\n        returns (bool)\r\n    {\r\n        return super.supportsInterface(interfaceId);\r\n    }\r\n\r\n    function flipSaleActive() public onlyRole(DEFAULT_ADMIN_ROLE) {\r\n        _isSaleActive = !_isSaleActive;\r\n    }\r\n\r\n    function flipReveal() public onlyRole(DEFAULT_ADMIN_ROLE) {\r\n        _revealed = !_revealed;\r\n    }\r\n\r\n    function getByOwner(address _owner)\r\n        external\r\n        view\r\n        returns (uint256[] memory)\r\n    {\r\n        uint256[] memory result = new uint256[](balanceOf(_owner));\r\n        uint256 counter = 0;\r\n        for (uint256 i = 1; i <= _tokenIds.current(); i++) {\r\n            if (ownerOf(i) == _owner) {\r\n                result[counter] = i;\r\n                counter++;\r\n            }\r\n        }\r\n        return result;\r\n    }\r\n\r\n    function getPower(uint256 tokenId) view public returns (uint256){\r\n        return props[tokenId].power;\r\n    }\r\n\r\n    //mining operation\r\n    function dig(address player, uint256 tokenId) public {\r\n        require(ownerOf(tokenId) == player, \"player and token not matched\");\r\n        require(digAlow(tokenId), \"dig count not enough\");\r\n        props[tokenId].digTime.push(block.timestamp); // record mining timestamp\r\n\r\n        // detemine how many douyacoin will be dig according to power value\r\n        uint256 power = props[tokenId].power;\r\n\r\n        uint256 random = uint256(\r\n            keccak256(abi.encodePacked(block.difficulty, block.timestamp))\r\n        ) % 100 + 1;\r\n\r\n        uint256 amount = power * random;\r\n\r\n        _douya.mint(msg.sender, amount*10**15);\r\n\r\n        emit Dig(true, amount*10**15);\r\n    }\r\n\r\n    // check allow to mining\r\n    function digAlow(uint256 _tokenId) public view returns (bool) {\r\n        // only can mining once in 24 hours\r\n        uint256 start = block.timestamp - 86400;\r\n        uint256 end = block.timestamp;\r\n        uint256 counter = 0;\r\n        for (uint256 i = 0; i < props[_tokenId].digTime.length; i++) {\r\n            if (\r\n                props[_tokenId].digTime[i] > start &&\r\n                props[_tokenId].digTime[i] < end\r\n            ) {\r\n                counter++;\r\n            }\r\n        }\r\n        if (counter >= 1) {\r\n            return false;\r\n        }\r\n        return true;\r\n    }\r\n\r\n    // 1-100 random number\r\n    function rand() public view returns (uint256) {\r\n        uint256 random = uint256(\r\n            keccak256(abi.encodePacked(block.difficulty, block.timestamp))\r\n        );\r\n        return (random % 100) + 1;\r\n    }\r\n\r\n    function withdraw(address to) public onlyRole(MINTER_ROLE) {\r\n        uint256 balance = address(this).balance;\r\n        payable(to).transfer(balance);\r\n    }\r\n}\r\n",
  "sourcePath": "E:\\Douya_Coin_NFT\\contracts\\DouyaNFT.sol",
  "compiler": {
    "name": "solc",
    "version": "0.8.13+commit.abaa5c0e.Emscripten.clang"
  },
  "schemaVersion": "3.3.4",
  "updatedAt": "2022-03-21T06:23:47.860Z",
  "networkType": "ethereum",
  "devdoc": {
    "kind": "dev",
    "methods": {
      "approve(address,uint256)": {
        "details": "See {IERC721-approve}."
      },
      "balanceOf(address)": {
        "details": "See {IERC721-balanceOf}."
      },
      "getApproved(uint256)": {
        "details": "See {IERC721-getApproved}."
      },
      "getRoleAdmin(bytes32)": {
        "details": "Returns the admin role that controls `role`. See {grantRole} and {revokeRole}. To change a role's admin, use {_setRoleAdmin}."
      },
      "grantRole(bytes32,address)": {
        "details": "Grants `role` to `account`. If `account` had not been already granted `role`, emits a {RoleGranted} event. Requirements: - the caller must have ``role``'s admin role."
      },
      "hasRole(bytes32,address)": {
        "details": "Returns `true` if `account` has been granted `role`."
      },
      "isApprovedForAll(address,address)": {
        "details": "See {IERC721-isApprovedForAll}."
      },
      "name()": {
        "details": "See {IERC721Metadata-name}."
      },
      "ownerOf(uint256)": {
        "details": "See {IERC721-ownerOf}."
      },
      "renounceRole(bytes32,address)": {
        "details": "Revokes `role` from the calling account. Roles are often managed via {grantRole} and {revokeRole}: this function's purpose is to provide a mechanism for accounts to lose their privileges if they are compromised (such as when a trusted device is misplaced). If the calling account had been revoked `role`, emits a {RoleRevoked} event. Requirements: - the caller must be `account`."
      },
      "revokeRole(bytes32,address)": {
        "details": "Revokes `role` from `account`. If `account` had been granted `role`, emits a {RoleRevoked} event. Requirements: - the caller must have ``role``'s admin role."
      },
      "safeTransferFrom(address,address,uint256)": {
        "details": "See {IERC721-safeTransferFrom}."
      },
      "safeTransferFrom(address,address,uint256,bytes)": {
        "details": "See {IERC721-safeTransferFrom}."
      },
      "setApprovalForAll(address,bool)": {
        "details": "See {IERC721-setApprovalForAll}."
      },
      "symbol()": {
        "details": "See {IERC721Metadata-symbol}."
      },
      "tokenByIndex(uint256)": {
        "details": "See {IERC721Enumerable-tokenByIndex}."
      },
      "tokenOfOwnerByIndex(address,uint256)": {
        "details": "See {IERC721Enumerable-tokenOfOwnerByIndex}."
      },
      "tokenURI(uint256)": {
        "details": "See {IERC721Metadata-tokenURI}."
      },
      "totalSupply()": {
        "details": "See {IERC721Enumerable-totalSupply}."
      },
      "transferFrom(address,address,uint256)": {
        "details": "See {IERC721-transferFrom}."
      }
    },
    "version": 1
  },
  "userdoc": {
    "kind": "user",
    "methods": {},
    "version": 1
  }
}