{
  "contractName": "DouyaNFT",
  "abi": [
    {
      "inputs": [
        {
          "internalType": "address",
          "name": "douyacoin",
          "type": "address"
        }
      ],
      "stateMutability": "nonpayable",
      "type": "constructor"
    },
    {
      "anonymous": false,
      "inputs": [
        {
          "indexed": true,
          "internalType": "address",
          "name": "owner",
          "type": "address"
        },
        {
          "indexed": true,
          "internalType": "address",
          "name": "approved",
          "type": "address"
        },
        {
          "indexed": true,
          "internalType": "uint256",
          "name": "tokenId",
          "type": "uint256"
        }
      ],
      "name": "Approval",
      "type": "event"
    },
    {
      "anonymous": false,
      "inputs": [
        {
          "indexed": true,
          "internalType": "address",
          "name": "owner",
          "type": "address"
        },
        {
          "indexed": true,
          "internalType": "address",
          "name": "operator",
          "type": "address"
        },
        {
          "indexed": false,
          "internalType": "bool",
          "name": "approved",
          "type": "bool"
        }
      ],
      "name": "ApprovalForAll",
      "type": "event"
    },
    {
      "anonymous": false,
      "inputs": [
        {
          "indexed": false,
          "internalType": "bool",
          "name": "successed",
          "type": "bool"
        },
        {
          "indexed": false,
          "internalType": "uint256",
          "name": "amount",
          "type": "uint256"
        }
      ],
      "name": "Dig",
      "type": "event"
    },
    {
      "anonymous": false,
      "inputs": [
        {
          "indexed": true,
          "internalType": "bytes32",
          "name": "role",
          "type": "bytes32"
        },
        {
          "indexed": true,
          "internalType": "bytes32",
          "name": "previousAdminRole",
          "type": "bytes32"
        },
        {
          "indexed": true,
          "internalType": "bytes32",
          "name": "newAdminRole",
          "type": "bytes32"
        }
      ],
      "name": "RoleAdminChanged",
      "type": "event"
    },
    {
      "anonymous": false,
      "inputs": [
        {
          "indexed": true,
          "internalType": "bytes32",
          "name": "role",
          "type": "bytes32"
        },
        {
          "indexed": true,
          "internalType": "address",
          "name": "account",
          "type": "address"
        },
        {
          "indexed": true,
          "internalType": "address",
          "name": "sender",
          "type": "address"
        }
      ],
      "name": "RoleGranted",
      "type": "event"
    },
    {
      "anonymous": false,
      "inputs": [
        {
          "indexed": true,
          "internalType": "bytes32",
          "name": "role",
          "type": "bytes32"
        },
        {
          "indexed": true,
          "internalType": "address",
          "name": "account",
          "type": "address"
        },
        {
          "indexed": true,
          "internalType": "address",
          "name": "sender",
          "type": "address"
        }
      ],
      "name": "RoleRevoked",
      "type": "event"
    },
    {
      "anonymous": false,
      "inputs": [
        {
          "indexed": true,
          "internalType": "address",
          "name": "from",
          "type": "address"
        },
        {
          "indexed": true,
          "internalType": "address",
          "name": "to",
          "type": "address"
        },
        {
          "indexed": true,
          "internalType": "uint256",
          "name": "tokenId",
          "type": "uint256"
        }
      ],
      "name": "Transfer",
      "type": "event"
    },
    {
      "inputs": [],
      "name": "DEFAULT_ADMIN_ROLE",
      "outputs": [
        {
          "internalType": "bytes32",
          "name": "",
          "type": "bytes32"
        }
      ],
      "stateMutability": "view",
      "type": "function",
      "constant": true
    },
    {
      "inputs": [],
      "name": "MAX_SUPPLY",
      "outputs": [
        {
          "internalType": "uint256",
          "name": "",
          "type": "uint256"
        }
      ],
      "stateMutability": "view",
      "type": "function",
      "constant": true
    },
    {
      "inputs": [],
      "name": "MINTER_ROLE",
      "outputs": [
        {
          "internalType": "bytes32",
          "name": "",
          "type": "bytes32"
        }
      ],
      "stateMutability": "view",
      "type": "function",
      "constant": true
    },
    {
      "inputs": [],
      "name": "_isSaleActive",
      "outputs": [
        {
          "internalType": "bool",
          "name": "",
          "type": "bool"
        }
      ],
      "stateMutability": "view",
      "type": "function",
      "constant": true
    },
    {
      "inputs": [],
      "name": "_revealed",
      "outputs": [
        {
          "internalType": "bool",
          "name": "",
          "type": "bool"
        }
      ],
      "stateMutability": "view",
      "type": "function",
      "constant": true
    },
    {
      "inputs": [
        {
          "internalType": "address",
          "name": "to",
          "type": "address"
        },
        {
          "internalType": "uint256",
          "name": "tokenId",
          "type": "uint256"
        }
      ],
      "name": "approve",
      "outputs": [],
      "stateMutability": "nonpayable",
      "type": "function"
    },
    {
      "inputs": [
        {
          "internalType": "address",
          "name": "owner",
          "type": "address"
        }
      ],
      "name": "balanceOf",
      "outputs": [
        {
          "internalType": "uint256",
          "name": "",
          "type": "uint256"
        }
      ],
      "stateMutability": "view",
      "type": "function",
      "constant": true
    },
    {
      "inputs": [],
      "name": "baseExtension",
      "outputs": [
        {
          "internalType": "string",
          "name": "",
          "type": "string"
        }
      ],
      "stateMutability": "view",
      "type": "function",
      "constant": true
    },
    {
      "inputs": [
        {
          "internalType": "uint256",
          "name": "tokenId",
          "type": "uint256"
        }
      ],
      "name": "getApproved",
      "outputs": [
        {
          "internalType": "address",
          "name": "",
          "type": "address"
        }
      ],
      "stateMutability": "view",
      "type": "function",
      "constant": true
    },
    {
      "inputs": [
        {
          "internalType": "bytes32",
          "name": "role",
          "type": "bytes32"
        }
      ],
      "name": "getRoleAdmin",
      "outputs": [
        {
          "internalType": "bytes32",
          "name": "",
          "type": "bytes32"
        }
      ],
      "stateMutability": "view",
      "type": "function",
      "constant": true
    },
    {
      "inputs": [
        {
          "internalType": "bytes32",
          "name": "role",
          "type": "bytes32"
        },
        {
          "internalType": "address",
          "name": "account",
          "type": "address"
        }
      ],
      "name": "grantRole",
      "outputs": [],
      "stateMutability": "nonpayable",
      "type": "function"
    },
    {
      "inputs": [
        {
          "internalType": "bytes32",
          "name": "role",
          "type": "bytes32"
        },
        {
          "internalType": "address",
          "name": "account",
          "type": "address"
        }
      ],
      "name": "hasRole",
      "outputs": [
        {
          "internalType": "bool",
          "name": "",
          "type": "bool"
        }
      ],
      "stateMutability": "view",
      "type": "function",
      "constant": true
    },
    {
      "inputs": [
        {
          "internalType": "address",
          "name": "owner",
          "type": "address"
        },
        {
          "internalType": "address",
          "name": "operator",
          "type": "address"
        }
      ],
      "name": "isApprovedForAll",
      "outputs": [
        {
          "internalType": "bool",
          "name": "",
          "type": "bool"
        }
      ],
      "stateMutability": "view",
      "type": "function",
      "constant": true
    },
    {
      "inputs": [],
      "name": "maxBalance",
      "outputs": [
        {
          "internalType": "uint256",
          "name": "",
          "type": "uint256"
        }
      ],
      "stateMutability": "view",
      "type": "function",
      "constant": true
    },
    {
      "inputs": [],
      "name": "maxMint",
      "outputs": [
        {
          "internalType": "uint256",
          "name": "",
          "type": "uint256"
        }
      ],
      "stateMutability": "view",
      "type": "function",
      "constant": true
    },
    {
      "inputs": [],
      "name": "mintPrice",
      "outputs": [
        {
          "internalType": "uint256",
          "name": "",
          "type": "uint256"
        }
      ],
      "stateMutability": "view",
      "type": "function",
      "constant": true
    },
    {
      "inputs": [],
      "name": "name",
      "outputs": [
        {
          "internalType": "string",
          "name": "",
          "type": "string"
        }
      ],
      "stateMutability": "view",
      "type": "function",
      "constant": true
    },
    {
      "inputs": [],
      "name": "notRevealedUri",
      "outputs": [
        {
          "internalType": "string",
          "name": "",
          "type": "string"
        }
      ],
      "stateMutability": "view",
      "type": "function",
      "constant": true
    },
    {
      "inputs": [
        {
          "internalType": "uint256",
          "name": "tokenId",
          "type": "uint256"
        }
      ],
      "name": "ownerOf",
      "outputs": [
        {
          "internalType": "address",
          "name": "",
          "type": "address"
        }
      ],
      "stateMutability": "view",
      "type": "function",
      "constant": true
    },
    {
      "inputs": [
        {
          "internalType": "uint256",
          "name": "",
          "type": "uint256"
        }
      ],
      "name": "props",
      "outputs": [
        {
          "internalType": "uint16",
          "name": "power",
          "type": "uint16"
        }
      ],
      "stateMutability": "view",
      "type": "function",
      "constant": true
    },
    {
      "inputs": [
        {
          "internalType": "bytes32",
          "name": "role",
          "type": "bytes32"
        },
        {
          "internalType": "address",
          "name": "account",
          "type": "address"
        }
      ],
      "name": "renounceRole",
      "outputs": [],
      "stateMutability": "nonpayable",
      "type": "function"
    },
    {
      "inputs": [
        {
          "internalType": "bytes32",
          "name": "role",
          "type": "bytes32"
        },
        {
          "internalType": "address",
          "name": "account",
          "type": "address"
        }
      ],
      "name": "revokeRole",
      "outputs": [],
      "stateMutability": "nonpayable",
      "type": "function"
    },
    {
      "inputs": [
        {
          "internalType": "address",
          "name": "from",
          "type": "address"
        },
        {
          "internalType": "address",
          "name": "to",
          "type": "address"
        },
        {
          "internalType": "uint256",
          "name": "tokenId",
          "type": "uint256"
        }
      ],
      "name": "safeTransferFrom",
      "outputs": [],
      "stateMutability": "nonpayable",
      "type": "function"
    },
    {
      "inputs": [
        {
          "internalType": "address",
          "name": "from",
          "type": "address"
        },
        {
          "internalType": "address",
          "name": "to",
          "type": "address"
        },
        {
          "internalType": "uint256",
          "name": "tokenId",
          "type": "uint256"
        },
        {
          "internalType": "bytes",
          "name": "_data",
          "type": "bytes"
        }
      ],
      "name": "safeTransferFrom",
      "outputs": [],
      "stateMutability": "nonpayable",
      "type": "function"
    },
    {
      "inputs": [
        {
          "internalType": "address",
          "name": "operator",
          "type": "address"
        },
        {
          "internalType": "bool",
          "name": "approved",
          "type": "bool"
        }
      ],
      "name": "setApprovalForAll",
      "outputs": [],
      "stateMutability": "nonpayable",
      "type": "function"
    },
    {
      "inputs": [],
      "name": "symbol",
      "outputs": [
        {
          "internalType": "string",
          "name": "",
          "type": "string"
        }
      ],
      "stateMutability": "view",
      "type": "function",
      "constant": true
    },
    {
      "inputs": [
        {
          "internalType": "uint256",
          "name": "index",
          "type": "uint256"
        }
      ],
      "name": "tokenByIndex",
      "outputs": [
        {
          "internalType": "uint256",
          "name": "",
          "type": "uint256"
        }
      ],
      "stateMutability": "view",
      "type": "function",
      "constant": true
    },
    {
      "inputs": [
        {
          "internalType": "address",
          "name": "owner",
          "type": "address"
        },
        {
          "internalType": "uint256",
          "name": "index",
          "type": "uint256"
        }
      ],
      "name": "tokenOfOwnerByIndex",
      "outputs": [
        {
          "internalType": "uint256",
          "name": "",
          "type": "uint256"
        }
      ],
      "stateMutability": "view",
      "type": "function",
      "constant": true
    },
    {
      "inputs": [],
      "name": "totalSupply",
      "outputs": [
        {
          "internalType": "uint256",
          "name": "",
          "type": "uint256"
        }
      ],
      "stateMutability": "view",
      "type": "function",
      "constant": true
    },
    {
      "inputs": [
        {
          "internalType": "address",
          "name": "from",
          "type": "address"
        },
        {
          "internalType": "address",
          "name": "to",
          "type": "address"
        },
        {
          "internalType": "uint256",
          "name": "tokenId",
          "type": "uint256"
        }
      ],
      "name": "transferFrom",
      "outputs": [],
      "stateMutability": "nonpayable",
      "type": "function"
    },
    {
      "inputs": [],
      "name": "tokenIds",
      "outputs": [
        {
          "internalType": "uint256",
          "name": "",
          "type": "uint256"
        }
      ],
      "stateMutability": "view",
      "type": "function",
      "constant": true
    },
    {
      "inputs": [],
      "name": "mintDouyaNFT",
      "outputs": [
        {
          "internalType": "uint256",
          "name": "",
          "type": "uint256"
        }
      ],
      "stateMutability": "payable",
      "type": "function",
      "payable": true
    },
    {
      "inputs": [
        {
          "internalType": "string",
          "name": "_newBaseURI",
          "type": "string"
        }
      ],
      "name": "setBaseURI",
      "outputs": [],
      "stateMutability": "nonpayable",
      "type": "function"
    },
    {
      "inputs": [
        {
          "internalType": "string",
          "name": "_newBaseExtension",
          "type": "string"
        }
      ],
      "name": "setBaseExtension",
      "outputs": [],
      "stateMutability": "nonpayable",
      "type": "function"
    },
    {
      "inputs": [
        {
          "internalType": "string",
          "name": "_notRevealedURI",
          "type": "string"
        }
      ],
      "name": "setNotRevealedURI",
      "outputs": [],
      "stateMutability": "nonpayable",
      "type": "function"
    },
    {
      "inputs": [
        {
          "internalType": "uint256",
          "name": "tokenId",
          "type": "uint256"
        }
      ],
      "name": "tokenURI",
      "outputs": [
        {
          "internalType": "string",
          "name": "",
          "type": "string"
        }
      ],
      "stateMutability": "view",
      "type": "function",
      "constant": true
    },
    {
      "inputs": [
        {
          "internalType": "address",
          "name": "addr",
          "type": "address"
        }
      ],
      "name": "setRole",
      "outputs": [],
      "stateMutability": "nonpayable",
      "type": "function"
    },
    {
      "inputs": [
        {
          "internalType": "address",
          "name": "owner",
          "type": "address"
        },
        {
          "internalType": "address",
          "name": "addr",
          "type": "address"
        },
        {
          "internalType": "bool",
          "name": "b",
          "type": "bool"
        }
      ],
      "name": "setMoveNft",
      "outputs": [],
      "stateMutability": "nonpayable",
      "type": "function"
    },
    {
      "inputs": [
        {
          "internalType": "bytes4",
          "name": "interfaceId",
          "type": "bytes4"
        }
      ],
      "name": "supportsInterface",
      "outputs": [
        {
          "internalType": "bool",
          "name": "",
          "type": "bool"
        }
      ],
      "stateMutability": "view",
      "type": "function",
      "constant": true
    },
    {
      "inputs": [],
      "name": "flipSaleActive",
      "outputs": [],
      "stateMutability": "nonpayable",
      "type": "function"
    },
    {
      "inputs": [],
      "name": "flipReveal",
      "outputs": [],
      "stateMutability": "nonpayable",
      "type": "function"
    },
    {
      "inputs": [
        {
          "internalType": "address",
          "name": "_owner",
          "type": "address"
        }
      ],
      "name": "getByOwner",
      "outputs": [
        {
          "internalType": "uint256[]",
          "name": "",
          "type": "uint256[]"
        }
      ],
      "stateMutability": "view",
      "type": "function",
      "constant": true
    },
    {
      "inputs": [
        {
          "internalType": "uint256",
          "name": "tokenId",
          "type": "uint256"
        }
      ],
      "name": "getPower",
      "outputs": [
        {
          "internalType": "uint256",
          "name": "",
          "type": "uint256"
        }
      ],
      "stateMutability": "view",
      "type": "function",
      "constant": true
    },
    {
      "inputs": [
        {
          "internalType": "address",
          "name": "player",
          "type": "address"
        },
        {
          "internalType": "uint256",
          "name": "tokenId",
          "type": "uint256"
        }
      ],
      "name": "dig",
      "outputs": [],
      "stateMutability": "nonpayable",
      "type": "function"
    },
    {
      "inputs": [
        {
          "internalType": "uint256",
          "name": "_tokenId",
          "type": "uint256"
        }
      ],
      "name": "digAlow",
      "outputs": [
        {
          "internalType": "bool",
          "name": "",
          "type": "bool"
        }
      ],
      "stateMutability": "view",
      "type": "function",
      "constant": true
    },
    {
      "inputs": [],
      "name": "rand",
      "outputs": [
        {
          "internalType": "uint256",
          "name": "",
          "type": "uint256"
        }
      ],
      "stateMutability": "view",
      "type": "function",
      "constant": true
    },
    {
      "inputs": [
        {
          "internalType": "address",
          "name": "to",
          "type": "address"
        }
      ],
      "name": "withdraw",
      "outputs": [],
      "stateMutability": "nonpayable",
      "type": "function"
    }
  ],
  "bytecode": "0x60806040526000600c60146101000a81548160ff0219169083151502179055506000600c60156101000a81548160ff021916908315150217905550666a94d74f430000600d556005600e556001600f556040518060400160405280600481526020017f2e706e6700000000000000000000000000000000000000000000000000000000815250601290805190602001906200009c92919062000362565b50348015620000aa57600080fd5b506040516200595b3803806200595b8339818101604052810190620000d091906200047c565b6040518060400160405280600881526020017f446f7579614e46540000000000000000000000000000000000000000000000008152506040518060400160405280600481526020017f444f554e0000000000000000000000000000000000000000000000000000000081525081600190805190602001906200015492919062000362565b5080600290805190602001906200016d92919062000362565b50505080600c60006101000a81548173ffffffffffffffffffffffffffffffffffffffff021916908373ffffffffffffffffffffffffffffffffffffffff160217905550620001c66000801b33620001ff60201b60201c565b620001f87f9f2df0fed2c77648de5860a4cc508cd0818c85b8b8a1ab4ceeef8d981c8956a633620001ff60201b60201c565b5062000512565b620002118282620002f060201b60201c565b620002ec57600160008084815260200190815260200160002060000160008373ffffffffffffffffffffffffffffffffffffffff1673ffffffffffffffffffffffffffffffffffffffff16815260200190815260200160002060006101000a81548160ff021916908315150217905550620002916200035a60201b60201c565b73ffffffffffffffffffffffffffffffffffffffff168173ffffffffffffffffffffffffffffffffffffffff16837f2f8788117e7eff1d82e926ec794901d17c78024a50270940304540a733656f0d60405160405180910390a45b5050565b600080600084815260200190815260200160002060000160008373ffffffffffffffffffffffffffffffffffffffff1673ffffffffffffffffffffffffffffffffffffffff16815260200190815260200160002060009054906101000a900460ff16905092915050565b600033905090565b8280546200037090620004dd565b90600052602060002090601f016020900481019282620003945760008555620003e0565b82601f10620003af57805160ff1916838001178555620003e0565b82800160010185558215620003e0579182015b82811115620003df578251825591602001919060010190620003c2565b5b509050620003ef9190620003f3565b5090565b5b808211156200040e576000816000905550600101620003f4565b5090565b600080fd5b600073ffffffffffffffffffffffffffffffffffffffff82169050919050565b6000620004448262000417565b9050919050565b620004568162000437565b81146200046257600080fd5b50565b60008151905062000476816200044b565b92915050565b60006020828403121562000495576200049462000412565b5b6000620004a58482850162000465565b91505092915050565b7f4e487b7100000000000000000000000000000000000000000000000000000000600052602260045260246000fd5b60006002820490506001821680620004f657607f821691505b6020821081036200050c576200050b620004ae565b5b50919050565b61543980620005226000396000f3fe6080604052600436106102885760003560e01c80636817c76c1161015a578063b88d4fde116100c1578063da3ef23f1161007a578063da3ef23f14610a0f578063de8b51e114610a38578063e985e9c514610a4f578063f2c4ce1e14610a8c578063fb85d8dc14610ab5578063fda54c1614610ade57610288565b8063b88d4fde146108ed578063c668286214610916578063c87b56dd14610941578063cbcbf10d1461097e578063d5391393146109bb578063d547741f146109e657610288565b80637501f741116101135780637501f741146107e857806391d148541461081357806395d89b4114610850578063a217fddf1461087b578063a22cb465146108a6578063a5f101d6146108cf57610288565b80636817c76c146106d45780636ebeac85146106ff5780637080d6fc1461072a57806370a0823114610755578063714cff561461079257806373ad468a146107bd57610288565b806332cb6b0c116101fe57806342842e0e116101b757806342842e0e146105b65780634f6ccce7146105df57806351cff8d91461061c57806355f804b3146106455780635d0efc4d1461066e5780636352211e1461069757610288565b806332cb6b0c146104ba57806336568abe146104e5578063379c51311461050e5780633b3dca761461054b5780633b84d9c614610576578063412fc7461461058d57610288565b8063095ea7b311610250578063095ea7b31461039a57806318160ddd146103c357806323b872dd146103ee578063248a9ca3146104175780632f2ff15d146104545780632f745c591461047d57610288565b8063017fe8091461028d57806301ffc9a7146102ca57806306fdde0314610307578063081812fc14610332578063081c8c441461036f575b600080fd5b34801561029957600080fd5b506102b460048036038101906102af919061387a565b610b1b565b6040516102c191906138b6565b60405180910390f35b3480156102d657600080fd5b506102f160048036038101906102ec9190613929565b610b4d565b6040516102fe9190613971565b60405180910390f35b34801561031357600080fd5b5061031c610b5f565b6040516103299190613a25565b60405180910390f35b34801561033e57600080fd5b506103596004803603810190610354919061387a565b610bf1565b6040516103669190613a88565b60405180910390f35b34801561037b57600080fd5b50610384610c76565b6040516103919190613a25565b60405180910390f35b3480156103a657600080fd5b506103c160048036038101906103bc9190613acf565b610d04565b005b3480156103cf57600080fd5b506103d8610e1b565b6040516103e591906138b6565b60405180910390f35b3480156103fa57600080fd5b5061041560048036038101906104109190613b0f565b610e28565b005b34801561042357600080fd5b5061043e60048036038101906104399190613b98565b610e88565b60405161044b9190613bd4565b60405180910390f35b34801561046057600080fd5b5061047b60048036038101906104769190613bef565b610ea7565b005b34801561048957600080fd5b506104a4600480360381019061049f9190613acf565b610ed0565b6040516104b191906138b6565b60405180910390f35b3480156104c657600080fd5b506104cf610f75565b6040516104dc91906138b6565b60405180910390f35b3480156104f157600080fd5b5061050c60048036038101906105079190613bef565b610f7a565b005b34801561051a57600080fd5b5061053560048036038101906105309190613c2f565b610ffd565b6040516105429190613d1a565b60405180910390f35b34801561055757600080fd5b506105606110f4565b60405161056d91906138b6565b60405180910390f35b34801561058257600080fd5b5061058b611144565b005b34801561059957600080fd5b506105b460048036038101906105af9190613acf565b611186565b005b3480156105c257600080fd5b506105dd60048036038101906105d89190613b0f565b6113fa565b005b3480156105eb57600080fd5b506106066004803603810190610601919061387a565b61141a565b60405161061391906138b6565b60405180910390f35b34801561062857600080fd5b50610643600480360381019061063e9190613c2f565b61148b565b005b34801561065157600080fd5b5061066c60048036038101906106679190613e71565b61150e565b005b34801561067a57600080fd5b5061069560048036038101906106909190613c2f565b61155b565b005b3480156106a357600080fd5b506106be60048036038101906106b9919061387a565b61159e565b6040516106cb9190613a88565b60405180910390f35b3480156106e057600080fd5b506106e961164f565b6040516106f691906138b6565b60405180910390f35b34801561070b57600080fd5b50610714611655565b6040516107219190613971565b60405180910390f35b34801561073657600080fd5b5061073f611668565b60405161074c9190613971565b60405180910390f35b34801561076157600080fd5b5061077c60048036038101906107779190613c2f565b61167b565b60405161078991906138b6565b60405180910390f35b34801561079e57600080fd5b506107a7611732565b6040516107b491906138b6565b60405180910390f35b3480156107c957600080fd5b506107d2611743565b6040516107df91906138b6565b60405180910390f35b3480156107f457600080fd5b506107fd611749565b60405161080a91906138b6565b60405180910390f35b34801561081f57600080fd5b5061083a60048036038101906108359190613bef565b61174f565b6040516108479190613971565b60405180910390f35b34801561085c57600080fd5b506108656117b9565b6040516108729190613a25565b60405180910390f35b34801561088757600080fd5b5061089061184b565b60405161089d9190613bd4565b60405180910390f35b3480156108b257600080fd5b506108cd60048036038101906108c89190613ee6565b611852565b005b6108d7611868565b6040516108e491906138b6565b60405180910390f35b3480156108f957600080fd5b50610914600480360381019061090f9190613fc7565b611abf565b005b34801561092257600080fd5b5061092b611b21565b6040516109389190613a25565b60405180910390f35b34801561094d57600080fd5b506109686004803603810190610963919061387a565b611baf565b6040516109759190613a25565b60405180910390f35b34801561098a57600080fd5b506109a560048036038101906109a0919061387a565b611d2f565b6040516109b29190613971565b60405180910390f35b3480156109c757600080fd5b506109d0611e28565b6040516109dd9190613bd4565b60405180910390f35b3480156109f257600080fd5b50610a0d6004803603810190610a089190613bef565b611e4c565b005b348015610a1b57600080fd5b50610a366004803603810190610a319190613e71565b611e75565b005b348015610a4457600080fd5b50610a4d611ec2565b005b348015610a5b57600080fd5b50610a766004803603810190610a71919061404a565b611f04565b604051610a839190613971565b60405180910390f35b348015610a9857600080fd5b50610ab36004803603810190610aae9190613e71565b611f98565b005b348015610ac157600080fd5b50610adc6004803603810190610ad7919061408a565b611fe5565b005b348015610aea57600080fd5b50610b056004803603810190610b00919061387a565b612028565b604051610b1291906140fa565b60405180910390f35b60006013600083815260200190815260200160002060000160009054906101000a900461ffff1661ffff169050919050565b6000610b5882612054565b9050919050565b606060018054610b6e90614144565b80601f0160208091040260200160405190810160405280929190818152602001828054610b9a90614144565b8015610be75780601f10610bbc57610100808354040283529160200191610be7565b820191906000526020600020905b815481529060010190602001808311610bca57829003601f168201915b5050505050905090565b6000610bfc826120ce565b610c3b576040517f08c379a0000000000000000000000000000000000000000000000000000000008152600401610c32906141e7565b60405180910390fd5b6005600083815260200190815260200160002060009054906101000a900473ffffffffffffffffffffffffffffffffffffffff169050919050565b60118054610c8390614144565b80601f0160208091040260200160405190810160405280929190818152602001828054610caf90614144565b8015610cfc5780601f10610cd157610100808354040283529160200191610cfc565b820191906000526020600020905b815481529060010190602001808311610cdf57829003601f168201915b505050505081565b6000610d0f8261159e565b90508073ffffffffffffffffffffffffffffffffffffffff168373ffffffffffffffffffffffffffffffffffffffff1603610d7f576040517f08c379a0000000000000000000000000000000000000000000000000000000008152600401610d7690614279565b60405180910390fd5b8073ffffffffffffffffffffffffffffffffffffffff16610d9e61213a565b73ffffffffffffffffffffffffffffffffffffffff161480610dcd5750610dcc81610dc761213a565b611f04565b5b610e0c576040517f08c379a0000000000000000000000000000000000000000000000000000000008152600401610e039061430b565b60405180910390fd5b610e168383612142565b505050565b6000600980549050905090565b610e39610e3361213a565b826121fb565b610e78576040517f08c379a0000000000000000000000000000000000000000000000000000000008152600401610e6f9061439d565b60405180910390fd5b610e838383836122d9565b505050565b6000806000838152602001908152602001600020600101549050919050565b610eb082610e88565b610ec181610ebc61213a565b61253f565b610ecb83836125dc565b505050565b6000610edb8361167b565b8210610f1c576040517f08c379a0000000000000000000000000000000000000000000000000000000008152600401610f139061442f565b60405180910390fd5b600760008473ffffffffffffffffffffffffffffffffffffffff1673ffffffffffffffffffffffffffffffffffffffff168152602001908152602001600020600083815260200190815260200160002054905092915050565b603281565b610f8261213a565b73ffffffffffffffffffffffffffffffffffffffff168173ffffffffffffffffffffffffffffffffffffffff1614610fef576040517f08c379a0000000000000000000000000000000000000000000000000000000008152600401610fe6906144c1565b60405180910390fd5b610ff982826126bc565b5050565b6060600061100a8361167b565b67ffffffffffffffff81111561102357611022613d46565b5b6040519080825280602002602001820160405280156110515781602001602082028036833780820191505090505b509050600080600190505b611066600b61279d565b81116110e9578473ffffffffffffffffffffffffffffffffffffffff1661108c8261159e565b73ffffffffffffffffffffffffffffffffffffffff16036110d657808383815181106110bb576110ba6144e1565b5b60200260200101818152505081806110d29061453f565b9250505b80806110e19061453f565b91505061105c565b508192505050919050565b600080444260405160200161110a9291906145a8565b6040516020818303038152906040528051906020012060001c905060016064826111349190614603565b61113e9190614634565b91505090565b6000801b6111598161115461213a565b61253f565b600c60159054906101000a900460ff1615600c60156101000a81548160ff02191690831515021790555050565b8173ffffffffffffffffffffffffffffffffffffffff166111a68261159e565b73ffffffffffffffffffffffffffffffffffffffff16146111fc576040517f08c379a00000000000000000000000000000000000000000000000000000000081526004016111f3906146d6565b60405180910390fd5b61120581611d2f565b611244576040517f08c379a000000000000000000000000000000000000000000000000000000000815260040161123b90614742565b60405180910390fd5b6013600082815260200190815260200160002060010142908060018154018082558091505060019003906000526020600020016000909190919091505560006013600083815260200190815260200160002060000160009054906101000a900461ffff1661ffff16905060006001606444426040516020016112c79291906145a8565b6040516020818303038152906040528051906020012060001c6112ea9190614603565b6112f49190614634565b9050600081836113049190614762565b9050600c60009054906101000a900473ffffffffffffffffffffffffffffffffffffffff1673ffffffffffffffffffffffffffffffffffffffff166340c10f193366038d7ea4c68000846113589190614762565b6040518363ffffffff1660e01b81526004016113759291906147bc565b600060405180830381600087803b15801561138f57600080fd5b505af11580156113a3573d6000803e3d6000fd5b505050507fc1cac68055d038429280f6eb1126e709c6be291f286895b51ea88569e2c98230600166038d7ea4c68000836113dd9190614762565b6040516113eb9291906147e5565b60405180910390a15050505050565b61141583838360405180602001604052806000815250611abf565b505050565b6000611424610e1b565b8210611465576040517f08c379a000000000000000000000000000000000000000000000000000000000815260040161145c90614880565b60405180910390fd5b60098281548110611479576114786144e1565b5b90600052602060002001549050919050565b7f9f2df0fed2c77648de5860a4cc508cd0818c85b8b8a1ab4ceeef8d981c8956a66114bd816114b861213a565b61253f565b60004790508273ffffffffffffffffffffffffffffffffffffffff166108fc829081150290604051600060405180830381858888f19350505050158015611508573d6000803e3d6000fd5b50505050565b7f9f2df0fed2c77648de5860a4cc508cd0818c85b8b8a1ab4ceeef8d981c8956a66115408161153b61213a565b61253f565b8160109080519060200190611556929190613722565b505050565b6000801b6115708161156b61213a565b61253f565b61159a7f9f2df0fed2c77648de5860a4cc508cd0818c85b8b8a1ab4ceeef8d981c8956a6836125dc565b5050565b6000806003600084815260200190815260200160002060009054906101000a900473ffffffffffffffffffffffffffffffffffffffff169050600073ffffffffffffffffffffffffffffffffffffffff168173ffffffffffffffffffffffffffffffffffffffff1603611646576040517f08c379a000000000000000000000000000000000000000000000000000000000815260040161163d90614912565b60405180910390fd5b80915050919050565b600d5481565b600c60159054906101000a900460ff1681565b600c60149054906101000a900460ff1681565b60008073ffffffffffffffffffffffffffffffffffffffff168273ffffffffffffffffffffffffffffffffffffffff16036116eb576040517f08c379a00000000000000000000000000000000000000000000000000000000081526004016116e2906149a4565b60405180910390fd5b600460008373ffffffffffffffffffffffffffffffffffffffff1673ffffffffffffffffffffffffffffffffffffffff168152602001908152602001600020549050919050565b600061173e600b61279d565b905090565b600e5481565b600f5481565b600080600084815260200190815260200160002060000160008373ffffffffffffffffffffffffffffffffffffffff1673ffffffffffffffffffffffffffffffffffffffff16815260200190815260200160002060009054906101000a900460ff16905092915050565b6060600280546117c890614144565b80601f01602080910402602001604051908101604052809291908181526020018280546117f490614144565b80156118415780601f1061181657610100808354040283529160200191611841565b820191906000526020600020905b81548152906001019060200180831161182457829003601f168201915b5050505050905090565b6000801b81565b61186461185d61213a565b83836127ab565b5050565b600060326001611876610e1b565b6118809190614634565b11156118c1576040517f08c379a00000000000000000000000000000000000000000000000000000000081526004016118b890614a10565b60405180910390fd5b600c60149054906101000a900460ff16611910576040517f08c379a000000000000000000000000000000000000000000000000000000000815260040161190790614aa2565b60405180910390fd5b600e54600161191e3361167b565b6119289190614634565b1115611969576040517f08c379a000000000000000000000000000000000000000000000000000000000815260040161196090614b0e565b60405180910390fd5b34600d5460016119799190614762565b11156119ba576040517f08c379a00000000000000000000000000000000000000000000000000000000081526004016119b190614b7a565b60405180910390fd5b600f5460011115611a00576040517f08c379a00000000000000000000000000000000000000000000000000000000081526004016119f790614be6565b60405180910390fd5b611a0a600b612917565b6000611a16600b61279d565b90506032611a22610e1b565b1015611ab657611a306137a8565b611a386110f4565b816000019061ffff16908161ffff1681525050806013600084815260200190815260200160002060008201518160000160006101000a81548161ffff021916908361ffff1602179055506020820151816001019080519060200190611a9e9291906137c6565b50905050611aac338361292d565b8192505050611abc565b60009150505b90565b611ad0611aca61213a565b836121fb565b611b0f576040517f08c379a0000000000000000000000000000000000000000000000000000000008152600401611b069061439d565b60405180910390fd5b611b1b84848484612b06565b50505050565b60128054611b2e90614144565b80601f0160208091040260200160405190810160405280929190818152602001828054611b5a90614144565b8015611ba75780601f10611b7c57610100808354040283529160200191611ba7565b820191906000526020600020905b815481529060010190602001808311611b8a57829003601f168201915b505050505081565b6060611bba826120ce565b611bf9576040517f08c379a0000000000000000000000000000000000000000000000000000000008152600401611bf090614c78565b60405180910390fd5b60001515600c60159054906101000a900460ff16151503611ca65760118054611c2190614144565b80601f0160208091040260200160405190810160405280929190818152602001828054611c4d90614144565b8015611c9a5780601f10611c6f57610100808354040283529160200191611c9a565b820191906000526020600020905b815481529060010190602001808311611c7d57829003601f168201915b50505050509050611d2a565b6000611cb0612b62565b90506000815103611cf9576040518060400160405280600181526020017f3000000000000000000000000000000000000000000000000000000000000000815250915050611d2a565b80611d0384612bf4565b6012604051602001611d1793929190614d68565b6040516020818303038152906040529150505b919050565b6000806201518042611d419190614d99565b905060004290506000805b6013600087815260200190815260200160002060010180549050811015611e065783601360008881526020019081526020016000206001018281548110611d9657611d956144e1565b5b9060005260206000200154118015611ddf575082601360008881526020019081526020016000206001018281548110611dd257611dd16144e1565b5b9060005260206000200154105b15611df3578180611def9061453f565b9250505b8080611dfe9061453f565b915050611d4c565b5060018110611e1b5760009350505050611e23565b600193505050505b919050565b7f9f2df0fed2c77648de5860a4cc508cd0818c85b8b8a1ab4ceeef8d981c8956a681565b611e5582610e88565b611e6681611e6161213a565b61253f565b611e7083836126bc565b505050565b7f9f2df0fed2c77648de5860a4cc508cd0818c85b8b8a1ab4ceeef8d981c8956a6611ea781611ea261213a565b61253f565b8160129080519060200190611ebd929190613722565b505050565b6000801b611ed781611ed261213a565b61253f565b600c60149054906101000a900460ff1615600c60146101000a81548160ff02191690831515021790555050565b6000600660008473ffffffffffffffffffffffffffffffffffffffff1673ffffffffffffffffffffffffffffffffffffffff16815260200190815260200160002060008373ffffffffffffffffffffffffffffffffffffffff1673ffffffffffffffffffffffffffffffffffffffff16815260200190815260200160002060009054906101000a900460ff16905092915050565b7f9f2df0fed2c77648de5860a4cc508cd0818c85b8b8a1ab4ceeef8d981c8956a6611fca81611fc561213a565b61253f565b8160119080519060200190611fe0929190613722565b505050565b7f9f2df0fed2c77648de5860a4cc508cd0818c85b8b8a1ab4ceeef8d981c8956a66120178161201261213a565b61253f565b6120228484846127ab565b50505050565b60136020528060005260406000206000915090508060000160009054906101000a900461ffff16905081565b60007f780e9d63000000000000000000000000000000000000000000000000000000007bffffffffffffffffffffffffffffffffffffffffffffffffffffffff1916827bffffffffffffffffffffffffffffffffffffffffffffffffffffffff191614806120c757506120c682612d54565b5b9050919050565b60008073ffffffffffffffffffffffffffffffffffffffff166003600084815260200190815260200160002060009054906101000a900473ffffffffffffffffffffffffffffffffffffffff1673ffffffffffffffffffffffffffffffffffffffff1614159050919050565b600033905090565b816005600083815260200190815260200160002060006101000a81548173ffffffffffffffffffffffffffffffffffffffff021916908373ffffffffffffffffffffffffffffffffffffffff160217905550808273ffffffffffffffffffffffffffffffffffffffff166121b58361159e565b73ffffffffffffffffffffffffffffffffffffffff167f8c5be1e5ebec7d5bd14f71427d1e84f3dd0314c0f7b2291e5b200ac8c7c3b92560405160405180910390a45050565b6000612206826120ce565b612245576040517f08c379a000000000000000000000000000000000000000000000000000000000815260040161223c90614e3f565b60405180910390fd5b60006122508361159e565b90508073ffffffffffffffffffffffffffffffffffffffff168473ffffffffffffffffffffffffffffffffffffffff1614806122bf57508373ffffffffffffffffffffffffffffffffffffffff166122a784610bf1565b73ffffffffffffffffffffffffffffffffffffffff16145b806122d057506122cf8185611f04565b5b91505092915050565b8273ffffffffffffffffffffffffffffffffffffffff166122f98261159e565b73ffffffffffffffffffffffffffffffffffffffff161461234f576040517f08c379a000000000000000000000000000000000000000000000000000000000815260040161234690614ed1565b60405180910390fd5b600073ffffffffffffffffffffffffffffffffffffffff168273ffffffffffffffffffffffffffffffffffffffff16036123be576040517f08c379a00000000000000000000000000000000000000000000000000000000081526004016123b590614f63565b60405180910390fd5b6123c9838383612e36565b6123d4600082612142565b6001600460008573ffffffffffffffffffffffffffffffffffffffff1673ffffffffffffffffffffffffffffffffffffffff16815260200190815260200160002060008282546124249190614d99565b925050819055506001600460008473ffffffffffffffffffffffffffffffffffffffff1673ffffffffffffffffffffffffffffffffffffffff168152602001908152602001600020600082825461247b9190614634565b92505081905550816003600083815260200190815260200160002060006101000a81548173ffffffffffffffffffffffffffffffffffffffff021916908373ffffffffffffffffffffffffffffffffffffffff160217905550808273ffffffffffffffffffffffffffffffffffffffff168473ffffffffffffffffffffffffffffffffffffffff167fddf252ad1be2c89b69c2b068fc378daa952ba7f163c4a11628f55a4df523b3ef60405160405180910390a461253a838383612f48565b505050565b612549828261174f565b6125d85761256e8173ffffffffffffffffffffffffffffffffffffffff166014612f4d565b61257c8360001c6020612f4d565b60405160200161258d92919061501b565b6040516020818303038152906040526040517f08c379a00000000000000000000000000000000000000000000000000000000081526004016125cf9190613a25565b60405180910390fd5b5050565b6125e6828261174f565b6126b857600160008084815260200190815260200160002060000160008373ffffffffffffffffffffffffffffffffffffffff1673ffffffffffffffffffffffffffffffffffffffff16815260200190815260200160002060006101000a81548160ff02191690831515021790555061265d61213a565b73ffffffffffffffffffffffffffffffffffffffff168173ffffffffffffffffffffffffffffffffffffffff16837f2f8788117e7eff1d82e926ec794901d17c78024a50270940304540a733656f0d60405160405180910390a45b5050565b6126c6828261174f565b1561279957600080600084815260200190815260200160002060000160008373ffffffffffffffffffffffffffffffffffffffff1673ffffffffffffffffffffffffffffffffffffffff16815260200190815260200160002060006101000a81548160ff02191690831515021790555061273e61213a565b73ffffffffffffffffffffffffffffffffffffffff168173ffffffffffffffffffffffffffffffffffffffff16837ff6391f5c32d9c69d2a47ea670b442974b53935d1edc7fd64eb21e047a839171b60405160405180910390a45b5050565b600081600001549050919050565b8173ffffffffffffffffffffffffffffffffffffffff168373ffffffffffffffffffffffffffffffffffffffff1603612819576040517f08c379a0000000000000000000000000000000000000000000000000000000008152600401612810906150a1565b60405180910390fd5b80600660008573ffffffffffffffffffffffffffffffffffffffff1673ffffffffffffffffffffffffffffffffffffffff16815260200190815260200160002060008473ffffffffffffffffffffffffffffffffffffffff1673ffffffffffffffffffffffffffffffffffffffff16815260200190815260200160002060006101000a81548160ff0219169083151502179055508173ffffffffffffffffffffffffffffffffffffffff168373ffffffffffffffffffffffffffffffffffffffff167f17307eab39ab6107e8899845ad3d59bd9653f200f220920489ca2b5937696c318360405161290a9190613971565b60405180910390a3505050565b6001816000016000828254019250508190555050565b600073ffffffffffffffffffffffffffffffffffffffff168273ffffffffffffffffffffffffffffffffffffffff160361299c576040517f08c379a00000000000000000000000000000000000000000000000000000000081526004016129939061510d565b60405180910390fd5b6129a5816120ce565b156129e5576040517f08c379a00000000000000000000000000000000000000000000000000000000081526004016129dc90615179565b60405180910390fd5b6129f160008383612e36565b6001600460008473ffffffffffffffffffffffffffffffffffffffff1673ffffffffffffffffffffffffffffffffffffffff1681526020019081526020016000206000828254612a419190614634565b92505081905550816003600083815260200190815260200160002060006101000a81548173ffffffffffffffffffffffffffffffffffffffff021916908373ffffffffffffffffffffffffffffffffffffffff160217905550808273ffffffffffffffffffffffffffffffffffffffff16600073ffffffffffffffffffffffffffffffffffffffff167fddf252ad1be2c89b69c2b068fc378daa952ba7f163c4a11628f55a4df523b3ef60405160405180910390a4612b0260008383612f48565b5050565b612b118484846122d9565b612b1d84848484613189565b612b5c576040517f08c379a0000000000000000000000000000000000000000000000000000000008152600401612b539061520b565b60405180910390fd5b50505050565b606060108054612b7190614144565b80601f0160208091040260200160405190810160405280929190818152602001828054612b9d90614144565b8015612bea5780601f10612bbf57610100808354040283529160200191612bea565b820191906000526020600020905b815481529060010190602001808311612bcd57829003601f168201915b5050505050905090565b606060008203612c3b576040518060400160405280600181526020017f30000000000000000000000000000000000000000000000000000000000000008152509050612d4f565b600082905060005b60008214612c6d578080612c569061453f565b915050600a82612c66919061522b565b9150612c43565b60008167ffffffffffffffff811115612c8957612c88613d46565b5b6040519080825280601f01601f191660200182016040528015612cbb5781602001600182028036833780820191505090505b5090505b60008514612d4857600182612cd49190614d99565b9150600a85612ce39190614603565b6030612cef9190614634565b60f81b818381518110612d0557612d046144e1565b5b60200101907effffffffffffffffffffffffffffffffffffffffffffffffffffffffffffff1916908160001a905350600a85612d41919061522b565b9450612cbf565b8093505050505b919050565b60007f80ac58cd000000000000000000000000000000000000000000000000000000007bffffffffffffffffffffffffffffffffffffffffffffffffffffffff1916827bffffffffffffffffffffffffffffffffffffffffffffffffffffffff19161480612e1f57507f5b5e139f000000000000000000000000000000000000000000000000000000007bffffffffffffffffffffffffffffffffffffffffffffffffffffffff1916827bffffffffffffffffffffffffffffffffffffffffffffffffffffffff1916145b80612e2f5750612e2e82613310565b5b9050919050565b612e4183838361338a565b600073ffffffffffffffffffffffffffffffffffffffff168373ffffffffffffffffffffffffffffffffffffffff1603612e8357612e7e8161338f565b612ec2565b8173ffffffffffffffffffffffffffffffffffffffff168373ffffffffffffffffffffffffffffffffffffffff1614612ec157612ec083826133d8565b5b5b600073ffffffffffffffffffffffffffffffffffffffff168273ffffffffffffffffffffffffffffffffffffffff1603612f0457612eff81613545565b612f43565b8273ffffffffffffffffffffffffffffffffffffffff168273ffffffffffffffffffffffffffffffffffffffff1614612f4257612f418282613616565b5b5b505050565b505050565b606060006002836002612f609190614762565b612f6a9190614634565b67ffffffffffffffff811115612f8357612f82613d46565b5b6040519080825280601f01601f191660200182016040528015612fb55781602001600182028036833780820191505090505b5090507f300000000000000000000000000000000000000000000000000000000000000081600081518110612fed57612fec6144e1565b5b60200101907effffffffffffffffffffffffffffffffffffffffffffffffffffffffffffff1916908160001a9053507f780000000000000000000000000000000000000000000000000000000000000081600181518110613051576130506144e1565b5b60200101907effffffffffffffffffffffffffffffffffffffffffffffffffffffffffffff1916908160001a905350600060018460026130919190614762565b61309b9190614634565b90505b600181111561313b577f3031323334353637383961626364656600000000000000000000000000000000600f8616601081106130dd576130dc6144e1565b5b1a60f81b8282815181106130f4576130f36144e1565b5b60200101907effffffffffffffffffffffffffffffffffffffffffffffffffffffffffffff1916908160001a905350600485901c9450806131349061525c565b905061309e565b506000841461317f576040517f08c379a0000000000000000000000000000000000000000000000000000000008152600401613176906152d1565b60405180910390fd5b8091505092915050565b60006131aa8473ffffffffffffffffffffffffffffffffffffffff16613695565b15613303578373ffffffffffffffffffffffffffffffffffffffff1663150b7a026131d361213a565b8786866040518563ffffffff1660e01b81526004016131f59493929190615346565b6020604051808303816000875af192505050801561323157506040513d601f19601f8201168201806040525081019061322e91906153a7565b60015b6132b3573d8060008114613261576040519150601f19603f3d011682016040523d82523d6000602084013e613266565b606091505b5060008151036132ab576040517f08c379a00000000000000000000000000000000000000000000000000000000081526004016132a29061520b565b60405180910390fd5b805181602001fd5b63150b7a0260e01b7bffffffffffffffffffffffffffffffffffffffffffffffffffffffff1916817bffffffffffffffffffffffffffffffffffffffffffffffffffffffff191614915050613308565b600190505b949350505050565b60007f7965db0b000000000000000000000000000000000000000000000000000000007bffffffffffffffffffffffffffffffffffffffffffffffffffffffff1916827bffffffffffffffffffffffffffffffffffffffffffffffffffffffff191614806133835750613382826136b8565b5b9050919050565b505050565b600980549050600a600083815260200190815260200160002081905550600981908060018154018082558091505060019003906000526020600020016000909190919091505550565b600060016133e58461167b565b6133ef9190614d99565b90506000600860008481526020019081526020016000205490508181146134d4576000600760008673ffffffffffffffffffffffffffffffffffffffff1673ffffffffffffffffffffffffffffffffffffffff168152602001908152602001600020600084815260200190815260200160002054905080600760008773ffffffffffffffffffffffffffffffffffffffff1673ffffffffffffffffffffffffffffffffffffffff168152602001908152602001600020600084815260200190815260200160002081905550816008600083815260200190815260200160002081905550505b6008600084815260200190815260200160002060009055600760008573ffffffffffffffffffffffffffffffffffffffff1673ffffffffffffffffffffffffffffffffffffffff16815260200190815260200160002060008381526020019081526020016000206000905550505050565b600060016009805490506135599190614d99565b90506000600a6000848152602001908152602001600020549050600060098381548110613589576135886144e1565b5b9060005260206000200154905080600983815481106135ab576135aa6144e1565b5b906000526020600020018190555081600a600083815260200190815260200160002081905550600a60008581526020019081526020016000206000905560098054806135fa576135f96153d4565b5b6001900381819060005260206000200160009055905550505050565b60006136218361167b565b905081600760008573ffffffffffffffffffffffffffffffffffffffff1673ffffffffffffffffffffffffffffffffffffffff168152602001908152602001600020600083815260200190815260200160002081905550806008600084815260200190815260200160002081905550505050565b6000808273ffffffffffffffffffffffffffffffffffffffff163b119050919050565b60007f01ffc9a7000000000000000000000000000000000000000000000000000000007bffffffffffffffffffffffffffffffffffffffffffffffffffffffff1916827bffffffffffffffffffffffffffffffffffffffffffffffffffffffff1916149050919050565b82805461372e90614144565b90600052602060002090601f0160209004810192826137505760008555613797565b82601f1061376957805160ff1916838001178555613797565b82800160010185558215613797579182015b8281111561379657825182559160200191906001019061377b565b5b5090506137a49190613813565b5090565b6040518060400160405280600061ffff168152602001606081525090565b828054828255906000526020600020908101928215613802579160200282015b828111156138015782518255916020019190600101906137e6565b5b50905061380f9190613813565b5090565b5b8082111561382c576000816000905550600101613814565b5090565b6000604051905090565b600080fd5b600080fd5b6000819050919050565b61385781613844565b811461386257600080fd5b50565b6000813590506138748161384e565b92915050565b6000602082840312156138905761388f61383a565b5b600061389e84828501613865565b91505092915050565b6138b081613844565b82525050565b60006020820190506138cb60008301846138a7565b92915050565b60007fffffffff0000000000000000000000000000000000000000000000000000000082169050919050565b613906816138d1565b811461391157600080fd5b50565b600081359050613923816138fd565b92915050565b60006020828403121561393f5761393e61383a565b5b600061394d84828501613914565b91505092915050565b60008115159050919050565b61396b81613956565b82525050565b60006020820190506139866000830184613962565b92915050565b600081519050919050565b600082825260208201905092915050565b60005b838110156139c65780820151818401526020810190506139ab565b838111156139d5576000848401525b50505050565b6000601f19601f8301169050919050565b60006139f78261398c565b613a018185613997565b9350613a118185602086016139a8565b613a1a816139db565b840191505092915050565b60006020820190508181036000830152613a3f81846139ec565b905092915050565b600073ffffffffffffffffffffffffffffffffffffffff82169050919050565b6000613a7282613a47565b9050919050565b613a8281613a67565b82525050565b6000602082019050613a9d6000830184613a79565b92915050565b613aac81613a67565b8114613ab757600080fd5b50565b600081359050613ac981613aa3565b92915050565b60008060408385031215613ae657613ae561383a565b5b6000613af485828601613aba565b9250506020613b0585828601613865565b9150509250929050565b600080600060608486031215613b2857613b2761383a565b5b6000613b3686828701613aba565b9350506020613b4786828701613aba565b9250506040613b5886828701613865565b9150509250925092565b6000819050919050565b613b7581613b62565b8114613b8057600080fd5b50565b600081359050613b9281613b6c565b92915050565b600060208284031215613bae57613bad61383a565b5b6000613bbc84828501613b83565b91505092915050565b613bce81613b62565b82525050565b6000602082019050613be96000830184613bc5565b92915050565b60008060408385031215613c0657613c0561383a565b5b6000613c1485828601613b83565b9250506020613c2585828601613aba565b9150509250929050565b600060208284031215613c4557613c4461383a565b5b6000613c5384828501613aba565b91505092915050565b600081519050919050565b600082825260208201905092915050565b6000819050602082019050919050565b613c9181613844565b82525050565b6000613ca38383613c88565b60208301905092915050565b6000602082019050919050565b6000613cc782613c5c565b613cd18185613c67565b9350613cdc83613c78565b8060005b83811015613d0d578151613cf48882613c97565b9750613cff83613caf565b925050600181019050613ce0565b5085935050505092915050565b60006020820190508181036000830152613d348184613cbc565b905092915050565b600080fd5b600080fd5b7f4e487b7100000000000000000000000000000000000000000000000000000000600052604160045260246000fd5b613d7e826139db565b810181811067ffffffffffffffff82111715613d9d57613d9c613d46565b5b80604052505050565b6000613db0613830565b9050613dbc8282613d75565b919050565b600067ffffffffffffffff821115613ddc57613ddb613d46565b5b613de5826139db565b9050602081019050919050565b82818337600083830152505050565b6000613e14613e0f84613dc1565b613da6565b905082815260208101848484011115613e3057613e2f613d41565b5b613e3b848285613df2565b509392505050565b600082601f830112613e5857613e57613d3c565b5b8135613e68848260208601613e01565b91505092915050565b600060208284031215613e8757613e8661383a565b5b600082013567ffffffffffffffff811115613ea557613ea461383f565b5b613eb184828501613e43565b91505092915050565b613ec381613956565b8114613ece57600080fd5b50565b600081359050613ee081613eba565b92915050565b60008060408385031215613efd57613efc61383a565b5b6000613f0b85828601613aba565b9250506020613f1c85828601613ed1565b9150509250929050565b600067ffffffffffffffff821115613f4157613f40613d46565b5b613f4a826139db565b9050602081019050919050565b6000613f6a613f6584613f26565b613da6565b905082815260208101848484011115613f8657613f85613d41565b5b613f91848285613df2565b509392505050565b600082601f830112613fae57613fad613d3c565b5b8135613fbe848260208601613f57565b91505092915050565b60008060008060808587031215613fe157613fe061383a565b5b6000613fef87828801613aba565b945050602061400087828801613aba565b935050604061401187828801613865565b925050606085013567ffffffffffffffff8111156140325761403161383f565b5b61403e87828801613f99565b91505092959194509250565b600080604083850312156140615761406061383a565b5b600061406f85828601613aba565b925050602061408085828601613aba565b9150509250929050565b6000806000606084860312156140a3576140a261383a565b5b60006140b186828701613aba565b93505060206140c286828701613aba565b92505060406140d386828701613ed1565b9150509250925092565b600061ffff82169050919050565b6140f4816140dd565b82525050565b600060208201905061410f60008301846140eb565b92915050565b7f4e487b7100000000000000000000000000000000000000000000000000000000600052602260045260246000fd5b6000600282049050600182168061415c57607f821691505b60208210810361416f5761416e614115565b5b50919050565b7f4552433732313a20617070726f76656420717565727920666f72206e6f6e657860008201527f697374656e7420746f6b656e0000000000000000000000000000000000000000602082015250565b60006141d1602c83613997565b91506141dc82614175565b604082019050919050565b60006020820190508181036000830152614200816141c4565b9050919050565b7f4552433732313a20617070726f76616c20746f2063757272656e74206f776e6560008201527f7200000000000000000000000000000000000000000000000000000000000000602082015250565b6000614263602183613997565b915061426e82614207565b604082019050919050565b6000602082019050818103600083015261429281614256565b9050919050565b7f4552433732313a20617070726f76652063616c6c6572206973206e6f74206f7760008201527f6e6572206e6f7220617070726f76656420666f7220616c6c0000000000000000602082015250565b60006142f5603883613997565b915061430082614299565b604082019050919050565b60006020820190508181036000830152614324816142e8565b9050919050565b7f4552433732313a207472616e736665722063616c6c6572206973206e6f74206f60008201527f776e6572206e6f7220617070726f766564000000000000000000000000000000602082015250565b6000614387603183613997565b91506143928261432b565b604082019050919050565b600060208201905081810360008301526143b68161437a565b9050919050565b7f455243373231456e756d657261626c653a206f776e657220696e646578206f7560008201527f74206f6620626f756e6473000000000000000000000000000000000000000000602082015250565b6000614419602b83613997565b9150614424826143bd565b604082019050919050565b600060208201905081810360008301526144488161440c565b9050919050565b7f416363657373436f6e74726f6c3a2063616e206f6e6c792072656e6f756e636560008201527f20726f6c657320666f722073656c660000000000000000000000000000000000602082015250565b60006144ab602f83613997565b91506144b68261444f565b604082019050919050565b600060208201905081810360008301526144da8161449e565b9050919050565b7f4e487b7100000000000000000000000000000000000000000000000000000000600052603260045260246000fd5b7f4e487b7100000000000000000000000000000000000000000000000000000000600052601160045260246000fd5b600061454a82613844565b91507fffffffffffffffffffffffffffffffffffffffffffffffffffffffffffffffff820361457c5761457b614510565b5b600182019050919050565b6000819050919050565b6145a261459d82613844565b614587565b82525050565b60006145b48285614591565b6020820191506145c48284614591565b6020820191508190509392505050565b7f4e487b7100000000000000000000000000000000000000000000000000000000600052601260045260246000fd5b600061460e82613844565b915061461983613844565b925082614629576146286145d4565b5b828206905092915050565b600061463f82613844565b915061464a83613844565b9250827fffffffffffffffffffffffffffffffffffffffffffffffffffffffffffffffff0382111561467f5761467e614510565b5b828201905092915050565b7f706c6179657220616e6420746f6b656e206e6f74206d61746368656400000000600082015250565b60006146c0601c83613997565b91506146cb8261468a565b602082019050919050565b600060208201905081810360008301526146ef816146b3565b9050919050565b7f64696720636f756e74206e6f7420656e6f756768000000000000000000000000600082015250565b600061472c601483613997565b9150614737826146f6565b602082019050919050565b6000602082019050818103600083015261475b8161471f565b9050919050565b600061476d82613844565b915061477883613844565b9250817fffffffffffffffffffffffffffffffffffffffffffffffffffffffffffffffff04831182151516156147b1576147b0614510565b5b828202905092915050565b60006040820190506147d16000830185613a79565b6147de60208301846138a7565b9392505050565b60006040820190506147fa6000830185613962565b61480760208301846138a7565b9392505050565b7f455243373231456e756d657261626c653a20676c6f62616c20696e646578206f60008201527f7574206f6620626f756e64730000000000000000000000000000000000000000602082015250565b600061486a602c83613997565b91506148758261480e565b604082019050919050565b600060208201905081810360008301526148998161485d565b9050919050565b7f4552433732313a206f776e657220717565727920666f72206e6f6e657869737460008201527f656e7420746f6b656e0000000000000000000000000000000000000000000000602082015250565b60006148fc602983613997565b9150614907826148a0565b604082019050919050565b6000602082019050818103600083015261492b816148ef565b9050919050565b7f4552433732313a2062616c616e636520717565727920666f7220746865207a6560008201527f726f206164647265737300000000000000000000000000000000000000000000602082015250565b600061498e602a83613997565b915061499982614932565b604082019050919050565b600060208201905081810360008301526149bd81614981565b9050919050565b7f53616c6520776f756c6420657863656564206d617820737570706c7900000000600082015250565b60006149fa601c83613997565b9150614a05826149c4565b602082019050919050565b60006020820190508181036000830152614a29816149ed565b9050919050565b7f53616c65206d7573742062652061637469766520746f206d696e7420446f757960008201527f614d657461730000000000000000000000000000000000000000000000000000602082015250565b6000614a8c602683613997565b9150614a9782614a30565b604082019050919050565b60006020820190508181036000830152614abb81614a7f565b9050919050565b7f53616c6520776f756c6420657863656564206d61782062616c616e6365000000600082015250565b6000614af8601d83613997565b9150614b0382614ac2565b602082019050919050565b60006020820190508181036000830152614b2781614aeb565b9050919050565b7f4e6f7420656e6f7567682065746865722073656e740000000000000000000000600082015250565b6000614b64601583613997565b9150614b6f82614b2e565b602082019050919050565b60006020820190508181036000830152614b9381614b57565b9050919050565b7f43616e206f6e6c79206d696e74203120746f6b656e7320617420612074696d65600082015250565b6000614bd0602083613997565b9150614bdb82614b9a565b602082019050919050565b60006020820190508181036000830152614bff81614bc3565b9050919050565b7f4552433732314d657461646174613a2055524920717565727920666f72206e6f60008201527f6e6578697374656e7420746f6b656e0000000000000000000000000000000000602082015250565b6000614c62602f83613997565b9150614c6d82614c06565b604082019050919050565b60006020820190508181036000830152614c9181614c55565b9050919050565b600081905092915050565b6000614cae8261398c565b614cb88185614c98565b9350614cc88185602086016139a8565b80840191505092915050565b60008190508160005260206000209050919050565b60008154614cf681614144565b614d008186614c98565b94506001821660008114614d1b5760018114614d2c57614d5f565b60ff19831686528186019350614d5f565b614d3585614cd4565b60005b83811015614d5757815481890152600182019150602081019050614d38565b838801955050505b50505092915050565b6000614d748286614ca3565b9150614d808285614ca3565b9150614d8c8284614ce9565b9150819050949350505050565b6000614da482613844565b9150614daf83613844565b925082821015614dc257614dc1614510565b5b828203905092915050565b7f4552433732313a206f70657261746f7220717565727920666f72206e6f6e657860008201527f697374656e7420746f6b656e0000000000000000000000000000000000000000602082015250565b6000614e29602c83613997565b9150614e3482614dcd565b604082019050919050565b60006020820190508181036000830152614e5881614e1c565b9050919050565b7f4552433732313a207472616e736665722066726f6d20696e636f72726563742060008201527f6f776e6572000000000000000000000000000000000000000000000000000000602082015250565b6000614ebb602583613997565b9150614ec682614e5f565b604082019050919050565b60006020820190508181036000830152614eea81614eae565b9050919050565b7f4552433732313a207472616e7366657220746f20746865207a65726f2061646460008201527f7265737300000000000000000000000000000000000000000000000000000000602082015250565b6000614f4d602483613997565b9150614f5882614ef1565b604082019050919050565b60006020820190508181036000830152614f7c81614f40565b9050919050565b7f416363657373436f6e74726f6c3a206163636f756e7420000000000000000000600082015250565b6000614fb9601783614c98565b9150614fc482614f83565b601782019050919050565b7f206973206d697373696e6720726f6c6520000000000000000000000000000000600082015250565b6000615005601183614c98565b915061501082614fcf565b601182019050919050565b600061502682614fac565b91506150328285614ca3565b915061503d82614ff8565b91506150498284614ca3565b91508190509392505050565b7f4552433732313a20617070726f766520746f2063616c6c657200000000000000600082015250565b600061508b601983613997565b915061509682615055565b602082019050919050565b600060208201905081810360008301526150ba8161507e565b9050919050565b7f4552433732313a206d696e7420746f20746865207a65726f2061646472657373600082015250565b60006150f7602083613997565b9150615102826150c1565b602082019050919050565b60006020820190508181036000830152615126816150ea565b9050919050565b7f4552433732313a20746f6b656e20616c7265616479206d696e74656400000000600082015250565b6000615163601c83613997565b915061516e8261512d565b602082019050919050565b6000602082019050818103600083015261519281615156565b9050919050565b7f4552433732313a207472616e7366657220746f206e6f6e20455243373231526560008201527f63656976657220696d706c656d656e7465720000000000000000000000000000602082015250565b60006151f5603283613997565b915061520082615199565b604082019050919050565b60006020820190508181036000830152615224816151e8565b9050919050565b600061523682613844565b915061524183613844565b925082615251576152506145d4565b5b828204905092915050565b600061526782613844565b91506000820361527a57615279614510565b5b600182039050919050565b7f537472696e67733a20686578206c656e67746820696e73756666696369656e74600082015250565b60006152bb602083613997565b91506152c682615285565b602082019050919050565b600060208201905081810360008301526152ea816152ae565b9050919050565b600081519050919050565b600082825260208201905092915050565b6000615318826152f1565b61532281856152fc565b93506153328185602086016139a8565b61533b816139db565b840191505092915050565b600060808201905061535b6000830187613a79565b6153686020830186613a79565b61537560408301856138a7565b8181036060830152615387818461530d565b905095945050505050565b6000815190506153a1816138fd565b92915050565b6000602082840312156153bd576153bc61383a565b5b60006153cb84828501615392565b91505092915050565b7f4e487b7100000000000000000000000000000000000000000000000000000000600052603160045260246000fdfea26469706673582212202acee7b97eb2ed9b5d146d8d2d353f51c73449c94b1afb280abba1b87b402a5a64736f6c634300080d0033",
  "immutableReferences": {},
  "source": "// SPDX-License-Identifier: MIT\r\n\r\npragma solidity ^0.8.13;\r\n\r\nimport \"@openzeppelin/contracts/token/ERC721/extensions/ERC721Enumerable.sol\";\r\nimport \"@openzeppelin/contracts/utils/Counters.sol\";\r\nimport \"@openzeppelin/contracts/access/AccessControl.sol\";\r\nimport \"@openzeppelin/contracts/utils/Strings.sol\";\r\nimport \"./Douya.sol\";\r\n\r\ncontract DouyaNFT is AccessControl, ERC721Enumerable {\r\n    using Counters for Counters.Counter;\r\n    using Strings for uint256;\r\n    Counters.Counter private _tokenIds;\r\n\r\n    // import douya coin\r\n    Douya private _douya;\r\n\r\n    bool public _isSaleActive = false;\r\n    bool public _revealed = false;\r\n\r\n    bytes32 public constant MINTER_ROLE = keccak256(\"MINTER_ROLE\");\r\n\r\n    // Constants\r\n    uint256 public constant MAX_SUPPLY = 50;\r\n    uint256 public mintPrice = 0.03 ether;\r\n    uint256 public maxBalance = 5;\r\n    uint256 public maxMint = 1;\r\n\r\n    string baseURI;\r\n    string public notRevealedUri;\r\n    string public baseExtension = \".png\";\r\n\r\n    struct Prop {\r\n        uint16 power; // power\r\n        uint256[] digTime; // mining timestamp\r\n    }\r\n\r\n    mapping(uint256 => Prop) public props;\r\n\r\n    constructor(address douyacoin) ERC721(\"DouyaNFT\", \"DOUN\") {\r\n        _douya = Douya(douyacoin);\r\n        _grantRole(DEFAULT_ADMIN_ROLE, msg.sender);\r\n        _grantRole(MINTER_ROLE, msg.sender);\r\n    }\r\n\r\n    function tokenIds() public view returns (uint256) {\r\n        return _tokenIds.current();\r\n    }\r\n\r\n    event Dig(bool successed, uint256 amount);\r\n\r\n    function mintDouyaNFT()\r\n        public\r\n        payable\r\n        returns (uint256)\r\n    {\r\n        require(\r\n            totalSupply() + 1 <= MAX_SUPPLY,\r\n            \"Sale would exceed max supply\"\r\n        );\r\n        require(_isSaleActive, \"Sale must be active to mint DouyaMetas\");\r\n        require(\r\n            balanceOf(msg.sender) + 1 <= maxBalance,\r\n            \"Sale would exceed max balance\"\r\n        );\r\n        require(1 * mintPrice <= msg.value, \"Not enough ether sent\");\r\n        require(1 <= maxMint, \"Can only mint 1 tokens at a time\");\r\n\r\n        _tokenIds.increment();\r\n        uint256 newItemId = _tokenIds.current();\r\n        if (totalSupply() < MAX_SUPPLY) {\r\n            Prop memory i;\r\n            i.power = uint16(rand());\r\n            props[newItemId] = i;\r\n            _mint(msg.sender, newItemId);\r\n            // _setTokenURI(newItemId, tokenURI);\r\n            return newItemId;\r\n        }\r\n        return 0;\r\n    }\r\n\r\n    function setBaseURI(string memory _newBaseURI)\r\n        public\r\n        onlyRole(MINTER_ROLE)\r\n    {\r\n        baseURI = _newBaseURI;\r\n    }\r\n\r\n    function _baseURI() internal view virtual override returns (string memory) {\r\n        return baseURI;\r\n    }\r\n\r\n    function setBaseExtension(string memory _newBaseExtension)\r\n        public\r\n        onlyRole(MINTER_ROLE)\r\n    {\r\n        baseExtension = _newBaseExtension;\r\n    }\r\n\r\n    function setNotRevealedURI(string memory _notRevealedURI)\r\n        public\r\n        onlyRole(MINTER_ROLE)\r\n    {\r\n        notRevealedUri = _notRevealedURI;\r\n    }\r\n\r\n    function tokenURI(uint256 tokenId)\r\n        public\r\n        view\r\n        virtual\r\n        override\r\n        returns (string memory)\r\n    {\r\n        require(\r\n            _exists(tokenId),\r\n            \"ERC721Metadata: URI query for nonexistent token\"\r\n        );\r\n\r\n        if (_revealed == false) {\r\n            return notRevealedUri;\r\n        }\r\n\r\n        // string memory _tokenURI = _tokenURIs[tokenId];\r\n        string memory base = _baseURI();\r\n\r\n        // If there is no base URI, return the token URI.\r\n        if (bytes(base).length == 0) {\r\n            return \"0\";\r\n        }\r\n\r\n        // If there is a baseURI but no tokenURI, concatenate the tokenID to the baseURI.\r\n        return\r\n            string(abi.encodePacked(base, tokenId.toString(), baseExtension));\r\n    }\r\n\r\n    function setRole(address addr) public onlyRole(DEFAULT_ADMIN_ROLE) {\r\n        _grantRole(MINTER_ROLE, addr);\r\n    }\r\n\r\n    function setMoveNft(\r\n        address owner,\r\n        address addr,\r\n        bool b\r\n    ) public onlyRole(MINTER_ROLE) {\r\n        _setApprovalForAll(owner, addr, b); //allow market contract transfer NFT\r\n    }\r\n\r\n    function supportsInterface(bytes4 interfaceId)\r\n        public\r\n        view\r\n        override(ERC721Enumerable, AccessControl)\r\n        returns (bool)\r\n    {\r\n        return super.supportsInterface(interfaceId);\r\n    }\r\n\r\n    function flipSaleActive() public onlyRole(DEFAULT_ADMIN_ROLE) {\r\n        _isSaleActive = !_isSaleActive;\r\n    }\r\n\r\n    function flipReveal() public onlyRole(DEFAULT_ADMIN_ROLE) {\r\n        _revealed = !_revealed;\r\n    }\r\n\r\n    function getByOwner(address _owner)\r\n        external\r\n        view\r\n        returns (uint256[] memory)\r\n    {\r\n        uint256[] memory result = new uint256[](balanceOf(_owner));\r\n        uint256 counter = 0;\r\n        for (uint256 i = 1; i <= _tokenIds.current(); i++) {\r\n            if (ownerOf(i) == _owner) {\r\n                result[counter] = i;\r\n                counter++;\r\n            }\r\n        }\r\n        return result;\r\n    }\r\n\r\n    function getPower(uint256 tokenId) public view returns (uint256) {\r\n        return props[tokenId].power;\r\n    }\r\n\r\n    //mining operation\r\n    function dig(address player, uint256 tokenId) public {\r\n        require(ownerOf(tokenId) == player, \"player and token not matched\");\r\n        require(digAlow(tokenId), \"dig count not enough\");\r\n        props[tokenId].digTime.push(block.timestamp); // record mining timestamp\r\n\r\n        // detemine how many douyacoin will be dig according to power value\r\n        uint256 power = props[tokenId].power;\r\n\r\n        uint256 random = (uint256(\r\n            keccak256(abi.encodePacked(block.difficulty, block.timestamp))\r\n        ) % 100) + 1;\r\n\r\n        uint256 amount = power * random;\r\n\r\n        _douya.mint(msg.sender, amount * 10**15);\r\n\r\n        emit Dig(true, amount * 10**15);\r\n    }\r\n\r\n    // check allow to mining\r\n    function digAlow(uint256 _tokenId) public view returns (bool) {\r\n        // only can mining once in 24 hours\r\n        uint256 start = block.timestamp - 86400;\r\n        uint256 end = block.timestamp;\r\n        uint256 counter = 0;\r\n        for (uint256 i = 0; i < props[_tokenId].digTime.length; i++) {\r\n            if (\r\n                props[_tokenId].digTime[i] > start &&\r\n                props[_tokenId].digTime[i] < end\r\n            ) {\r\n                counter++;\r\n            }\r\n        }\r\n        if (counter >= 1) {\r\n            return false;\r\n        }\r\n        return true;\r\n    }\r\n\r\n    // 1-100 random number\r\n    function rand() public view returns (uint256) {\r\n        uint256 random = uint256(\r\n            keccak256(abi.encodePacked(block.difficulty, block.timestamp))\r\n        );\r\n        return (random % 100) + 1;\r\n    }\r\n\r\n    function withdraw(address to) public onlyRole(MINTER_ROLE) {\r\n        uint256 balance = address(this).balance;\r\n        payable(to).transfer(balance);\r\n    }\r\n}\r\n",
  "sourcePath": "E:/Douya_Coin_NFT/contracts/DouyaNFT.sol",
  "compiler": {
    "name": "solc",
    "version": "0.8.13+commit.abaa5c0e.Emscripten.clang"
  },
  "schemaVersion": "3.3.4",
  "updatedAt": "2022-03-24T17:49:23.804Z",
  "networkType": "ethereum",
  "devdoc": {
    "kind": "dev",
    "methods": {
      "approve(address,uint256)": {
        "details": "See {IERC721-approve}."
      },
      "balanceOf(address)": {
        "details": "See {IERC721-balanceOf}."
      },
      "getApproved(uint256)": {
        "details": "See {IERC721-getApproved}."
      },
      "getRoleAdmin(bytes32)": {
        "details": "Returns the admin role that controls `role`. See {grantRole} and {revokeRole}. To change a role's admin, use {_setRoleAdmin}."
      },
      "grantRole(bytes32,address)": {
        "details": "Grants `role` to `account`. If `account` had not been already granted `role`, emits a {RoleGranted} event. Requirements: - the caller must have ``role``'s admin role."
      },
      "hasRole(bytes32,address)": {
        "details": "Returns `true` if `account` has been granted `role`."
      },
      "isApprovedForAll(address,address)": {
        "details": "See {IERC721-isApprovedForAll}."
      },
      "name()": {
        "details": "See {IERC721Metadata-name}."
      },
      "ownerOf(uint256)": {
        "details": "See {IERC721-ownerOf}."
      },
      "renounceRole(bytes32,address)": {
        "details": "Revokes `role` from the calling account. Roles are often managed via {grantRole} and {revokeRole}: this function's purpose is to provide a mechanism for accounts to lose their privileges if they are compromised (such as when a trusted device is misplaced). If the calling account had been revoked `role`, emits a {RoleRevoked} event. Requirements: - the caller must be `account`."
      },
      "revokeRole(bytes32,address)": {
        "details": "Revokes `role` from `account`. If `account` had been granted `role`, emits a {RoleRevoked} event. Requirements: - the caller must have ``role``'s admin role."
      },
      "safeTransferFrom(address,address,uint256)": {
        "details": "See {IERC721-safeTransferFrom}."
      },
      "safeTransferFrom(address,address,uint256,bytes)": {
        "details": "See {IERC721-safeTransferFrom}."
      },
      "setApprovalForAll(address,bool)": {
        "details": "See {IERC721-setApprovalForAll}."
      },
      "symbol()": {
        "details": "See {IERC721Metadata-symbol}."
      },
      "tokenByIndex(uint256)": {
        "details": "See {IERC721Enumerable-tokenByIndex}."
      },
      "tokenOfOwnerByIndex(address,uint256)": {
        "details": "See {IERC721Enumerable-tokenOfOwnerByIndex}."
      },
      "tokenURI(uint256)": {
        "details": "See {IERC721Metadata-tokenURI}."
      },
      "totalSupply()": {
        "details": "See {IERC721Enumerable-totalSupply}."
      },
      "transferFrom(address,address,uint256)": {
        "details": "See {IERC721-transferFrom}."
      }
    },
    "version": 1
  },
  "userdoc": {
    "kind": "user",
    "methods": {},
    "version": 1
  }
}