{
  "contractName": "DouyaNFT",
  "abi": [
    {
      "inputs": [
        {
          "internalType": "address",
          "name": "douyacoin",
          "type": "address"
        }
      ],
      "stateMutability": "nonpayable",
      "type": "constructor"
    },
    {
      "anonymous": false,
      "inputs": [
        {
          "indexed": true,
          "internalType": "address",
          "name": "owner",
          "type": "address"
        },
        {
          "indexed": true,
          "internalType": "address",
          "name": "approved",
          "type": "address"
        },
        {
          "indexed": true,
          "internalType": "uint256",
          "name": "tokenId",
          "type": "uint256"
        }
      ],
      "name": "Approval",
      "type": "event"
    },
    {
      "anonymous": false,
      "inputs": [
        {
          "indexed": true,
          "internalType": "address",
          "name": "owner",
          "type": "address"
        },
        {
          "indexed": true,
          "internalType": "address",
          "name": "operator",
          "type": "address"
        },
        {
          "indexed": false,
          "internalType": "bool",
          "name": "approved",
          "type": "bool"
        }
      ],
      "name": "ApprovalForAll",
      "type": "event"
    },
    {
      "anonymous": false,
      "inputs": [
        {
          "indexed": false,
          "internalType": "bool",
          "name": "successed",
          "type": "bool"
        },
        {
          "indexed": false,
          "internalType": "uint256",
          "name": "amount",
          "type": "uint256"
        }
      ],
      "name": "Dig",
      "type": "event"
    },
    {
      "anonymous": false,
      "inputs": [
        {
          "indexed": true,
          "internalType": "bytes32",
          "name": "role",
          "type": "bytes32"
        },
        {
          "indexed": true,
          "internalType": "bytes32",
          "name": "previousAdminRole",
          "type": "bytes32"
        },
        {
          "indexed": true,
          "internalType": "bytes32",
          "name": "newAdminRole",
          "type": "bytes32"
        }
      ],
      "name": "RoleAdminChanged",
      "type": "event"
    },
    {
      "anonymous": false,
      "inputs": [
        {
          "indexed": true,
          "internalType": "bytes32",
          "name": "role",
          "type": "bytes32"
        },
        {
          "indexed": true,
          "internalType": "address",
          "name": "account",
          "type": "address"
        },
        {
          "indexed": true,
          "internalType": "address",
          "name": "sender",
          "type": "address"
        }
      ],
      "name": "RoleGranted",
      "type": "event"
    },
    {
      "anonymous": false,
      "inputs": [
        {
          "indexed": true,
          "internalType": "bytes32",
          "name": "role",
          "type": "bytes32"
        },
        {
          "indexed": true,
          "internalType": "address",
          "name": "account",
          "type": "address"
        },
        {
          "indexed": true,
          "internalType": "address",
          "name": "sender",
          "type": "address"
        }
      ],
      "name": "RoleRevoked",
      "type": "event"
    },
    {
      "anonymous": false,
      "inputs": [
        {
          "indexed": true,
          "internalType": "address",
          "name": "from",
          "type": "address"
        },
        {
          "indexed": true,
          "internalType": "address",
          "name": "to",
          "type": "address"
        },
        {
          "indexed": true,
          "internalType": "uint256",
          "name": "tokenId",
          "type": "uint256"
        }
      ],
      "name": "Transfer",
      "type": "event"
    },
    {
      "inputs": [],
      "name": "DEFAULT_ADMIN_ROLE",
      "outputs": [
        {
          "internalType": "bytes32",
          "name": "",
          "type": "bytes32"
        }
      ],
      "stateMutability": "view",
      "type": "function",
      "constant": true
    },
    {
      "inputs": [],
      "name": "MAX_SUPPLY",
      "outputs": [
        {
          "internalType": "uint256",
          "name": "",
          "type": "uint256"
        }
      ],
      "stateMutability": "view",
      "type": "function",
      "constant": true
    },
    {
      "inputs": [],
      "name": "MINTER_ROLE",
      "outputs": [
        {
          "internalType": "bytes32",
          "name": "",
          "type": "bytes32"
        }
      ],
      "stateMutability": "view",
      "type": "function",
      "constant": true
    },
    {
      "inputs": [],
      "name": "_isSaleActive",
      "outputs": [
        {
          "internalType": "bool",
          "name": "",
          "type": "bool"
        }
      ],
      "stateMutability": "view",
      "type": "function",
      "constant": true
    },
    {
      "inputs": [],
      "name": "_revealed",
      "outputs": [
        {
          "internalType": "bool",
          "name": "",
          "type": "bool"
        }
      ],
      "stateMutability": "view",
      "type": "function",
      "constant": true
    },
    {
      "inputs": [
        {
          "internalType": "address",
          "name": "to",
          "type": "address"
        },
        {
          "internalType": "uint256",
          "name": "tokenId",
          "type": "uint256"
        }
      ],
      "name": "approve",
      "outputs": [],
      "stateMutability": "nonpayable",
      "type": "function"
    },
    {
      "inputs": [
        {
          "internalType": "address",
          "name": "owner",
          "type": "address"
        }
      ],
      "name": "balanceOf",
      "outputs": [
        {
          "internalType": "uint256",
          "name": "",
          "type": "uint256"
        }
      ],
      "stateMutability": "view",
      "type": "function",
      "constant": true
    },
    {
      "inputs": [],
      "name": "baseExtension",
      "outputs": [
        {
          "internalType": "string",
          "name": "",
          "type": "string"
        }
      ],
      "stateMutability": "view",
      "type": "function",
      "constant": true
    },
    {
      "inputs": [
        {
          "internalType": "uint256",
          "name": "tokenId",
          "type": "uint256"
        }
      ],
      "name": "getApproved",
      "outputs": [
        {
          "internalType": "address",
          "name": "",
          "type": "address"
        }
      ],
      "stateMutability": "view",
      "type": "function",
      "constant": true
    },
    {
      "inputs": [
        {
          "internalType": "bytes32",
          "name": "role",
          "type": "bytes32"
        }
      ],
      "name": "getRoleAdmin",
      "outputs": [
        {
          "internalType": "bytes32",
          "name": "",
          "type": "bytes32"
        }
      ],
      "stateMutability": "view",
      "type": "function",
      "constant": true
    },
    {
      "inputs": [
        {
          "internalType": "bytes32",
          "name": "role",
          "type": "bytes32"
        },
        {
          "internalType": "address",
          "name": "account",
          "type": "address"
        }
      ],
      "name": "grantRole",
      "outputs": [],
      "stateMutability": "nonpayable",
      "type": "function"
    },
    {
      "inputs": [
        {
          "internalType": "bytes32",
          "name": "role",
          "type": "bytes32"
        },
        {
          "internalType": "address",
          "name": "account",
          "type": "address"
        }
      ],
      "name": "hasRole",
      "outputs": [
        {
          "internalType": "bool",
          "name": "",
          "type": "bool"
        }
      ],
      "stateMutability": "view",
      "type": "function",
      "constant": true
    },
    {
      "inputs": [
        {
          "internalType": "address",
          "name": "owner",
          "type": "address"
        },
        {
          "internalType": "address",
          "name": "operator",
          "type": "address"
        }
      ],
      "name": "isApprovedForAll",
      "outputs": [
        {
          "internalType": "bool",
          "name": "",
          "type": "bool"
        }
      ],
      "stateMutability": "view",
      "type": "function",
      "constant": true
    },
    {
      "inputs": [],
      "name": "maxBalance",
      "outputs": [
        {
          "internalType": "uint256",
          "name": "",
          "type": "uint256"
        }
      ],
      "stateMutability": "view",
      "type": "function",
      "constant": true
    },
    {
      "inputs": [],
      "name": "maxMint",
      "outputs": [
        {
          "internalType": "uint256",
          "name": "",
          "type": "uint256"
        }
      ],
      "stateMutability": "view",
      "type": "function",
      "constant": true
    },
    {
      "inputs": [],
      "name": "mintPrice",
      "outputs": [
        {
          "internalType": "uint256",
          "name": "",
          "type": "uint256"
        }
      ],
      "stateMutability": "view",
      "type": "function",
      "constant": true
    },
    {
      "inputs": [],
      "name": "name",
      "outputs": [
        {
          "internalType": "string",
          "name": "",
          "type": "string"
        }
      ],
      "stateMutability": "view",
      "type": "function",
      "constant": true
    },
    {
      "inputs": [],
      "name": "notRevealedUri",
      "outputs": [
        {
          "internalType": "string",
          "name": "",
          "type": "string"
        }
      ],
      "stateMutability": "view",
      "type": "function",
      "constant": true
    },
    {
      "inputs": [
        {
          "internalType": "uint256",
          "name": "tokenId",
          "type": "uint256"
        }
      ],
      "name": "ownerOf",
      "outputs": [
        {
          "internalType": "address",
          "name": "",
          "type": "address"
        }
      ],
      "stateMutability": "view",
      "type": "function",
      "constant": true
    },
    {
      "inputs": [
        {
          "internalType": "uint256",
          "name": "",
          "type": "uint256"
        }
      ],
      "name": "props",
      "outputs": [
        {
          "internalType": "uint16",
          "name": "power",
          "type": "uint16"
        }
      ],
      "stateMutability": "view",
      "type": "function",
      "constant": true
    },
    {
      "inputs": [
        {
          "internalType": "bytes32",
          "name": "role",
          "type": "bytes32"
        },
        {
          "internalType": "address",
          "name": "account",
          "type": "address"
        }
      ],
      "name": "renounceRole",
      "outputs": [],
      "stateMutability": "nonpayable",
      "type": "function"
    },
    {
      "inputs": [
        {
          "internalType": "bytes32",
          "name": "role",
          "type": "bytes32"
        },
        {
          "internalType": "address",
          "name": "account",
          "type": "address"
        }
      ],
      "name": "revokeRole",
      "outputs": [],
      "stateMutability": "nonpayable",
      "type": "function"
    },
    {
      "inputs": [
        {
          "internalType": "address",
          "name": "from",
          "type": "address"
        },
        {
          "internalType": "address",
          "name": "to",
          "type": "address"
        },
        {
          "internalType": "uint256",
          "name": "tokenId",
          "type": "uint256"
        }
      ],
      "name": "safeTransferFrom",
      "outputs": [],
      "stateMutability": "nonpayable",
      "type": "function"
    },
    {
      "inputs": [
        {
          "internalType": "address",
          "name": "from",
          "type": "address"
        },
        {
          "internalType": "address",
          "name": "to",
          "type": "address"
        },
        {
          "internalType": "uint256",
          "name": "tokenId",
          "type": "uint256"
        },
        {
          "internalType": "bytes",
          "name": "_data",
          "type": "bytes"
        }
      ],
      "name": "safeTransferFrom",
      "outputs": [],
      "stateMutability": "nonpayable",
      "type": "function"
    },
    {
      "inputs": [
        {
          "internalType": "address",
          "name": "operator",
          "type": "address"
        },
        {
          "internalType": "bool",
          "name": "approved",
          "type": "bool"
        }
      ],
      "name": "setApprovalForAll",
      "outputs": [],
      "stateMutability": "nonpayable",
      "type": "function"
    },
    {
      "inputs": [],
      "name": "symbol",
      "outputs": [
        {
          "internalType": "string",
          "name": "",
          "type": "string"
        }
      ],
      "stateMutability": "view",
      "type": "function",
      "constant": true
    },
    {
      "inputs": [
        {
          "internalType": "uint256",
          "name": "index",
          "type": "uint256"
        }
      ],
      "name": "tokenByIndex",
      "outputs": [
        {
          "internalType": "uint256",
          "name": "",
          "type": "uint256"
        }
      ],
      "stateMutability": "view",
      "type": "function",
      "constant": true
    },
    {
      "inputs": [
        {
          "internalType": "address",
          "name": "owner",
          "type": "address"
        },
        {
          "internalType": "uint256",
          "name": "index",
          "type": "uint256"
        }
      ],
      "name": "tokenOfOwnerByIndex",
      "outputs": [
        {
          "internalType": "uint256",
          "name": "",
          "type": "uint256"
        }
      ],
      "stateMutability": "view",
      "type": "function",
      "constant": true
    },
    {
      "inputs": [],
      "name": "totalSupply",
      "outputs": [
        {
          "internalType": "uint256",
          "name": "",
          "type": "uint256"
        }
      ],
      "stateMutability": "view",
      "type": "function",
      "constant": true
    },
    {
      "inputs": [
        {
          "internalType": "address",
          "name": "from",
          "type": "address"
        },
        {
          "internalType": "address",
          "name": "to",
          "type": "address"
        },
        {
          "internalType": "uint256",
          "name": "tokenId",
          "type": "uint256"
        }
      ],
      "name": "transferFrom",
      "outputs": [],
      "stateMutability": "nonpayable",
      "type": "function"
    },
    {
      "inputs": [],
      "name": "tokenIds",
      "outputs": [
        {
          "internalType": "uint256",
          "name": "",
          "type": "uint256"
        }
      ],
      "stateMutability": "view",
      "type": "function",
      "constant": true
    },
    {
      "inputs": [],
      "name": "mintDouyaNFT",
      "outputs": [
        {
          "internalType": "uint256",
          "name": "",
          "type": "uint256"
        }
      ],
      "stateMutability": "payable",
      "type": "function",
      "payable": true
    },
    {
      "inputs": [
        {
          "internalType": "string",
          "name": "_newBaseURI",
          "type": "string"
        }
      ],
      "name": "setBaseURI",
      "outputs": [],
      "stateMutability": "nonpayable",
      "type": "function"
    },
    {
      "inputs": [
        {
          "internalType": "string",
          "name": "_newBaseExtension",
          "type": "string"
        }
      ],
      "name": "setBaseExtension",
      "outputs": [],
      "stateMutability": "nonpayable",
      "type": "function"
    },
    {
      "inputs": [
        {
          "internalType": "string",
          "name": "_notRevealedURI",
          "type": "string"
        }
      ],
      "name": "setNotRevealedURI",
      "outputs": [],
      "stateMutability": "nonpayable",
      "type": "function"
    },
    {
      "inputs": [
        {
          "internalType": "uint256",
          "name": "tokenId",
          "type": "uint256"
        }
      ],
      "name": "tokenURI",
      "outputs": [
        {
          "internalType": "string",
          "name": "",
          "type": "string"
        }
      ],
      "stateMutability": "view",
      "type": "function",
      "constant": true
    },
    {
      "inputs": [
        {
          "internalType": "address",
          "name": "addr",
          "type": "address"
        }
      ],
      "name": "setRole",
      "outputs": [],
      "stateMutability": "nonpayable",
      "type": "function"
    },
    {
      "inputs": [
        {
          "internalType": "address",
          "name": "owner",
          "type": "address"
        },
        {
          "internalType": "address",
          "name": "addr",
          "type": "address"
        },
        {
          "internalType": "bool",
          "name": "b",
          "type": "bool"
        }
      ],
      "name": "setMoveNft",
      "outputs": [],
      "stateMutability": "nonpayable",
      "type": "function"
    },
    {
      "inputs": [
        {
          "internalType": "bytes4",
          "name": "interfaceId",
          "type": "bytes4"
        }
      ],
      "name": "supportsInterface",
      "outputs": [
        {
          "internalType": "bool",
          "name": "",
          "type": "bool"
        }
      ],
      "stateMutability": "view",
      "type": "function",
      "constant": true
    },
    {
      "inputs": [],
      "name": "flipSaleActive",
      "outputs": [],
      "stateMutability": "nonpayable",
      "type": "function"
    },
    {
      "inputs": [],
      "name": "flipReveal",
      "outputs": [],
      "stateMutability": "nonpayable",
      "type": "function"
    },
    {
      "inputs": [
        {
          "internalType": "address",
          "name": "_owner",
          "type": "address"
        }
      ],
      "name": "getByOwner",
      "outputs": [
        {
          "internalType": "uint256[]",
          "name": "",
          "type": "uint256[]"
        }
      ],
      "stateMutability": "view",
      "type": "function",
      "constant": true
    },
    {
      "inputs": [
        {
          "internalType": "uint256",
          "name": "tokenId",
          "type": "uint256"
        }
      ],
      "name": "getPower",
      "outputs": [
        {
          "internalType": "uint256",
          "name": "",
          "type": "uint256"
        }
      ],
      "stateMutability": "view",
      "type": "function",
      "constant": true
    },
    {
      "inputs": [
        {
          "internalType": "address",
          "name": "player",
          "type": "address"
        },
        {
          "internalType": "uint256",
          "name": "tokenId",
          "type": "uint256"
        }
      ],
      "name": "dig",
      "outputs": [],
      "stateMutability": "nonpayable",
      "type": "function"
    },
    {
      "inputs": [
        {
          "internalType": "uint256",
          "name": "_tokenId",
          "type": "uint256"
        }
      ],
      "name": "digAlow",
      "outputs": [
        {
          "internalType": "bool",
          "name": "",
          "type": "bool"
        }
      ],
      "stateMutability": "view",
      "type": "function",
      "constant": true
    },
    {
      "inputs": [],
      "name": "rand",
      "outputs": [
        {
          "internalType": "uint256",
          "name": "",
          "type": "uint256"
        }
      ],
      "stateMutability": "view",
      "type": "function",
      "constant": true
    },
    {
      "inputs": [
        {
          "internalType": "address",
          "name": "to",
          "type": "address"
        }
      ],
      "name": "withdraw",
      "outputs": [],
      "stateMutability": "nonpayable",
      "type": "function"
    }
  ],
  "bytecode": "0x60806040526000600c60146101000a81548160ff0219169083151502179055506000600c60156101000a81548160ff021916908315150217905550666a94d74f430000600d556002600e556001600f556040518060400160405280600481526020017f2e706e6700000000000000000000000000000000000000000000000000000000815250601290805190602001906200009c92919062000362565b50348015620000aa57600080fd5b506040516200598e3803806200598e8339818101604052810190620000d091906200047c565b6040518060400160405280600881526020017f446f7579614e46540000000000000000000000000000000000000000000000008152506040518060400160405280600481526020017f444f554e0000000000000000000000000000000000000000000000000000000081525081600190805190602001906200015492919062000362565b5080600290805190602001906200016d92919062000362565b50505080600c60006101000a81548173ffffffffffffffffffffffffffffffffffffffff021916908373ffffffffffffffffffffffffffffffffffffffff160217905550620001c66000801b33620001ff60201b60201c565b620001f87f9f2df0fed2c77648de5860a4cc508cd0818c85b8b8a1ab4ceeef8d981c8956a633620001ff60201b60201c565b5062000512565b620002118282620002f060201b60201c565b620002ec57600160008084815260200190815260200160002060000160008373ffffffffffffffffffffffffffffffffffffffff1673ffffffffffffffffffffffffffffffffffffffff16815260200190815260200160002060006101000a81548160ff021916908315150217905550620002916200035a60201b60201c565b73ffffffffffffffffffffffffffffffffffffffff168173ffffffffffffffffffffffffffffffffffffffff16837f2f8788117e7eff1d82e926ec794901d17c78024a50270940304540a733656f0d60405160405180910390a45b5050565b600080600084815260200190815260200160002060000160008373ffffffffffffffffffffffffffffffffffffffff1673ffffffffffffffffffffffffffffffffffffffff16815260200190815260200160002060009054906101000a900460ff16905092915050565b600033905090565b8280546200037090620004dd565b90600052602060002090601f016020900481019282620003945760008555620003e0565b82601f10620003af57805160ff1916838001178555620003e0565b82800160010185558215620003e0579182015b82811115620003df578251825591602001919060010190620003c2565b5b509050620003ef9190620003f3565b5090565b5b808211156200040e576000816000905550600101620003f4565b5090565b600080fd5b600073ffffffffffffffffffffffffffffffffffffffff82169050919050565b6000620004448262000417565b9050919050565b620004568162000437565b81146200046257600080fd5b50565b60008151905062000476816200044b565b92915050565b60006020828403121562000495576200049462000412565b5b6000620004a58482850162000465565b91505092915050565b7f4e487b7100000000000000000000000000000000000000000000000000000000600052602260045260246000fd5b60006002820490506001821680620004f657607f821691505b6020821081036200050c576200050b620004ae565b5b50919050565b61546c80620005226000396000f3fe6080604052600436106102885760003560e01c80636817c76c1161015a578063b88d4fde116100c1578063da3ef23f1161007a578063da3ef23f14610a0f578063de8b51e114610a38578063e985e9c514610a4f578063f2c4ce1e14610a8c578063fb85d8dc14610ab5578063fda54c1614610ade57610288565b8063b88d4fde146108ed578063c668286214610916578063c87b56dd14610941578063cbcbf10d1461097e578063d5391393146109bb578063d547741f146109e657610288565b80637501f741116101135780637501f741146107e857806391d148541461081357806395d89b4114610850578063a217fddf1461087b578063a22cb465146108a6578063a5f101d6146108cf57610288565b80636817c76c146106d45780636ebeac85146106ff5780637080d6fc1461072a57806370a0823114610755578063714cff561461079257806373ad468a146107bd57610288565b806332cb6b0c116101fe57806342842e0e116101b757806342842e0e146105b65780634f6ccce7146105df57806351cff8d91461061c57806355f804b3146106455780635d0efc4d1461066e5780636352211e1461069757610288565b806332cb6b0c146104ba57806336568abe146104e5578063379c51311461050e5780633b3dca761461054b5780633b84d9c614610576578063412fc7461461058d57610288565b8063095ea7b311610250578063095ea7b31461039a57806318160ddd146103c357806323b872dd146103ee578063248a9ca3146104175780632f2ff15d146104545780632f745c591461047d57610288565b8063017fe8091461028d57806301ffc9a7146102ca57806306fdde0314610307578063081812fc14610332578063081c8c441461036f575b600080fd5b34801561029957600080fd5b506102b460048036038101906102af91906138ad565b610b1b565b6040516102c191906138e9565b60405180910390f35b3480156102d657600080fd5b506102f160048036038101906102ec919061395c565b610b4d565b6040516102fe91906139a4565b60405180910390f35b34801561031357600080fd5b5061031c610b5f565b6040516103299190613a58565b60405180910390f35b34801561033e57600080fd5b50610359600480360381019061035491906138ad565b610bf1565b6040516103669190613abb565b60405180910390f35b34801561037b57600080fd5b50610384610c76565b6040516103919190613a58565b60405180910390f35b3480156103a657600080fd5b506103c160048036038101906103bc9190613b02565b610d04565b005b3480156103cf57600080fd5b506103d8610e1b565b6040516103e591906138e9565b60405180910390f35b3480156103fa57600080fd5b5061041560048036038101906104109190613b42565b610e28565b005b34801561042357600080fd5b5061043e60048036038101906104399190613bcb565b610e88565b60405161044b9190613c07565b60405180910390f35b34801561046057600080fd5b5061047b60048036038101906104769190613c22565b610ea7565b005b34801561048957600080fd5b506104a4600480360381019061049f9190613b02565b610ed0565b6040516104b191906138e9565b60405180910390f35b3480156104c657600080fd5b506104cf610f75565b6040516104dc91906138e9565b60405180910390f35b3480156104f157600080fd5b5061050c60048036038101906105079190613c22565b610f7a565b005b34801561051a57600080fd5b5061053560048036038101906105309190613c62565b610ffd565b6040516105429190613d4d565b60405180910390f35b34801561055757600080fd5b506105606110f4565b60405161056d91906138e9565b60405180910390f35b34801561058257600080fd5b5061058b611144565b005b34801561059957600080fd5b506105b460048036038101906105af9190613b02565b611186565b005b3480156105c257600080fd5b506105dd60048036038101906105d89190613b42565b6113fa565b005b3480156105eb57600080fd5b50610606600480360381019061060191906138ad565b61141a565b60405161061391906138e9565b60405180910390f35b34801561062857600080fd5b50610643600480360381019061063e9190613c62565b61148b565b005b34801561065157600080fd5b5061066c60048036038101906106679190613ea4565b61150e565b005b34801561067a57600080fd5b5061069560048036038101906106909190613c62565b61155b565b005b3480156106a357600080fd5b506106be60048036038101906106b991906138ad565b61159e565b6040516106cb9190613abb565b60405180910390f35b3480156106e057600080fd5b506106e961164f565b6040516106f691906138e9565b60405180910390f35b34801561070b57600080fd5b50610714611655565b60405161072191906139a4565b60405180910390f35b34801561073657600080fd5b5061073f611668565b60405161074c91906139a4565b60405180910390f35b34801561076157600080fd5b5061077c60048036038101906107779190613c62565b61167b565b60405161078991906138e9565b60405180910390f35b34801561079e57600080fd5b506107a7611732565b6040516107b491906138e9565b60405180910390f35b3480156107c957600080fd5b506107d2611743565b6040516107df91906138e9565b60405180910390f35b3480156107f457600080fd5b506107fd611749565b60405161080a91906138e9565b60405180910390f35b34801561081f57600080fd5b5061083a60048036038101906108359190613c22565b61174f565b60405161084791906139a4565b60405180910390f35b34801561085c57600080fd5b506108656117b9565b6040516108729190613a58565b60405180910390f35b34801561088757600080fd5b5061089061184b565b60405161089d9190613c07565b60405180910390f35b3480156108b257600080fd5b506108cd60048036038101906108c89190613f19565b611852565b005b6108d7611868565b6040516108e491906138e9565b60405180910390f35b3480156108f957600080fd5b50610914600480360381019061090f9190613ffa565b611af2565b005b34801561092257600080fd5b5061092b611b54565b6040516109389190613a58565b60405180910390f35b34801561094d57600080fd5b50610968600480360381019061096391906138ad565b611be2565b6040516109759190613a58565b60405180910390f35b34801561098a57600080fd5b506109a560048036038101906109a091906138ad565b611d62565b6040516109b291906139a4565b60405180910390f35b3480156109c757600080fd5b506109d0611e5b565b6040516109dd9190613c07565b60405180910390f35b3480156109f257600080fd5b50610a0d6004803603810190610a089190613c22565b611e7f565b005b348015610a1b57600080fd5b50610a366004803603810190610a319190613ea4565b611ea8565b005b348015610a4457600080fd5b50610a4d611ef5565b005b348015610a5b57600080fd5b50610a766004803603810190610a71919061407d565b611f37565b604051610a8391906139a4565b60405180910390f35b348015610a9857600080fd5b50610ab36004803603810190610aae9190613ea4565b611fcb565b005b348015610ac157600080fd5b50610adc6004803603810190610ad791906140bd565b612018565b005b348015610aea57600080fd5b50610b056004803603810190610b0091906138ad565b61205b565b604051610b12919061412d565b60405180910390f35b60006013600083815260200190815260200160002060000160009054906101000a900461ffff1661ffff169050919050565b6000610b5882612087565b9050919050565b606060018054610b6e90614177565b80601f0160208091040260200160405190810160405280929190818152602001828054610b9a90614177565b8015610be75780601f10610bbc57610100808354040283529160200191610be7565b820191906000526020600020905b815481529060010190602001808311610bca57829003601f168201915b5050505050905090565b6000610bfc82612101565b610c3b576040517f08c379a0000000000000000000000000000000000000000000000000000000008152600401610c329061421a565b60405180910390fd5b6005600083815260200190815260200160002060009054906101000a900473ffffffffffffffffffffffffffffffffffffffff169050919050565b60118054610c8390614177565b80601f0160208091040260200160405190810160405280929190818152602001828054610caf90614177565b8015610cfc5780601f10610cd157610100808354040283529160200191610cfc565b820191906000526020600020905b815481529060010190602001808311610cdf57829003601f168201915b505050505081565b6000610d0f8261159e565b90508073ffffffffffffffffffffffffffffffffffffffff168373ffffffffffffffffffffffffffffffffffffffff1603610d7f576040517f08c379a0000000000000000000000000000000000000000000000000000000008152600401610d76906142ac565b60405180910390fd5b8073ffffffffffffffffffffffffffffffffffffffff16610d9e61216d565b73ffffffffffffffffffffffffffffffffffffffff161480610dcd5750610dcc81610dc761216d565b611f37565b5b610e0c576040517f08c379a0000000000000000000000000000000000000000000000000000000008152600401610e039061433e565b60405180910390fd5b610e168383612175565b505050565b6000600980549050905090565b610e39610e3361216d565b8261222e565b610e78576040517f08c379a0000000000000000000000000000000000000000000000000000000008152600401610e6f906143d0565b60405180910390fd5b610e8383838361230c565b505050565b6000806000838152602001908152602001600020600101549050919050565b610eb082610e88565b610ec181610ebc61216d565b612572565b610ecb838361260f565b505050565b6000610edb8361167b565b8210610f1c576040517f08c379a0000000000000000000000000000000000000000000000000000000008152600401610f1390614462565b60405180910390fd5b600760008473ffffffffffffffffffffffffffffffffffffffff1673ffffffffffffffffffffffffffffffffffffffff168152602001908152602001600020600083815260200190815260200160002054905092915050565b603281565b610f8261216d565b73ffffffffffffffffffffffffffffffffffffffff168173ffffffffffffffffffffffffffffffffffffffff1614610fef576040517f08c379a0000000000000000000000000000000000000000000000000000000008152600401610fe6906144f4565b60405180910390fd5b610ff982826126ef565b5050565b6060600061100a8361167b565b67ffffffffffffffff81111561102357611022613d79565b5b6040519080825280602002602001820160405280156110515781602001602082028036833780820191505090505b509050600080600190505b611066600b6127d0565b81116110e9578473ffffffffffffffffffffffffffffffffffffffff1661108c8261159e565b73ffffffffffffffffffffffffffffffffffffffff16036110d657808383815181106110bb576110ba614514565b5b60200260200101818152505081806110d290614572565b9250505b80806110e190614572565b91505061105c565b508192505050919050565b600080444260405160200161110a9291906145db565b6040516020818303038152906040528051906020012060001c905060016064826111349190614636565b61113e9190614667565b91505090565b6000801b6111598161115461216d565b612572565b600c60159054906101000a900460ff1615600c60156101000a81548160ff02191690831515021790555050565b8173ffffffffffffffffffffffffffffffffffffffff166111a68261159e565b73ffffffffffffffffffffffffffffffffffffffff16146111fc576040517f08c379a00000000000000000000000000000000000000000000000000000000081526004016111f390614709565b60405180910390fd5b61120581611d62565b611244576040517f08c379a000000000000000000000000000000000000000000000000000000000815260040161123b90614775565b60405180910390fd5b6013600082815260200190815260200160002060010142908060018154018082558091505060019003906000526020600020016000909190919091505560006013600083815260200190815260200160002060000160009054906101000a900461ffff1661ffff16905060006001606444426040516020016112c79291906145db565b6040516020818303038152906040528051906020012060001c6112ea9190614636565b6112f49190614667565b9050600081836113049190614795565b9050600c60009054906101000a900473ffffffffffffffffffffffffffffffffffffffff1673ffffffffffffffffffffffffffffffffffffffff166340c10f193366038d7ea4c68000846113589190614795565b6040518363ffffffff1660e01b81526004016113759291906147ef565b600060405180830381600087803b15801561138f57600080fd5b505af11580156113a3573d6000803e3d6000fd5b505050507fc1cac68055d038429280f6eb1126e709c6be291f286895b51ea88569e2c98230600166038d7ea4c68000836113dd9190614795565b6040516113eb929190614818565b60405180910390a15050505050565b61141583838360405180602001604052806000815250611af2565b505050565b6000611424610e1b565b8210611465576040517f08c379a000000000000000000000000000000000000000000000000000000000815260040161145c906148b3565b60405180910390fd5b6009828154811061147957611478614514565b5b90600052602060002001549050919050565b7f9f2df0fed2c77648de5860a4cc508cd0818c85b8b8a1ab4ceeef8d981c8956a66114bd816114b861216d565b612572565b60004790508273ffffffffffffffffffffffffffffffffffffffff166108fc829081150290604051600060405180830381858888f19350505050158015611508573d6000803e3d6000fd5b50505050565b7f9f2df0fed2c77648de5860a4cc508cd0818c85b8b8a1ab4ceeef8d981c8956a66115408161153b61216d565b612572565b8160109080519060200190611556929190613755565b505050565b6000801b6115708161156b61216d565b612572565b61159a7f9f2df0fed2c77648de5860a4cc508cd0818c85b8b8a1ab4ceeef8d981c8956a68361260f565b5050565b6000806003600084815260200190815260200160002060009054906101000a900473ffffffffffffffffffffffffffffffffffffffff169050600073ffffffffffffffffffffffffffffffffffffffff168173ffffffffffffffffffffffffffffffffffffffff1603611646576040517f08c379a000000000000000000000000000000000000000000000000000000000815260040161163d90614945565b60405180910390fd5b80915050919050565b600d5481565b600c60159054906101000a900460ff1681565b600c60149054906101000a900460ff1681565b60008073ffffffffffffffffffffffffffffffffffffffff168273ffffffffffffffffffffffffffffffffffffffff16036116eb576040517f08c379a00000000000000000000000000000000000000000000000000000000081526004016116e2906149d7565b60405180910390fd5b600460008373ffffffffffffffffffffffffffffffffffffffff1673ffffffffffffffffffffffffffffffffffffffff168152602001908152602001600020549050919050565b600061173e600b6127d0565b905090565b600e5481565b600f5481565b600080600084815260200190815260200160002060000160008373ffffffffffffffffffffffffffffffffffffffff1673ffffffffffffffffffffffffffffffffffffffff16815260200190815260200160002060009054906101000a900460ff16905092915050565b6060600280546117c890614177565b80601f01602080910402602001604051908101604052809291908181526020018280546117f490614177565b80156118415780601f1061181657610100808354040283529160200191611841565b820191906000526020600020905b81548152906001019060200180831161182457829003601f168201915b5050505050905090565b6000801b81565b61186461185d61216d565b83836127de565b5050565b60007f9f2df0fed2c77648de5860a4cc508cd0818c85b8b8a1ab4ceeef8d981c8956a661189c8161189761216d565b612572565b603260016118a8610e1b565b6118b29190614667565b11156118f3576040517f08c379a00000000000000000000000000000000000000000000000000000000081526004016118ea90614a43565b60405180910390fd5b600c60149054906101000a900460ff16611942576040517f08c379a000000000000000000000000000000000000000000000000000000000815260040161193990614ad5565b60405180910390fd5b600e5460016119503361167b565b61195a9190614667565b111561199b576040517f08c379a000000000000000000000000000000000000000000000000000000000815260040161199290614b41565b60405180910390fd5b34600d5460016119ab9190614795565b11156119ec576040517f08c379a00000000000000000000000000000000000000000000000000000000081526004016119e390614bad565b60405180910390fd5b600f5460011115611a32576040517f08c379a0000000000000000000000000000000000000000000000000000000008152600401611a2990614c19565b60405180910390fd5b611a3c600b61294a565b6000611a48600b6127d0565b90506032611a54610e1b565b1015611ae857611a626137db565b611a6a6110f4565b816000019061ffff16908161ffff1681525050806013600084815260200190815260200160002060008201518160000160006101000a81548161ffff021916908361ffff1602179055506020820151816001019080519060200190611ad09291906137f9565b50905050611ade3383612960565b8193505050611aee565b60009250505b5090565b611b03611afd61216d565b8361222e565b611b42576040517f08c379a0000000000000000000000000000000000000000000000000000000008152600401611b39906143d0565b60405180910390fd5b611b4e84848484612b39565b50505050565b60128054611b6190614177565b80601f0160208091040260200160405190810160405280929190818152602001828054611b8d90614177565b8015611bda5780601f10611baf57610100808354040283529160200191611bda565b820191906000526020600020905b815481529060010190602001808311611bbd57829003601f168201915b505050505081565b6060611bed82612101565b611c2c576040517f08c379a0000000000000000000000000000000000000000000000000000000008152600401611c2390614cab565b60405180910390fd5b60001515600c60159054906101000a900460ff16151503611cd95760118054611c5490614177565b80601f0160208091040260200160405190810160405280929190818152602001828054611c8090614177565b8015611ccd5780601f10611ca257610100808354040283529160200191611ccd565b820191906000526020600020905b815481529060010190602001808311611cb057829003601f168201915b50505050509050611d5d565b6000611ce3612b95565b90506000815103611d2c576040518060400160405280600181526020017f3000000000000000000000000000000000000000000000000000000000000000815250915050611d5d565b80611d3684612c27565b6012604051602001611d4a93929190614d9b565b6040516020818303038152906040529150505b919050565b6000806201518042611d749190614dcc565b905060004290506000805b6013600087815260200190815260200160002060010180549050811015611e395783601360008881526020019081526020016000206001018281548110611dc957611dc8614514565b5b9060005260206000200154118015611e12575082601360008881526020019081526020016000206001018281548110611e0557611e04614514565b5b9060005260206000200154105b15611e26578180611e2290614572565b9250505b8080611e3190614572565b915050611d7f565b5060018110611e4e5760009350505050611e56565b600193505050505b919050565b7f9f2df0fed2c77648de5860a4cc508cd0818c85b8b8a1ab4ceeef8d981c8956a681565b611e8882610e88565b611e9981611e9461216d565b612572565b611ea383836126ef565b505050565b7f9f2df0fed2c77648de5860a4cc508cd0818c85b8b8a1ab4ceeef8d981c8956a6611eda81611ed561216d565b612572565b8160129080519060200190611ef0929190613755565b505050565b6000801b611f0a81611f0561216d565b612572565b600c60149054906101000a900460ff1615600c60146101000a81548160ff02191690831515021790555050565b6000600660008473ffffffffffffffffffffffffffffffffffffffff1673ffffffffffffffffffffffffffffffffffffffff16815260200190815260200160002060008373ffffffffffffffffffffffffffffffffffffffff1673ffffffffffffffffffffffffffffffffffffffff16815260200190815260200160002060009054906101000a900460ff16905092915050565b7f9f2df0fed2c77648de5860a4cc508cd0818c85b8b8a1ab4ceeef8d981c8956a6611ffd81611ff861216d565b612572565b8160119080519060200190612013929190613755565b505050565b7f9f2df0fed2c77648de5860a4cc508cd0818c85b8b8a1ab4ceeef8d981c8956a661204a8161204561216d565b612572565b6120558484846127de565b50505050565b60136020528060005260406000206000915090508060000160009054906101000a900461ffff16905081565b60007f780e9d63000000000000000000000000000000000000000000000000000000007bffffffffffffffffffffffffffffffffffffffffffffffffffffffff1916827bffffffffffffffffffffffffffffffffffffffffffffffffffffffff191614806120fa57506120f982612d87565b5b9050919050565b60008073ffffffffffffffffffffffffffffffffffffffff166003600084815260200190815260200160002060009054906101000a900473ffffffffffffffffffffffffffffffffffffffff1673ffffffffffffffffffffffffffffffffffffffff1614159050919050565b600033905090565b816005600083815260200190815260200160002060006101000a81548173ffffffffffffffffffffffffffffffffffffffff021916908373ffffffffffffffffffffffffffffffffffffffff160217905550808273ffffffffffffffffffffffffffffffffffffffff166121e88361159e565b73ffffffffffffffffffffffffffffffffffffffff167f8c5be1e5ebec7d5bd14f71427d1e84f3dd0314c0f7b2291e5b200ac8c7c3b92560405160405180910390a45050565b600061223982612101565b612278576040517f08c379a000000000000000000000000000000000000000000000000000000000815260040161226f90614e72565b60405180910390fd5b60006122838361159e565b90508073ffffffffffffffffffffffffffffffffffffffff168473ffffffffffffffffffffffffffffffffffffffff1614806122f257508373ffffffffffffffffffffffffffffffffffffffff166122da84610bf1565b73ffffffffffffffffffffffffffffffffffffffff16145b8061230357506123028185611f37565b5b91505092915050565b8273ffffffffffffffffffffffffffffffffffffffff1661232c8261159e565b73ffffffffffffffffffffffffffffffffffffffff1614612382576040517f08c379a000000000000000000000000000000000000000000000000000000000815260040161237990614f04565b60405180910390fd5b600073ffffffffffffffffffffffffffffffffffffffff168273ffffffffffffffffffffffffffffffffffffffff16036123f1576040517f08c379a00000000000000000000000000000000000000000000000000000000081526004016123e890614f96565b60405180910390fd5b6123fc838383612e69565b612407600082612175565b6001600460008573ffffffffffffffffffffffffffffffffffffffff1673ffffffffffffffffffffffffffffffffffffffff16815260200190815260200160002060008282546124579190614dcc565b925050819055506001600460008473ffffffffffffffffffffffffffffffffffffffff1673ffffffffffffffffffffffffffffffffffffffff16815260200190815260200160002060008282546124ae9190614667565b92505081905550816003600083815260200190815260200160002060006101000a81548173ffffffffffffffffffffffffffffffffffffffff021916908373ffffffffffffffffffffffffffffffffffffffff160217905550808273ffffffffffffffffffffffffffffffffffffffff168473ffffffffffffffffffffffffffffffffffffffff167fddf252ad1be2c89b69c2b068fc378daa952ba7f163c4a11628f55a4df523b3ef60405160405180910390a461256d838383612f7b565b505050565b61257c828261174f565b61260b576125a18173ffffffffffffffffffffffffffffffffffffffff166014612f80565b6125af8360001c6020612f80565b6040516020016125c092919061504e565b6040516020818303038152906040526040517f08c379a00000000000000000000000000000000000000000000000000000000081526004016126029190613a58565b60405180910390fd5b5050565b612619828261174f565b6126eb57600160008084815260200190815260200160002060000160008373ffffffffffffffffffffffffffffffffffffffff1673ffffffffffffffffffffffffffffffffffffffff16815260200190815260200160002060006101000a81548160ff02191690831515021790555061269061216d565b73ffffffffffffffffffffffffffffffffffffffff168173ffffffffffffffffffffffffffffffffffffffff16837f2f8788117e7eff1d82e926ec794901d17c78024a50270940304540a733656f0d60405160405180910390a45b5050565b6126f9828261174f565b156127cc57600080600084815260200190815260200160002060000160008373ffffffffffffffffffffffffffffffffffffffff1673ffffffffffffffffffffffffffffffffffffffff16815260200190815260200160002060006101000a81548160ff02191690831515021790555061277161216d565b73ffffffffffffffffffffffffffffffffffffffff168173ffffffffffffffffffffffffffffffffffffffff16837ff6391f5c32d9c69d2a47ea670b442974b53935d1edc7fd64eb21e047a839171b60405160405180910390a45b5050565b600081600001549050919050565b8173ffffffffffffffffffffffffffffffffffffffff168373ffffffffffffffffffffffffffffffffffffffff160361284c576040517f08c379a0000000000000000000000000000000000000000000000000000000008152600401612843906150d4565b60405180910390fd5b80600660008573ffffffffffffffffffffffffffffffffffffffff1673ffffffffffffffffffffffffffffffffffffffff16815260200190815260200160002060008473ffffffffffffffffffffffffffffffffffffffff1673ffffffffffffffffffffffffffffffffffffffff16815260200190815260200160002060006101000a81548160ff0219169083151502179055508173ffffffffffffffffffffffffffffffffffffffff168373ffffffffffffffffffffffffffffffffffffffff167f17307eab39ab6107e8899845ad3d59bd9653f200f220920489ca2b5937696c318360405161293d91906139a4565b60405180910390a3505050565b6001816000016000828254019250508190555050565b600073ffffffffffffffffffffffffffffffffffffffff168273ffffffffffffffffffffffffffffffffffffffff16036129cf576040517f08c379a00000000000000000000000000000000000000000000000000000000081526004016129c690615140565b60405180910390fd5b6129d881612101565b15612a18576040517f08c379a0000000000000000000000000000000000000000000000000000000008152600401612a0f906151ac565b60405180910390fd5b612a2460008383612e69565b6001600460008473ffffffffffffffffffffffffffffffffffffffff1673ffffffffffffffffffffffffffffffffffffffff1681526020019081526020016000206000828254612a749190614667565b92505081905550816003600083815260200190815260200160002060006101000a81548173ffffffffffffffffffffffffffffffffffffffff021916908373ffffffffffffffffffffffffffffffffffffffff160217905550808273ffffffffffffffffffffffffffffffffffffffff16600073ffffffffffffffffffffffffffffffffffffffff167fddf252ad1be2c89b69c2b068fc378daa952ba7f163c4a11628f55a4df523b3ef60405160405180910390a4612b3560008383612f7b565b5050565b612b4484848461230c565b612b50848484846131bc565b612b8f576040517f08c379a0000000000000000000000000000000000000000000000000000000008152600401612b869061523e565b60405180910390fd5b50505050565b606060108054612ba490614177565b80601f0160208091040260200160405190810160405280929190818152602001828054612bd090614177565b8015612c1d5780601f10612bf257610100808354040283529160200191612c1d565b820191906000526020600020905b815481529060010190602001808311612c0057829003601f168201915b5050505050905090565b606060008203612c6e576040518060400160405280600181526020017f30000000000000000000000000000000000000000000000000000000000000008152509050612d82565b600082905060005b60008214612ca0578080612c8990614572565b915050600a82612c99919061525e565b9150612c76565b60008167ffffffffffffffff811115612cbc57612cbb613d79565b5b6040519080825280601f01601f191660200182016040528015612cee5781602001600182028036833780820191505090505b5090505b60008514612d7b57600182612d079190614dcc565b9150600a85612d169190614636565b6030612d229190614667565b60f81b818381518110612d3857612d37614514565b5b60200101907effffffffffffffffffffffffffffffffffffffffffffffffffffffffffffff1916908160001a905350600a85612d74919061525e565b9450612cf2565b8093505050505b919050565b60007f80ac58cd000000000000000000000000000000000000000000000000000000007bffffffffffffffffffffffffffffffffffffffffffffffffffffffff1916827bffffffffffffffffffffffffffffffffffffffffffffffffffffffff19161480612e5257507f5b5e139f000000000000000000000000000000000000000000000000000000007bffffffffffffffffffffffffffffffffffffffffffffffffffffffff1916827bffffffffffffffffffffffffffffffffffffffffffffffffffffffff1916145b80612e625750612e6182613343565b5b9050919050565b612e748383836133bd565b600073ffffffffffffffffffffffffffffffffffffffff168373ffffffffffffffffffffffffffffffffffffffff1603612eb657612eb1816133c2565b612ef5565b8173ffffffffffffffffffffffffffffffffffffffff168373ffffffffffffffffffffffffffffffffffffffff1614612ef457612ef3838261340b565b5b5b600073ffffffffffffffffffffffffffffffffffffffff168273ffffffffffffffffffffffffffffffffffffffff1603612f3757612f3281613578565b612f76565b8273ffffffffffffffffffffffffffffffffffffffff168273ffffffffffffffffffffffffffffffffffffffff1614612f7557612f748282613649565b5b5b505050565b505050565b606060006002836002612f939190614795565b612f9d9190614667565b67ffffffffffffffff811115612fb657612fb5613d79565b5b6040519080825280601f01601f191660200182016040528015612fe85781602001600182028036833780820191505090505b5090507f3000000000000000000000000000000000000000000000000000000000000000816000815181106130205761301f614514565b5b60200101907effffffffffffffffffffffffffffffffffffffffffffffffffffffffffffff1916908160001a9053507f78000000000000000000000000000000000000000000000000000000000000008160018151811061308457613083614514565b5b60200101907effffffffffffffffffffffffffffffffffffffffffffffffffffffffffffff1916908160001a905350600060018460026130c49190614795565b6130ce9190614667565b90505b600181111561316e577f3031323334353637383961626364656600000000000000000000000000000000600f8616601081106131105761310f614514565b5b1a60f81b82828151811061312757613126614514565b5b60200101907effffffffffffffffffffffffffffffffffffffffffffffffffffffffffffff1916908160001a905350600485901c9450806131679061528f565b90506130d1565b50600084146131b2576040517f08c379a00000000000000000000000000000000000000000000000000000000081526004016131a990615304565b60405180910390fd5b8091505092915050565b60006131dd8473ffffffffffffffffffffffffffffffffffffffff166136c8565b15613336578373ffffffffffffffffffffffffffffffffffffffff1663150b7a0261320661216d565b8786866040518563ffffffff1660e01b81526004016132289493929190615379565b6020604051808303816000875af192505050801561326457506040513d601f19601f8201168201806040525081019061326191906153da565b60015b6132e6573d8060008114613294576040519150601f19603f3d011682016040523d82523d6000602084013e613299565b606091505b5060008151036132de576040517f08c379a00000000000000000000000000000000000000000000000000000000081526004016132d59061523e565b60405180910390fd5b805181602001fd5b63150b7a0260e01b7bffffffffffffffffffffffffffffffffffffffffffffffffffffffff1916817bffffffffffffffffffffffffffffffffffffffffffffffffffffffff19161491505061333b565b600190505b949350505050565b60007f7965db0b000000000000000000000000000000000000000000000000000000007bffffffffffffffffffffffffffffffffffffffffffffffffffffffff1916827bffffffffffffffffffffffffffffffffffffffffffffffffffffffff191614806133b657506133b5826136eb565b5b9050919050565b505050565b600980549050600a600083815260200190815260200160002081905550600981908060018154018082558091505060019003906000526020600020016000909190919091505550565b600060016134188461167b565b6134229190614dcc565b9050600060086000848152602001908152602001600020549050818114613507576000600760008673ffffffffffffffffffffffffffffffffffffffff1673ffffffffffffffffffffffffffffffffffffffff168152602001908152602001600020600084815260200190815260200160002054905080600760008773ffffffffffffffffffffffffffffffffffffffff1673ffffffffffffffffffffffffffffffffffffffff168152602001908152602001600020600084815260200190815260200160002081905550816008600083815260200190815260200160002081905550505b6008600084815260200190815260200160002060009055600760008573ffffffffffffffffffffffffffffffffffffffff1673ffffffffffffffffffffffffffffffffffffffff16815260200190815260200160002060008381526020019081526020016000206000905550505050565b6000600160098054905061358c9190614dcc565b90506000600a60008481526020019081526020016000205490506000600983815481106135bc576135bb614514565b5b9060005260206000200154905080600983815481106135de576135dd614514565b5b906000526020600020018190555081600a600083815260200190815260200160002081905550600a600085815260200190815260200160002060009055600980548061362d5761362c615407565b5b6001900381819060005260206000200160009055905550505050565b60006136548361167b565b905081600760008573ffffffffffffffffffffffffffffffffffffffff1673ffffffffffffffffffffffffffffffffffffffff168152602001908152602001600020600083815260200190815260200160002081905550806008600084815260200190815260200160002081905550505050565b6000808273ffffffffffffffffffffffffffffffffffffffff163b119050919050565b60007f01ffc9a7000000000000000000000000000000000000000000000000000000007bffffffffffffffffffffffffffffffffffffffffffffffffffffffff1916827bffffffffffffffffffffffffffffffffffffffffffffffffffffffff1916149050919050565b82805461376190614177565b90600052602060002090601f01602090048101928261378357600085556137ca565b82601f1061379c57805160ff19168380011785556137ca565b828001600101855582156137ca579182015b828111156137c95782518255916020019190600101906137ae565b5b5090506137d79190613846565b5090565b6040518060400160405280600061ffff168152602001606081525090565b828054828255906000526020600020908101928215613835579160200282015b82811115613834578251825591602001919060010190613819565b5b5090506138429190613846565b5090565b5b8082111561385f576000816000905550600101613847565b5090565b6000604051905090565b600080fd5b600080fd5b6000819050919050565b61388a81613877565b811461389557600080fd5b50565b6000813590506138a781613881565b92915050565b6000602082840312156138c3576138c261386d565b5b60006138d184828501613898565b91505092915050565b6138e381613877565b82525050565b60006020820190506138fe60008301846138da565b92915050565b60007fffffffff0000000000000000000000000000000000000000000000000000000082169050919050565b61393981613904565b811461394457600080fd5b50565b60008135905061395681613930565b92915050565b6000602082840312156139725761397161386d565b5b600061398084828501613947565b91505092915050565b60008115159050919050565b61399e81613989565b82525050565b60006020820190506139b96000830184613995565b92915050565b600081519050919050565b600082825260208201905092915050565b60005b838110156139f95780820151818401526020810190506139de565b83811115613a08576000848401525b50505050565b6000601f19601f8301169050919050565b6000613a2a826139bf565b613a3481856139ca565b9350613a448185602086016139db565b613a4d81613a0e565b840191505092915050565b60006020820190508181036000830152613a728184613a1f565b905092915050565b600073ffffffffffffffffffffffffffffffffffffffff82169050919050565b6000613aa582613a7a565b9050919050565b613ab581613a9a565b82525050565b6000602082019050613ad06000830184613aac565b92915050565b613adf81613a9a565b8114613aea57600080fd5b50565b600081359050613afc81613ad6565b92915050565b60008060408385031215613b1957613b1861386d565b5b6000613b2785828601613aed565b9250506020613b3885828601613898565b9150509250929050565b600080600060608486031215613b5b57613b5a61386d565b5b6000613b6986828701613aed565b9350506020613b7a86828701613aed565b9250506040613b8b86828701613898565b9150509250925092565b6000819050919050565b613ba881613b95565b8114613bb357600080fd5b50565b600081359050613bc581613b9f565b92915050565b600060208284031215613be157613be061386d565b5b6000613bef84828501613bb6565b91505092915050565b613c0181613b95565b82525050565b6000602082019050613c1c6000830184613bf8565b92915050565b60008060408385031215613c3957613c3861386d565b5b6000613c4785828601613bb6565b9250506020613c5885828601613aed565b9150509250929050565b600060208284031215613c7857613c7761386d565b5b6000613c8684828501613aed565b91505092915050565b600081519050919050565b600082825260208201905092915050565b6000819050602082019050919050565b613cc481613877565b82525050565b6000613cd68383613cbb565b60208301905092915050565b6000602082019050919050565b6000613cfa82613c8f565b613d048185613c9a565b9350613d0f83613cab565b8060005b83811015613d40578151613d278882613cca565b9750613d3283613ce2565b925050600181019050613d13565b5085935050505092915050565b60006020820190508181036000830152613d678184613cef565b905092915050565b600080fd5b600080fd5b7f4e487b7100000000000000000000000000000000000000000000000000000000600052604160045260246000fd5b613db182613a0e565b810181811067ffffffffffffffff82111715613dd057613dcf613d79565b5b80604052505050565b6000613de3613863565b9050613def8282613da8565b919050565b600067ffffffffffffffff821115613e0f57613e0e613d79565b5b613e1882613a0e565b9050602081019050919050565b82818337600083830152505050565b6000613e47613e4284613df4565b613dd9565b905082815260208101848484011115613e6357613e62613d74565b5b613e6e848285613e25565b509392505050565b600082601f830112613e8b57613e8a613d6f565b5b8135613e9b848260208601613e34565b91505092915050565b600060208284031215613eba57613eb961386d565b5b600082013567ffffffffffffffff811115613ed857613ed7613872565b5b613ee484828501613e76565b91505092915050565b613ef681613989565b8114613f0157600080fd5b50565b600081359050613f1381613eed565b92915050565b60008060408385031215613f3057613f2f61386d565b5b6000613f3e85828601613aed565b9250506020613f4f85828601613f04565b9150509250929050565b600067ffffffffffffffff821115613f7457613f73613d79565b5b613f7d82613a0e565b9050602081019050919050565b6000613f9d613f9884613f59565b613dd9565b905082815260208101848484011115613fb957613fb8613d74565b5b613fc4848285613e25565b509392505050565b600082601f830112613fe157613fe0613d6f565b5b8135613ff1848260208601613f8a565b91505092915050565b600080600080608085870312156140145761401361386d565b5b600061402287828801613aed565b945050602061403387828801613aed565b935050604061404487828801613898565b925050606085013567ffffffffffffffff81111561406557614064613872565b5b61407187828801613fcc565b91505092959194509250565b600080604083850312156140945761409361386d565b5b60006140a285828601613aed565b92505060206140b385828601613aed565b9150509250929050565b6000806000606084860312156140d6576140d561386d565b5b60006140e486828701613aed565b93505060206140f586828701613aed565b925050604061410686828701613f04565b9150509250925092565b600061ffff82169050919050565b61412781614110565b82525050565b6000602082019050614142600083018461411e565b92915050565b7f4e487b7100000000000000000000000000000000000000000000000000000000600052602260045260246000fd5b6000600282049050600182168061418f57607f821691505b6020821081036141a2576141a1614148565b5b50919050565b7f4552433732313a20617070726f76656420717565727920666f72206e6f6e657860008201527f697374656e7420746f6b656e0000000000000000000000000000000000000000602082015250565b6000614204602c836139ca565b915061420f826141a8565b604082019050919050565b60006020820190508181036000830152614233816141f7565b9050919050565b7f4552433732313a20617070726f76616c20746f2063757272656e74206f776e6560008201527f7200000000000000000000000000000000000000000000000000000000000000602082015250565b60006142966021836139ca565b91506142a18261423a565b604082019050919050565b600060208201905081810360008301526142c581614289565b9050919050565b7f4552433732313a20617070726f76652063616c6c6572206973206e6f74206f7760008201527f6e6572206e6f7220617070726f76656420666f7220616c6c0000000000000000602082015250565b60006143286038836139ca565b9150614333826142cc565b604082019050919050565b600060208201905081810360008301526143578161431b565b9050919050565b7f4552433732313a207472616e736665722063616c6c6572206973206e6f74206f60008201527f776e6572206e6f7220617070726f766564000000000000000000000000000000602082015250565b60006143ba6031836139ca565b91506143c58261435e565b604082019050919050565b600060208201905081810360008301526143e9816143ad565b9050919050565b7f455243373231456e756d657261626c653a206f776e657220696e646578206f7560008201527f74206f6620626f756e6473000000000000000000000000000000000000000000602082015250565b600061444c602b836139ca565b9150614457826143f0565b604082019050919050565b6000602082019050818103600083015261447b8161443f565b9050919050565b7f416363657373436f6e74726f6c3a2063616e206f6e6c792072656e6f756e636560008201527f20726f6c657320666f722073656c660000000000000000000000000000000000602082015250565b60006144de602f836139ca565b91506144e982614482565b604082019050919050565b6000602082019050818103600083015261450d816144d1565b9050919050565b7f4e487b7100000000000000000000000000000000000000000000000000000000600052603260045260246000fd5b7f4e487b7100000000000000000000000000000000000000000000000000000000600052601160045260246000fd5b600061457d82613877565b91507fffffffffffffffffffffffffffffffffffffffffffffffffffffffffffffffff82036145af576145ae614543565b5b600182019050919050565b6000819050919050565b6145d56145d082613877565b6145ba565b82525050565b60006145e782856145c4565b6020820191506145f782846145c4565b6020820191508190509392505050565b7f4e487b7100000000000000000000000000000000000000000000000000000000600052601260045260246000fd5b600061464182613877565b915061464c83613877565b92508261465c5761465b614607565b5b828206905092915050565b600061467282613877565b915061467d83613877565b9250827fffffffffffffffffffffffffffffffffffffffffffffffffffffffffffffffff038211156146b2576146b1614543565b5b828201905092915050565b7f706c6179657220616e6420746f6b656e206e6f74206d61746368656400000000600082015250565b60006146f3601c836139ca565b91506146fe826146bd565b602082019050919050565b60006020820190508181036000830152614722816146e6565b9050919050565b7f64696720636f756e74206e6f7420656e6f756768000000000000000000000000600082015250565b600061475f6014836139ca565b915061476a82614729565b602082019050919050565b6000602082019050818103600083015261478e81614752565b9050919050565b60006147a082613877565b91506147ab83613877565b9250817fffffffffffffffffffffffffffffffffffffffffffffffffffffffffffffffff04831182151516156147e4576147e3614543565b5b828202905092915050565b60006040820190506148046000830185613aac565b61481160208301846138da565b9392505050565b600060408201905061482d6000830185613995565b61483a60208301846138da565b9392505050565b7f455243373231456e756d657261626c653a20676c6f62616c20696e646578206f60008201527f7574206f6620626f756e64730000000000000000000000000000000000000000602082015250565b600061489d602c836139ca565b91506148a882614841565b604082019050919050565b600060208201905081810360008301526148cc81614890565b9050919050565b7f4552433732313a206f776e657220717565727920666f72206e6f6e657869737460008201527f656e7420746f6b656e0000000000000000000000000000000000000000000000602082015250565b600061492f6029836139ca565b915061493a826148d3565b604082019050919050565b6000602082019050818103600083015261495e81614922565b9050919050565b7f4552433732313a2062616c616e636520717565727920666f7220746865207a6560008201527f726f206164647265737300000000000000000000000000000000000000000000602082015250565b60006149c1602a836139ca565b91506149cc82614965565b604082019050919050565b600060208201905081810360008301526149f0816149b4565b9050919050565b7f53616c6520776f756c6420657863656564206d617820737570706c7900000000600082015250565b6000614a2d601c836139ca565b9150614a38826149f7565b602082019050919050565b60006020820190508181036000830152614a5c81614a20565b9050919050565b7f53616c65206d7573742062652061637469766520746f206d696e7420446f757960008201527f614d657461730000000000000000000000000000000000000000000000000000602082015250565b6000614abf6026836139ca565b9150614aca82614a63565b604082019050919050565b60006020820190508181036000830152614aee81614ab2565b9050919050565b7f53616c6520776f756c6420657863656564206d61782062616c616e6365000000600082015250565b6000614b2b601d836139ca565b9150614b3682614af5565b602082019050919050565b60006020820190508181036000830152614b5a81614b1e565b9050919050565b7f4e6f7420656e6f7567682065746865722073656e740000000000000000000000600082015250565b6000614b976015836139ca565b9150614ba282614b61565b602082019050919050565b60006020820190508181036000830152614bc681614b8a565b9050919050565b7f43616e206f6e6c79206d696e74203120746f6b656e7320617420612074696d65600082015250565b6000614c036020836139ca565b9150614c0e82614bcd565b602082019050919050565b60006020820190508181036000830152614c3281614bf6565b9050919050565b7f4552433732314d657461646174613a2055524920717565727920666f72206e6f60008201527f6e6578697374656e7420746f6b656e0000000000000000000000000000000000602082015250565b6000614c95602f836139ca565b9150614ca082614c39565b604082019050919050565b60006020820190508181036000830152614cc481614c88565b9050919050565b600081905092915050565b6000614ce1826139bf565b614ceb8185614ccb565b9350614cfb8185602086016139db565b80840191505092915050565b60008190508160005260206000209050919050565b60008154614d2981614177565b614d338186614ccb565b94506001821660008114614d4e5760018114614d5f57614d92565b60ff19831686528186019350614d92565b614d6885614d07565b60005b83811015614d8a57815481890152600182019150602081019050614d6b565b838801955050505b50505092915050565b6000614da78286614cd6565b9150614db38285614cd6565b9150614dbf8284614d1c565b9150819050949350505050565b6000614dd782613877565b9150614de283613877565b925082821015614df557614df4614543565b5b828203905092915050565b7f4552433732313a206f70657261746f7220717565727920666f72206e6f6e657860008201527f697374656e7420746f6b656e0000000000000000000000000000000000000000602082015250565b6000614e5c602c836139ca565b9150614e6782614e00565b604082019050919050565b60006020820190508181036000830152614e8b81614e4f565b9050919050565b7f4552433732313a207472616e736665722066726f6d20696e636f72726563742060008201527f6f776e6572000000000000000000000000000000000000000000000000000000602082015250565b6000614eee6025836139ca565b9150614ef982614e92565b604082019050919050565b60006020820190508181036000830152614f1d81614ee1565b9050919050565b7f4552433732313a207472616e7366657220746f20746865207a65726f2061646460008201527f7265737300000000000000000000000000000000000000000000000000000000602082015250565b6000614f806024836139ca565b9150614f8b82614f24565b604082019050919050565b60006020820190508181036000830152614faf81614f73565b9050919050565b7f416363657373436f6e74726f6c3a206163636f756e7420000000000000000000600082015250565b6000614fec601783614ccb565b9150614ff782614fb6565b601782019050919050565b7f206973206d697373696e6720726f6c6520000000000000000000000000000000600082015250565b6000615038601183614ccb565b915061504382615002565b601182019050919050565b600061505982614fdf565b91506150658285614cd6565b91506150708261502b565b915061507c8284614cd6565b91508190509392505050565b7f4552433732313a20617070726f766520746f2063616c6c657200000000000000600082015250565b60006150be6019836139ca565b91506150c982615088565b602082019050919050565b600060208201905081810360008301526150ed816150b1565b9050919050565b7f4552433732313a206d696e7420746f20746865207a65726f2061646472657373600082015250565b600061512a6020836139ca565b9150615135826150f4565b602082019050919050565b600060208201905081810360008301526151598161511d565b9050919050565b7f4552433732313a20746f6b656e20616c7265616479206d696e74656400000000600082015250565b6000615196601c836139ca565b91506151a182615160565b602082019050919050565b600060208201905081810360008301526151c581615189565b9050919050565b7f4552433732313a207472616e7366657220746f206e6f6e20455243373231526560008201527f63656976657220696d706c656d656e7465720000000000000000000000000000602082015250565b60006152286032836139ca565b9150615233826151cc565b604082019050919050565b600060208201905081810360008301526152578161521b565b9050919050565b600061526982613877565b915061527483613877565b92508261528457615283614607565b5b828204905092915050565b600061529a82613877565b9150600082036152ad576152ac614543565b5b600182039050919050565b7f537472696e67733a20686578206c656e67746820696e73756666696369656e74600082015250565b60006152ee6020836139ca565b91506152f9826152b8565b602082019050919050565b6000602082019050818103600083015261531d816152e1565b9050919050565b600081519050919050565b600082825260208201905092915050565b600061534b82615324565b615355818561532f565b93506153658185602086016139db565b61536e81613a0e565b840191505092915050565b600060808201905061538e6000830187613aac565b61539b6020830186613aac565b6153a860408301856138da565b81810360608301526153ba8184615340565b905095945050505050565b6000815190506153d481613930565b92915050565b6000602082840312156153f0576153ef61386d565b5b60006153fe848285016153c5565b91505092915050565b7f4e487b7100000000000000000000000000000000000000000000000000000000600052603160045260246000fdfea26469706673582212208d50c4676afb08c7508130d2483eda10ec2710de6d0af0dbd1cb782b94e58faf64736f6c634300080d0033",
  "immutableReferences": {},
  "source": "// SPDX-License-Identifier: MIT\r\n\r\npragma solidity ^0.8.13;\r\n\r\nimport \"@openzeppelin/contracts/token/ERC721/extensions/ERC721Enumerable.sol\";\r\nimport \"@openzeppelin/contracts/utils/Counters.sol\";\r\nimport \"@openzeppelin/contracts/access/AccessControl.sol\";\r\nimport \"@openzeppelin/contracts/utils/Strings.sol\";\r\nimport \"./Douya.sol\";\r\n\r\ncontract DouyaNFT is AccessControl, ERC721Enumerable {\r\n    using Counters for Counters.Counter;\r\n    using Strings for uint256;\r\n    Counters.Counter private _tokenIds;\r\n\r\n    // import douya coin\r\n    Douya private _douya;\r\n\r\n    bool public _isSaleActive = false;\r\n    bool public _revealed = false;\r\n\r\n    bytes32 public constant MINTER_ROLE = keccak256(\"MINTER_ROLE\");\r\n\r\n    // Constants\r\n    uint256 public constant MAX_SUPPLY = 50;\r\n    uint256 public mintPrice = 0.03 ether;\r\n    uint256 public maxBalance = 2;\r\n    uint256 public maxMint = 1;\r\n\r\n    string baseURI;\r\n    string public notRevealedUri;\r\n    string public baseExtension = \".png\";\r\n\r\n    struct Prop {\r\n        uint16 power; // power\r\n        uint256[] digTime; // mining timestamp\r\n    }\r\n\r\n    mapping(uint256 => Prop) public props;\r\n\r\n    constructor(address douyacoin) ERC721(\"DouyaNFT\", \"DOUN\") {\r\n        _douya = Douya(douyacoin);\r\n        _grantRole(DEFAULT_ADMIN_ROLE, msg.sender);\r\n        _grantRole(MINTER_ROLE, msg.sender);\r\n    }\r\n\r\n    function tokenIds() public view returns (uint256) {\r\n        return _tokenIds.current();\r\n    }\r\n\r\n    event Dig(bool successed, uint256 amount);\r\n\r\n    function mintDouyaNFT()\r\n        public\r\n        payable\r\n        onlyRole(MINTER_ROLE)\r\n        returns (uint256)\r\n    {\r\n        require(\r\n            totalSupply() + 1 <= MAX_SUPPLY,\r\n            \"Sale would exceed max supply\"\r\n        );\r\n        require(_isSaleActive, \"Sale must be active to mint DouyaMetas\");\r\n        require(\r\n            balanceOf(msg.sender) + 1 <= maxBalance,\r\n            \"Sale would exceed max balance\"\r\n        );\r\n        require(1 * mintPrice <= msg.value, \"Not enough ether sent\");\r\n        require(1 <= maxMint, \"Can only mint 1 tokens at a time\");\r\n\r\n        _tokenIds.increment();\r\n        uint256 newItemId = _tokenIds.current();\r\n        if (totalSupply() < MAX_SUPPLY) {\r\n            Prop memory i;\r\n            i.power = uint16(rand());\r\n            props[newItemId] = i;\r\n            _mint(msg.sender, newItemId);\r\n            // _setTokenURI(newItemId, tokenURI);\r\n            return newItemId;\r\n        }\r\n        return 0;\r\n    }\r\n\r\n    function setBaseURI(string memory _newBaseURI)\r\n        public\r\n        onlyRole(MINTER_ROLE)\r\n    {\r\n        baseURI = _newBaseURI;\r\n    }\r\n\r\n    function _baseURI() internal view virtual override returns (string memory) {\r\n        return baseURI;\r\n    }\r\n\r\n    function setBaseExtension(string memory _newBaseExtension)\r\n        public\r\n        onlyRole(MINTER_ROLE)\r\n    {\r\n        baseExtension = _newBaseExtension;\r\n    }\r\n\r\n    function setNotRevealedURI(string memory _notRevealedURI)\r\n        public\r\n        onlyRole(MINTER_ROLE)\r\n    {\r\n        notRevealedUri = _notRevealedURI;\r\n    }\r\n\r\n    function tokenURI(uint256 tokenId)\r\n        public\r\n        view\r\n        virtual\r\n        override\r\n        returns (string memory)\r\n    {\r\n        require(\r\n            _exists(tokenId),\r\n            \"ERC721Metadata: URI query for nonexistent token\"\r\n        );\r\n\r\n        if (_revealed == false) {\r\n            return notRevealedUri;\r\n        }\r\n\r\n        // string memory _tokenURI = _tokenURIs[tokenId];\r\n        string memory base = _baseURI();\r\n\r\n        // If there is no base URI, return the token URI.\r\n        if (bytes(base).length == 0) {\r\n            return \"0\";\r\n        }\r\n\r\n        // If there is a baseURI but no tokenURI, concatenate the tokenID to the baseURI.\r\n        return\r\n            string(abi.encodePacked(base, tokenId.toString(), baseExtension));\r\n    }\r\n\r\n    function setRole(address addr) public onlyRole(DEFAULT_ADMIN_ROLE) {\r\n        _grantRole(MINTER_ROLE, addr);\r\n    }\r\n\r\n    function setMoveNft(\r\n        address owner,\r\n        address addr,\r\n        bool b\r\n    ) public onlyRole(MINTER_ROLE) {\r\n        _setApprovalForAll(owner, addr, b); //allow market contract transfer NFT\r\n    }\r\n\r\n    function supportsInterface(bytes4 interfaceId)\r\n        public\r\n        view\r\n        override(ERC721Enumerable, AccessControl)\r\n        returns (bool)\r\n    {\r\n        return super.supportsInterface(interfaceId);\r\n    }\r\n\r\n    function flipSaleActive() public onlyRole(DEFAULT_ADMIN_ROLE) {\r\n        _isSaleActive = !_isSaleActive;\r\n    }\r\n\r\n    function flipReveal() public onlyRole(DEFAULT_ADMIN_ROLE) {\r\n        _revealed = !_revealed;\r\n    }\r\n\r\n    function getByOwner(address _owner)\r\n        external\r\n        view\r\n        returns (uint256[] memory)\r\n    {\r\n        uint256[] memory result = new uint256[](balanceOf(_owner));\r\n        uint256 counter = 0;\r\n        for (uint256 i = 1; i <= _tokenIds.current(); i++) {\r\n            if (ownerOf(i) == _owner) {\r\n                result[counter] = i;\r\n                counter++;\r\n            }\r\n        }\r\n        return result;\r\n    }\r\n\r\n    function getPower(uint256 tokenId) public view returns (uint256) {\r\n        return props[tokenId].power;\r\n    }\r\n\r\n    //mining operation\r\n    function dig(address player, uint256 tokenId) public {\r\n        require(ownerOf(tokenId) == player, \"player and token not matched\");\r\n        require(digAlow(tokenId), \"dig count not enough\");\r\n        props[tokenId].digTime.push(block.timestamp); // record mining timestamp\r\n\r\n        // detemine how many douyacoin will be dig according to power value\r\n        uint256 power = props[tokenId].power;\r\n\r\n        uint256 random = (uint256(\r\n            keccak256(abi.encodePacked(block.difficulty, block.timestamp))\r\n        ) % 100) + 1;\r\n\r\n        uint256 amount = power * random;\r\n\r\n        _douya.mint(msg.sender, amount * 10**15);\r\n\r\n        emit Dig(true, amount * 10**15);\r\n    }\r\n\r\n    // check allow to mining\r\n    function digAlow(uint256 _tokenId) public view returns (bool) {\r\n        // only can mining once in 24 hours\r\n        uint256 start = block.timestamp - 86400;\r\n        uint256 end = block.timestamp;\r\n        uint256 counter = 0;\r\n        for (uint256 i = 0; i < props[_tokenId].digTime.length; i++) {\r\n            if (\r\n                props[_tokenId].digTime[i] > start &&\r\n                props[_tokenId].digTime[i] < end\r\n            ) {\r\n                counter++;\r\n            }\r\n        }\r\n        if (counter >= 1) {\r\n            return false;\r\n        }\r\n        return true;\r\n    }\r\n\r\n    // 1-100 random number\r\n    function rand() public view returns (uint256) {\r\n        uint256 random = uint256(\r\n            keccak256(abi.encodePacked(block.difficulty, block.timestamp))\r\n        );\r\n        return (random % 100) + 1;\r\n    }\r\n\r\n    function withdraw(address to) public onlyRole(MINTER_ROLE) {\r\n        uint256 balance = address(this).balance;\r\n        payable(to).transfer(balance);\r\n    }\r\n}\r\n",
  "sourcePath": "E:\\Douya_Coin_NFT\\contracts\\DouyaNFT.sol",
  "compiler": {
    "name": "solc",
    "version": "0.8.13+commit.abaa5c0e.Emscripten.clang"
  },
  "schemaVersion": "3.3.4",
  "updatedAt": "2022-03-21T15:10:37.471Z",
  "networkType": "ethereum",
  "devdoc": {
    "kind": "dev",
    "methods": {
      "approve(address,uint256)": {
        "details": "See {IERC721-approve}."
      },
      "balanceOf(address)": {
        "details": "See {IERC721-balanceOf}."
      },
      "getApproved(uint256)": {
        "details": "See {IERC721-getApproved}."
      },
      "getRoleAdmin(bytes32)": {
        "details": "Returns the admin role that controls `role`. See {grantRole} and {revokeRole}. To change a role's admin, use {_setRoleAdmin}."
      },
      "grantRole(bytes32,address)": {
        "details": "Grants `role` to `account`. If `account` had not been already granted `role`, emits a {RoleGranted} event. Requirements: - the caller must have ``role``'s admin role."
      },
      "hasRole(bytes32,address)": {
        "details": "Returns `true` if `account` has been granted `role`."
      },
      "isApprovedForAll(address,address)": {
        "details": "See {IERC721-isApprovedForAll}."
      },
      "name()": {
        "details": "See {IERC721Metadata-name}."
      },
      "ownerOf(uint256)": {
        "details": "See {IERC721-ownerOf}."
      },
      "renounceRole(bytes32,address)": {
        "details": "Revokes `role` from the calling account. Roles are often managed via {grantRole} and {revokeRole}: this function's purpose is to provide a mechanism for accounts to lose their privileges if they are compromised (such as when a trusted device is misplaced). If the calling account had been revoked `role`, emits a {RoleRevoked} event. Requirements: - the caller must be `account`."
      },
      "revokeRole(bytes32,address)": {
        "details": "Revokes `role` from `account`. If `account` had been granted `role`, emits a {RoleRevoked} event. Requirements: - the caller must have ``role``'s admin role."
      },
      "safeTransferFrom(address,address,uint256)": {
        "details": "See {IERC721-safeTransferFrom}."
      },
      "safeTransferFrom(address,address,uint256,bytes)": {
        "details": "See {IERC721-safeTransferFrom}."
      },
      "setApprovalForAll(address,bool)": {
        "details": "See {IERC721-setApprovalForAll}."
      },
      "symbol()": {
        "details": "See {IERC721Metadata-symbol}."
      },
      "tokenByIndex(uint256)": {
        "details": "See {IERC721Enumerable-tokenByIndex}."
      },
      "tokenOfOwnerByIndex(address,uint256)": {
        "details": "See {IERC721Enumerable-tokenOfOwnerByIndex}."
      },
      "tokenURI(uint256)": {
        "details": "See {IERC721Metadata-tokenURI}."
      },
      "totalSupply()": {
        "details": "See {IERC721Enumerable-totalSupply}."
      },
      "transferFrom(address,address,uint256)": {
        "details": "See {IERC721-transferFrom}."
      }
    },
    "version": 1
  },
  "userdoc": {
    "kind": "user",
    "methods": {},
    "version": 1
  }
}