{
  "contractName": "Market",
  "abi": [
    {
      "inputs": [
        {
          "internalType": "address",
          "name": "douyacoinAddr",
          "type": "address"
        },
        {
          "internalType": "address",
          "name": "douyaNFTAddr",
          "type": "address"
        }
      ],
      "stateMutability": "nonpayable",
      "type": "constructor"
    },
    {
      "anonymous": false,
      "inputs": [
        {
          "indexed": true,
          "internalType": "uint256",
          "name": "tokenId",
          "type": "uint256"
        },
        {
          "indexed": true,
          "internalType": "address",
          "name": "buyer",
          "type": "address"
        },
        {
          "indexed": true,
          "internalType": "address",
          "name": "seller",
          "type": "address"
        }
      ],
      "name": "Buy",
      "type": "event"
    },
    {
      "anonymous": false,
      "inputs": [
        {
          "indexed": true,
          "internalType": "uint256",
          "name": "tokenId",
          "type": "uint256"
        },
        {
          "indexed": true,
          "internalType": "address",
          "name": "seller",
          "type": "address"
        }
      ],
      "name": "Cancel",
      "type": "event"
    },
    {
      "anonymous": false,
      "inputs": [
        {
          "indexed": true,
          "internalType": "address",
          "name": "previousOwner",
          "type": "address"
        },
        {
          "indexed": true,
          "internalType": "address",
          "name": "newOwner",
          "type": "address"
        }
      ],
      "name": "OwnershipTransferred",
      "type": "event"
    },
    {
      "anonymous": false,
      "inputs": [
        {
          "indexed": true,
          "internalType": "uint256",
          "name": "tokenId",
          "type": "uint256"
        },
        {
          "indexed": true,
          "internalType": "address",
          "name": "seller",
          "type": "address"
        }
      ],
      "name": "Sale",
      "type": "event"
    },
    {
      "inputs": [],
      "name": "minPrice",
      "outputs": [
        {
          "internalType": "uint256",
          "name": "",
          "type": "uint256"
        }
      ],
      "stateMutability": "view",
      "type": "function"
    },
    {
      "inputs": [],
      "name": "owner",
      "outputs": [
        {
          "internalType": "address",
          "name": "",
          "type": "address"
        }
      ],
      "stateMutability": "view",
      "type": "function"
    },
    {
      "inputs": [],
      "name": "renounceOwnership",
      "outputs": [],
      "stateMutability": "nonpayable",
      "type": "function"
    },
    {
      "inputs": [
        {
          "internalType": "uint256",
          "name": "",
          "type": "uint256"
        }
      ],
      "name": "shop",
      "outputs": [
        {
          "internalType": "address",
          "name": "seller",
          "type": "address"
        },
        {
          "internalType": "uint256",
          "name": "price",
          "type": "uint256"
        }
      ],
      "stateMutability": "view",
      "type": "function"
    },
    {
      "inputs": [
        {
          "internalType": "address",
          "name": "newOwner",
          "type": "address"
        }
      ],
      "name": "transferOwnership",
      "outputs": [],
      "stateMutability": "nonpayable",
      "type": "function"
    },
    {
      "inputs": [
        {
          "internalType": "uint256",
          "name": "_tokenId",
          "type": "uint256"
        },
        {
          "internalType": "uint256",
          "name": "_price",
          "type": "uint256"
        }
      ],
      "name": "sale",
      "outputs": [],
      "stateMutability": "nonpayable",
      "type": "function"
    },
    {
      "inputs": [
        {
          "internalType": "uint256",
          "name": "_tokenId",
          "type": "uint256"
        }
      ],
      "name": "cancel",
      "outputs": [],
      "stateMutability": "nonpayable",
      "type": "function"
    },
    {
      "inputs": [
        {
          "internalType": "uint256",
          "name": "_tokenId",
          "type": "uint256"
        }
      ],
      "name": "buy",
      "outputs": [],
      "stateMutability": "nonpayable",
      "type": "function"
    },
    {
      "inputs": [],
      "name": "getShop",
      "outputs": [
        {
          "internalType": "uint256[]",
          "name": "",
          "type": "uint256[]"
        }
      ],
      "stateMutability": "view",
      "type": "function"
    },
    {
      "inputs": [
        {
          "internalType": "uint256",
          "name": "_tokenId",
          "type": "uint256"
        }
      ],
      "name": "getPrice",
      "outputs": [
        {
          "internalType": "uint256",
          "name": "price",
          "type": "uint256"
        }
      ],
      "stateMutability": "view",
      "type": "function"
    },
    {
      "inputs": [
        {
          "internalType": "uint256",
          "name": "_value",
          "type": "uint256"
        }
      ],
      "name": "setMinPrice",
      "outputs": [],
      "stateMutability": "nonpayable",
      "type": "function"
    }
  ],
  "bytecode": "0x6080604052670de0b6b3a76400006005553480156200001d57600080fd5b506040516200198d3803806200198d833981810160405281019062000043919062000223565b6200006362000057620000ed60201b60201c565b620000f560201b60201c565b81600160006101000a81548173ffffffffffffffffffffffffffffffffffffffff021916908373ffffffffffffffffffffffffffffffffffffffff16021790555080600260006101000a81548173ffffffffffffffffffffffffffffffffffffffff021916908373ffffffffffffffffffffffffffffffffffffffff16021790555050506200026a565b600033905090565b60008060009054906101000a900473ffffffffffffffffffffffffffffffffffffffff169050816000806101000a81548173ffffffffffffffffffffffffffffffffffffffff021916908373ffffffffffffffffffffffffffffffffffffffff1602179055508173ffffffffffffffffffffffffffffffffffffffff168173ffffffffffffffffffffffffffffffffffffffff167f8be0079c531659141344cd1fd0a4f28419497f9722a3daafe3b4186f6b6457e060405160405180910390a35050565b600080fd5b600073ffffffffffffffffffffffffffffffffffffffff82169050919050565b6000620001eb82620001be565b9050919050565b620001fd81620001de565b81146200020957600080fd5b50565b6000815190506200021d81620001f2565b92915050565b600080604083850312156200023d576200023c620001b9565b5b60006200024d858286016200020c565b925050602062000260858286016200020c565b9150509250929050565b611713806200027a6000396000f3fe608060405234801561001057600080fd5b50600436106100a95760003560e01c80638da5cb5b116100715780638da5cb5b1461012a578063d96a094a14610148578063da69c08314610164578063e45be8eb14610195578063e7572230146101b3578063f2fde38b146101e3576100a9565b80631afb2740146100ae5780631c35f962146100cc57806340e58ee5146100e85780635ea8cd1214610104578063715018a614610120575b600080fd5b6100b66101ff565b6040516100c39190611056565b60405180910390f35b6100e660048036038101906100e191906110a9565b610358565b005b61010260048036038101906100fd91906110e9565b61062e565b005b61011e600480360381019061011991906110e9565b610871565b005b6101286108f7565b005b61013261097f565b60405161013f9190611157565b60405180910390f35b610162600480360381019061015d91906110e9565b6109a8565b005b61017e600480360381019061017991906110e9565b610d35565b60405161018c929190611181565b60405180910390f35b61019d610d79565b6040516101aa91906111aa565b60405180910390f35b6101cd60048036038101906101c891906110e9565b610d7f565b6040516101da91906111aa565b60405180910390f35b6101fd60048036038101906101f891906111f1565b610d9f565b005b6060600060045467ffffffffffffffff81111561021f5761021e61121e565b5b60405190808252806020026020018201604052801561024d5781602001602082028036833780820191505090505b509050600080600190505b600260009054906101000a900473ffffffffffffffffffffffffffffffffffffffff1673ffffffffffffffffffffffffffffffffffffffff1663714cff566040518163ffffffff1660e01b8152600401602060405180830381865afa1580156102c5573d6000803e3d6000fd5b505050506040513d601f19601f820116820180604052508101906102e99190611262565b811161034f57600060036000838152602001908152602001600020600101541461033c57808383815181106103215761032061128f565b5b6020026020010181815250508180610338906112ed565b9250505b8080610347906112ed565b915050610258565b50819250505090565b60055481101561039d576040517f08c379a000000000000000000000000000000000000000000000000000000000815260040161039490611392565b60405180910390fd5b3373ffffffffffffffffffffffffffffffffffffffff16600260009054906101000a900473ffffffffffffffffffffffffffffffffffffffff1673ffffffffffffffffffffffffffffffffffffffff16636352211e846040518263ffffffff1660e01b815260040161040f91906111aa565b602060405180830381865afa15801561042c573d6000803e3d6000fd5b505050506040513d601f19601f8201168201806040525081019061045091906113c7565b73ffffffffffffffffffffffffffffffffffffffff16146104a6576040517f08c379a000000000000000000000000000000000000000000000000000000000815260040161049d90611440565b60405180910390fd5b60405180604001604052803373ffffffffffffffffffffffffffffffffffffffff168152602001828152506003600084815260200190815260200160002060008201518160000160006101000a81548173ffffffffffffffffffffffffffffffffffffffff021916908373ffffffffffffffffffffffffffffffffffffffff1602179055506020820151816001015590505061054e6001600454610e9690919063ffffffff16565b600481905550600260009054906101000a900473ffffffffffffffffffffffffffffffffffffffff1673ffffffffffffffffffffffffffffffffffffffff1663fb85d8dc333060016040518463ffffffff1660e01b81526004016105b49392919061147b565b600060405180830381600087803b1580156105ce57600080fd5b505af11580156105e2573d6000803e3d6000fd5b505050503373ffffffffffffffffffffffffffffffffffffffff16827f938e870e870a8d47d06b8bbd499d54ea37fb4f7777de1ff086d6d71e1fa1599660405160405180910390a35050565b3373ffffffffffffffffffffffffffffffffffffffff16600260009054906101000a900473ffffffffffffffffffffffffffffffffffffffff1673ffffffffffffffffffffffffffffffffffffffff16636352211e836040518263ffffffff1660e01b81526004016106a091906111aa565b602060405180830381865afa1580156106bd573d6000803e3d6000fd5b505050506040513d601f19601f820116820180604052508101906106e191906113c7565b73ffffffffffffffffffffffffffffffffffffffff1614610737576040517f08c379a000000000000000000000000000000000000000000000000000000000815260040161072e90611440565b60405180910390fd5b60036000828152602001908152602001600020600080820160006101000a81549073ffffffffffffffffffffffffffffffffffffffff021916905560018201600090555050600260009054906101000a900473ffffffffffffffffffffffffffffffffffffffff1673ffffffffffffffffffffffffffffffffffffffff1663fb85d8dc333060006040518463ffffffff1660e01b81526004016107dc9392919061147b565b600060405180830381600087803b1580156107f657600080fd5b505af115801561080a573d6000803e3d6000fd5b505050506108246001600454610eac90919063ffffffff16565b6004819055503373ffffffffffffffffffffffffffffffffffffffff16817f8dd3c361eb2366ff27c2db0eb07b9261f1d052570742ab8c9a0c326f37aa576d60405160405180910390a350565b610879610ec2565b73ffffffffffffffffffffffffffffffffffffffff1661089761097f565b73ffffffffffffffffffffffffffffffffffffffff16146108ed576040517f08c379a00000000000000000000000000000000000000000000000000000000081526004016108e4906114fe565b60405180910390fd5b8060058190555050565b6108ff610ec2565b73ffffffffffffffffffffffffffffffffffffffff1661091d61097f565b73ffffffffffffffffffffffffffffffffffffffff1614610973576040517f08c379a000000000000000000000000000000000000000000000000000000000815260040161096a906114fe565b60405180910390fd5b61097d6000610eca565b565b60008060009054906101000a900473ffffffffffffffffffffffffffffffffffffffff16905090565b6003600082815260200190815260200160002060010154600160009054906101000a900473ffffffffffffffffffffffffffffffffffffffff1673ffffffffffffffffffffffffffffffffffffffff166370a08231336040518263ffffffff1660e01b8152600401610a1a9190611157565b602060405180830381865afa158015610a37573d6000803e3d6000fd5b505050506040513d601f19601f82011682018060405250810190610a5b9190611262565b1015610a9c576040517f08c379a0000000000000000000000000000000000000000000000000000000008152600401610a939061156a565b60405180910390fd5b600160009054906101000a900473ffffffffffffffffffffffffffffffffffffffff1673ffffffffffffffffffffffffffffffffffffffff166306dad3fb336003600085815260200190815260200160002060000160009054906101000a900473ffffffffffffffffffffffffffffffffffffffff1660036000868152602001908152602001600020600101546040518463ffffffff1660e01b8152600401610b479392919061158a565b600060405180830381600087803b158015610b6157600080fd5b505af1158015610b75573d6000803e3d6000fd5b50505050600260009054906101000a900473ffffffffffffffffffffffffffffffffffffffff1673ffffffffffffffffffffffffffffffffffffffff166342842e0e6003600084815260200190815260200160002060000160009054906101000a900473ffffffffffffffffffffffffffffffffffffffff1633846040518463ffffffff1660e01b8152600401610c0e9392919061158a565b600060405180830381600087803b158015610c2857600080fd5b505af1158015610c3c573d6000803e3d6000fd5b5050505060036000828152602001908152602001600020600080820160006101000a81549073ffffffffffffffffffffffffffffffffffffffff021916905560018201600090555050610c9b6001600454610eac90919063ffffffff16565b6004819055506003600082815260200190815260200160002060000160009054906101000a900473ffffffffffffffffffffffffffffffffffffffff1673ffffffffffffffffffffffffffffffffffffffff163373ffffffffffffffffffffffffffffffffffffffff16827f39305df1e01a8efc02b583f32f465b5de19be261bbc83b3d8c37f3686c8af6be60405160405180910390a450565b60036020528060005260406000206000915090508060000160009054906101000a900473ffffffffffffffffffffffffffffffffffffffff16908060010154905082565b60055481565b600060036000838152602001908152602001600020600101549050919050565b610da7610ec2565b73ffffffffffffffffffffffffffffffffffffffff16610dc561097f565b73ffffffffffffffffffffffffffffffffffffffff1614610e1b576040517f08c379a0000000000000000000000000000000000000000000000000000000008152600401610e12906114fe565b60405180910390fd5b600073ffffffffffffffffffffffffffffffffffffffff168173ffffffffffffffffffffffffffffffffffffffff1603610e8a576040517f08c379a0000000000000000000000000000000000000000000000000000000008152600401610e8190611633565b60405180910390fd5b610e9381610eca565b50565b60008183610ea49190611653565b905092915050565b60008183610eba91906116a9565b905092915050565b600033905090565b60008060009054906101000a900473ffffffffffffffffffffffffffffffffffffffff169050816000806101000a81548173ffffffffffffffffffffffffffffffffffffffff021916908373ffffffffffffffffffffffffffffffffffffffff1602179055508173ffffffffffffffffffffffffffffffffffffffff168173ffffffffffffffffffffffffffffffffffffffff167f8be0079c531659141344cd1fd0a4f28419497f9722a3daafe3b4186f6b6457e060405160405180910390a35050565b600081519050919050565b600082825260208201905092915050565b6000819050602082019050919050565b6000819050919050565b610fcd81610fba565b82525050565b6000610fdf8383610fc4565b60208301905092915050565b6000602082019050919050565b600061100382610f8e565b61100d8185610f99565b935061101883610faa565b8060005b838110156110495781516110308882610fd3565b975061103b83610feb565b92505060018101905061101c565b5085935050505092915050565b600060208201905081810360008301526110708184610ff8565b905092915050565b600080fd5b61108681610fba565b811461109157600080fd5b50565b6000813590506110a38161107d565b92915050565b600080604083850312156110c0576110bf611078565b5b60006110ce85828601611094565b92505060206110df85828601611094565b9150509250929050565b6000602082840312156110ff576110fe611078565b5b600061110d84828501611094565b91505092915050565b600073ffffffffffffffffffffffffffffffffffffffff82169050919050565b600061114182611116565b9050919050565b61115181611136565b82525050565b600060208201905061116c6000830184611148565b92915050565b61117b81610fba565b82525050565b60006040820190506111966000830185611148565b6111a36020830184611172565b9392505050565b60006020820190506111bf6000830184611172565b92915050565b6111ce81611136565b81146111d957600080fd5b50565b6000813590506111eb816111c5565b92915050565b60006020828403121561120757611206611078565b5b6000611215848285016111dc565b91505092915050565b7f4e487b7100000000000000000000000000000000000000000000000000000000600052604160045260246000fd5b60008151905061125c8161107d565b92915050565b60006020828403121561127857611277611078565b5b60006112868482850161124d565b91505092915050565b7f4e487b7100000000000000000000000000000000000000000000000000000000600052603260045260246000fd5b7f4e487b7100000000000000000000000000000000000000000000000000000000600052601160045260246000fd5b60006112f882610fba565b91507fffffffffffffffffffffffffffffffffffffffffffffffffffffffffffffffff820361132a576113296112be565b5b600182019050919050565b600082825260208201905092915050565b7f596f7572207072696365206e6f7420616c6f7700000000000000000000000000600082015250565b600061137c601383611335565b915061138782611346565b602082019050919050565b600060208201905081810360008301526113ab8161136f565b9050919050565b6000815190506113c1816111c5565b92915050565b6000602082840312156113dd576113dc611078565b5b60006113eb848285016113b2565b91505092915050565b7f746f6b656e206e6f7420616c6f77000000000000000000000000000000000000600082015250565b600061142a600e83611335565b9150611435826113f4565b602082019050919050565b600060208201905081810360008301526114598161141d565b9050919050565b60008115159050919050565b61147581611460565b82525050565b60006060820190506114906000830186611148565b61149d6020830185611148565b6114aa604083018461146c565b949350505050565b7f4f776e61626c653a2063616c6c6572206973206e6f7420746865206f776e6572600082015250565b60006114e8602083611335565b91506114f3826114b2565b602082019050919050565b60006020820190508181036000830152611517816114db565b9050919050565b7f4e6f20656e6f756768206d6f6e65790000000000000000000000000000000000600082015250565b6000611554600f83611335565b915061155f8261151e565b602082019050919050565b6000602082019050818103600083015261158381611547565b9050919050565b600060608201905061159f6000830186611148565b6115ac6020830185611148565b6115b96040830184611172565b949350505050565b7f4f776e61626c653a206e6577206f776e657220697320746865207a65726f206160008201527f6464726573730000000000000000000000000000000000000000000000000000602082015250565b600061161d602683611335565b9150611628826115c1565b604082019050919050565b6000602082019050818103600083015261164c81611610565b9050919050565b600061165e82610fba565b915061166983610fba565b9250827fffffffffffffffffffffffffffffffffffffffffffffffffffffffffffffffff0382111561169e5761169d6112be565b5b828201905092915050565b60006116b482610fba565b91506116bf83610fba565b9250828210156116d2576116d16112be565b5b82820390509291505056fea2646970667358221220df942522afca78d5ba6a9bf71771e750a0904b16a9ba0c27b71b07ef1a208a4164736f6c634300080d0033",
  "immutableReferences": {},
  "source": "// SPDX-License-Identifier: MIT\r\npragma solidity ^0.8.13;\r\n\r\nimport \"./Douya.sol\";\r\nimport \"./DouyaNFT.sol\";\r\nimport \"@openzeppelin/contracts/access/Ownable.sol\";\r\nimport \"@openzeppelin/contracts/utils/math/SafeMath.sol\";\r\n\r\ncontract Market is Ownable{\r\n    using SafeMath for uint256;\r\n    \r\n    Douya private _douya;\r\n\r\n    DouyaNFT private _douyaNFT;\r\n\r\n    constructor(address douyacoinAddr,address douyaNFTAddr){\r\n        _douya=Douya(douyacoinAddr);\r\n        _douyaNFT=DouyaNFT(douyaNFTAddr);\r\n    }\r\n    \r\n    struct Sales{\r\n        address seller;\r\n        uint price;\r\n    }\r\n    mapping(uint=>Sales) public shop;\r\n    uint shopCount;\r\n    uint public minPrice = 1*10**18;\r\n\r\n    event Sale(uint indexed tokenId,address indexed seller);\r\n    event Cancel(uint indexed tokenId,address indexed seller);\r\n    event Buy(uint indexed tokenId,address indexed buyer,address indexed seller);\r\n\r\n    function sale(uint _tokenId,uint _price)public{\r\n        require(_price>=minPrice,'Your price not alow');\r\n        require(_douyaNFT.ownerOf(_tokenId)==msg.sender,\"token not alow\");\r\n        shop[_tokenId] = Sales(msg.sender,_price);\r\n        shopCount = shopCount.add(1);\r\n        _douyaNFT.setMoveNft(msg.sender,address(this),true);\r\n        emit Sale(_tokenId,msg.sender);\r\n    }\r\n\r\n    function cancel(uint _tokenId)public{\r\n        require(_douyaNFT.ownerOf(_tokenId)==msg.sender,\"token not alow\");\r\n        delete shop[_tokenId];\r\n        _douyaNFT.setMoveNft(msg.sender,address(this),false);\r\n        shopCount = shopCount.sub(1);\r\n        emit Cancel(_tokenId,msg.sender);\r\n    }\r\n\r\n    function buy(uint _tokenId)public{\r\n        require(_douya.balanceOf(msg.sender) >= shop[_tokenId].price,'No enough money');\r\n        _douya.transferRole(msg.sender,shop[_tokenId].seller,shop[_tokenId].price);//contract transfer money to seller\r\n        _douyaNFT.safeTransferFrom(shop[_tokenId].seller,msg.sender,_tokenId);//contract transfer NFT from seller to buyer\r\n        delete shop[_tokenId];\r\n        shopCount = shopCount.sub(1);\r\n        emit Buy(_tokenId,msg.sender,shop[_tokenId].seller);\r\n    }\r\n\r\n    function getShop() external view returns(uint[] memory) {\r\n        uint[] memory result = new uint[](shopCount);\r\n        uint counter = 0;\r\n        for (uint i = 1; i <= _douyaNFT.tokenIds(); i++) {\r\n            if (shop[i].price != 0) {\r\n                result[counter] = i;\r\n                counter++;\r\n            }\r\n        }\r\n        return result;\r\n    }\r\n\r\n    function getPrice(uint _tokenId) external view returns(uint price) {\r\n\r\n        return shop[_tokenId].price;\r\n    }\r\n\r\n    function setMinPrice(uint _value)public onlyOwner{\r\n        minPrice = _value;\r\n    }\r\n}",
  "sourcePath": "E:\\Douya_Coin_NFT\\contracts\\Market.sol",
  "compiler": {
    "name": "solc",
    "version": "0.8.13+commit.abaa5c0e.Emscripten.clang"
  },
  "schemaVersion": "3.4.6",
  "updatedAt": "2022-03-25T20:49:57.515Z",
  "devdoc": {
    "kind": "dev",
    "methods": {
      "owner()": {
        "details": "Returns the address of the current owner."
      },
      "renounceOwnership()": {
        "details": "Leaves the contract without owner. It will not be possible to call `onlyOwner` functions anymore. Can only be called by the current owner. NOTE: Renouncing ownership will leave the contract without an owner, thereby removing any functionality that is only available to the owner."
      },
      "transferOwnership(address)": {
        "details": "Transfers ownership of the contract to a new account (`newOwner`). Can only be called by the current owner."
      }
    },
    "version": 1
  },
  "userdoc": {
    "kind": "user",
    "methods": {},
    "version": 1
  }
}