{
  "contractName": "Market",
  "abi": [
    {
      "inputs": [
        {
          "internalType": "address",
          "name": "douyacoinAddr",
          "type": "address"
        },
        {
          "internalType": "address",
          "name": "douyaNFTAddr",
          "type": "address"
        }
      ],
      "stateMutability": "nonpayable",
      "type": "constructor"
    },
    {
      "anonymous": false,
      "inputs": [
        {
          "indexed": true,
          "internalType": "uint256",
          "name": "tokenId",
          "type": "uint256"
        },
        {
          "indexed": true,
          "internalType": "address",
          "name": "buyer",
          "type": "address"
        },
        {
          "indexed": true,
          "internalType": "address",
          "name": "seller",
          "type": "address"
        }
      ],
      "name": "Buy",
      "type": "event"
    },
    {
      "anonymous": false,
      "inputs": [
        {
          "indexed": true,
          "internalType": "uint256",
          "name": "tokenId",
          "type": "uint256"
        },
        {
          "indexed": true,
          "internalType": "address",
          "name": "seller",
          "type": "address"
        }
      ],
      "name": "Cancel",
      "type": "event"
    },
    {
      "anonymous": false,
      "inputs": [
        {
          "indexed": true,
          "internalType": "address",
          "name": "previousOwner",
          "type": "address"
        },
        {
          "indexed": true,
          "internalType": "address",
          "name": "newOwner",
          "type": "address"
        }
      ],
      "name": "OwnershipTransferred",
      "type": "event"
    },
    {
      "anonymous": false,
      "inputs": [
        {
          "indexed": true,
          "internalType": "uint256",
          "name": "tokenId",
          "type": "uint256"
        },
        {
          "indexed": true,
          "internalType": "address",
          "name": "seller",
          "type": "address"
        }
      ],
      "name": "Sale",
      "type": "event"
    },
    {
      "inputs": [],
      "name": "minPrice",
      "outputs": [
        {
          "internalType": "uint256",
          "name": "",
          "type": "uint256"
        }
      ],
      "stateMutability": "view",
      "type": "function",
      "constant": true
    },
    {
      "inputs": [],
      "name": "owner",
      "outputs": [
        {
          "internalType": "address",
          "name": "",
          "type": "address"
        }
      ],
      "stateMutability": "view",
      "type": "function",
      "constant": true
    },
    {
      "inputs": [],
      "name": "renounceOwnership",
      "outputs": [],
      "stateMutability": "nonpayable",
      "type": "function"
    },
    {
      "inputs": [
        {
          "internalType": "uint256",
          "name": "",
          "type": "uint256"
        }
      ],
      "name": "shop",
      "outputs": [
        {
          "internalType": "address",
          "name": "seller",
          "type": "address"
        },
        {
          "internalType": "uint256",
          "name": "price",
          "type": "uint256"
        }
      ],
      "stateMutability": "view",
      "type": "function",
      "constant": true
    },
    {
      "inputs": [
        {
          "internalType": "address",
          "name": "newOwner",
          "type": "address"
        }
      ],
      "name": "transferOwnership",
      "outputs": [],
      "stateMutability": "nonpayable",
      "type": "function"
    },
    {
      "inputs": [
        {
          "internalType": "uint256",
          "name": "_tokenId",
          "type": "uint256"
        },
        {
          "internalType": "uint256",
          "name": "_price",
          "type": "uint256"
        }
      ],
      "name": "sale",
      "outputs": [],
      "stateMutability": "nonpayable",
      "type": "function"
    },
    {
      "inputs": [
        {
          "internalType": "uint256",
          "name": "_tokenId",
          "type": "uint256"
        }
      ],
      "name": "cancel",
      "outputs": [],
      "stateMutability": "nonpayable",
      "type": "function"
    },
    {
      "inputs": [
        {
          "internalType": "uint256",
          "name": "_tokenId",
          "type": "uint256"
        }
      ],
      "name": "buy",
      "outputs": [],
      "stateMutability": "nonpayable",
      "type": "function"
    },
    {
      "inputs": [],
      "name": "getShop",
      "outputs": [
        {
          "internalType": "uint256[]",
          "name": "",
          "type": "uint256[]"
        }
      ],
      "stateMutability": "view",
      "type": "function",
      "constant": true
    },
    {
      "inputs": [
        {
          "internalType": "uint256",
          "name": "_value",
          "type": "uint256"
        }
      ],
      "name": "setMinPrice",
      "outputs": [],
      "stateMutability": "nonpayable",
      "type": "function"
    }
  ],
  "bytecode": "0x6080604052670de0b6b3a76400006005553480156200001d57600080fd5b506040516200193238038062001932833981810160405281019062000043919062000223565b6200006362000057620000ed60201b60201c565b620000f560201b60201c565b81600160006101000a81548173ffffffffffffffffffffffffffffffffffffffff021916908373ffffffffffffffffffffffffffffffffffffffff16021790555080600260006101000a81548173ffffffffffffffffffffffffffffffffffffffff021916908373ffffffffffffffffffffffffffffffffffffffff16021790555050506200026a565b600033905090565b60008060009054906101000a900473ffffffffffffffffffffffffffffffffffffffff169050816000806101000a81548173ffffffffffffffffffffffffffffffffffffffff021916908373ffffffffffffffffffffffffffffffffffffffff1602179055508173ffffffffffffffffffffffffffffffffffffffff168173ffffffffffffffffffffffffffffffffffffffff167f8be0079c531659141344cd1fd0a4f28419497f9722a3daafe3b4186f6b6457e060405160405180910390a35050565b600080fd5b600073ffffffffffffffffffffffffffffffffffffffff82169050919050565b6000620001eb82620001be565b9050919050565b620001fd81620001de565b81146200020957600080fd5b50565b6000815190506200021d81620001f2565b92915050565b600080604083850312156200023d576200023c620001b9565b5b60006200024d858286016200020c565b925050602062000260858286016200020c565b9150509250929050565b6116b8806200027a6000396000f3fe608060405234801561001057600080fd5b506004361061009e5760003560e01c80638da5cb5b116100665780638da5cb5b1461011f578063d96a094a1461013d578063da69c08314610159578063e45be8eb1461018a578063f2fde38b146101a85761009e565b80631afb2740146100a35780631c35f962146100c157806340e58ee5146100dd5780635ea8cd12146100f9578063715018a614610115575b600080fd5b6100ab6101c4565b6040516100b89190610ffb565b60405180910390f35b6100db60048036038101906100d6919061104e565b61031d565b005b6100f760048036038101906100f2919061108e565b6105f3565b005b610113600480360381019061010e919061108e565b610836565b005b61011d6108bc565b005b610127610944565b60405161013491906110fc565b60405180910390f35b6101576004803603810190610152919061108e565b61096d565b005b610173600480360381019061016e919061108e565b610cfa565b604051610181929190611126565b60405180910390f35b610192610d3e565b60405161019f919061114f565b60405180910390f35b6101c260048036038101906101bd9190611196565b610d44565b005b6060600060045467ffffffffffffffff8111156101e4576101e36111c3565b5b6040519080825280602002602001820160405280156102125781602001602082028036833780820191505090505b509050600080600190505b600260009054906101000a900473ffffffffffffffffffffffffffffffffffffffff1673ffffffffffffffffffffffffffffffffffffffff1663714cff566040518163ffffffff1660e01b8152600401602060405180830381865afa15801561028a573d6000803e3d6000fd5b505050506040513d601f19601f820116820180604052508101906102ae9190611207565b811161031457600060036000838152602001908152602001600020600101541461030157808383815181106102e6576102e5611234565b5b60200260200101818152505081806102fd90611292565b9250505b808061030c90611292565b91505061021d565b50819250505090565b600554811015610362576040517f08c379a000000000000000000000000000000000000000000000000000000000815260040161035990611337565b60405180910390fd5b3373ffffffffffffffffffffffffffffffffffffffff16600260009054906101000a900473ffffffffffffffffffffffffffffffffffffffff1673ffffffffffffffffffffffffffffffffffffffff16636352211e846040518263ffffffff1660e01b81526004016103d4919061114f565b602060405180830381865afa1580156103f1573d6000803e3d6000fd5b505050506040513d601f19601f82011682018060405250810190610415919061136c565b73ffffffffffffffffffffffffffffffffffffffff161461046b576040517f08c379a0000000000000000000000000000000000000000000000000000000008152600401610462906113e5565b60405180910390fd5b60405180604001604052803373ffffffffffffffffffffffffffffffffffffffff168152602001828152506003600084815260200190815260200160002060008201518160000160006101000a81548173ffffffffffffffffffffffffffffffffffffffff021916908373ffffffffffffffffffffffffffffffffffffffff160217905550602082015181600101559050506105136001600454610e3b90919063ffffffff16565b600481905550600260009054906101000a900473ffffffffffffffffffffffffffffffffffffffff1673ffffffffffffffffffffffffffffffffffffffff1663fb85d8dc333060016040518463ffffffff1660e01b815260040161057993929190611420565b600060405180830381600087803b15801561059357600080fd5b505af11580156105a7573d6000803e3d6000fd5b505050503373ffffffffffffffffffffffffffffffffffffffff16827f938e870e870a8d47d06b8bbd499d54ea37fb4f7777de1ff086d6d71e1fa1599660405160405180910390a35050565b3373ffffffffffffffffffffffffffffffffffffffff16600260009054906101000a900473ffffffffffffffffffffffffffffffffffffffff1673ffffffffffffffffffffffffffffffffffffffff16636352211e836040518263ffffffff1660e01b8152600401610665919061114f565b602060405180830381865afa158015610682573d6000803e3d6000fd5b505050506040513d601f19601f820116820180604052508101906106a6919061136c565b73ffffffffffffffffffffffffffffffffffffffff16146106fc576040517f08c379a00000000000000000000000000000000000000000000000000000000081526004016106f3906113e5565b60405180910390fd5b60036000828152602001908152602001600020600080820160006101000a81549073ffffffffffffffffffffffffffffffffffffffff021916905560018201600090555050600260009054906101000a900473ffffffffffffffffffffffffffffffffffffffff1673ffffffffffffffffffffffffffffffffffffffff1663fb85d8dc333060006040518463ffffffff1660e01b81526004016107a193929190611420565b600060405180830381600087803b1580156107bb57600080fd5b505af11580156107cf573d6000803e3d6000fd5b505050506107e96001600454610e5190919063ffffffff16565b6004819055503373ffffffffffffffffffffffffffffffffffffffff16817f8dd3c361eb2366ff27c2db0eb07b9261f1d052570742ab8c9a0c326f37aa576d60405160405180910390a350565b61083e610e67565b73ffffffffffffffffffffffffffffffffffffffff1661085c610944565b73ffffffffffffffffffffffffffffffffffffffff16146108b2576040517f08c379a00000000000000000000000000000000000000000000000000000000081526004016108a9906114a3565b60405180910390fd5b8060058190555050565b6108c4610e67565b73ffffffffffffffffffffffffffffffffffffffff166108e2610944565b73ffffffffffffffffffffffffffffffffffffffff1614610938576040517f08c379a000000000000000000000000000000000000000000000000000000000815260040161092f906114a3565b60405180910390fd5b6109426000610e6f565b565b60008060009054906101000a900473ffffffffffffffffffffffffffffffffffffffff16905090565b6003600082815260200190815260200160002060010154600160009054906101000a900473ffffffffffffffffffffffffffffffffffffffff1673ffffffffffffffffffffffffffffffffffffffff166370a08231336040518263ffffffff1660e01b81526004016109df91906110fc565b602060405180830381865afa1580156109fc573d6000803e3d6000fd5b505050506040513d601f19601f82011682018060405250810190610a209190611207565b1015610a61576040517f08c379a0000000000000000000000000000000000000000000000000000000008152600401610a589061150f565b60405180910390fd5b600160009054906101000a900473ffffffffffffffffffffffffffffffffffffffff1673ffffffffffffffffffffffffffffffffffffffff166306dad3fb336003600085815260200190815260200160002060000160009054906101000a900473ffffffffffffffffffffffffffffffffffffffff1660036000868152602001908152602001600020600101546040518463ffffffff1660e01b8152600401610b0c9392919061152f565b600060405180830381600087803b158015610b2657600080fd5b505af1158015610b3a573d6000803e3d6000fd5b50505050600260009054906101000a900473ffffffffffffffffffffffffffffffffffffffff1673ffffffffffffffffffffffffffffffffffffffff166342842e0e6003600084815260200190815260200160002060000160009054906101000a900473ffffffffffffffffffffffffffffffffffffffff1633846040518463ffffffff1660e01b8152600401610bd39392919061152f565b600060405180830381600087803b158015610bed57600080fd5b505af1158015610c01573d6000803e3d6000fd5b5050505060036000828152602001908152602001600020600080820160006101000a81549073ffffffffffffffffffffffffffffffffffffffff021916905560018201600090555050610c606001600454610e5190919063ffffffff16565b6004819055506003600082815260200190815260200160002060000160009054906101000a900473ffffffffffffffffffffffffffffffffffffffff1673ffffffffffffffffffffffffffffffffffffffff163373ffffffffffffffffffffffffffffffffffffffff16827f39305df1e01a8efc02b583f32f465b5de19be261bbc83b3d8c37f3686c8af6be60405160405180910390a450565b60036020528060005260406000206000915090508060000160009054906101000a900473ffffffffffffffffffffffffffffffffffffffff16908060010154905082565b60055481565b610d4c610e67565b73ffffffffffffffffffffffffffffffffffffffff16610d6a610944565b73ffffffffffffffffffffffffffffffffffffffff1614610dc0576040517f08c379a0000000000000000000000000000000000000000000000000000000008152600401610db7906114a3565b60405180910390fd5b600073ffffffffffffffffffffffffffffffffffffffff168173ffffffffffffffffffffffffffffffffffffffff1603610e2f576040517f08c379a0000000000000000000000000000000000000000000000000000000008152600401610e26906115d8565b60405180910390fd5b610e3881610e6f565b50565b60008183610e4991906115f8565b905092915050565b60008183610e5f919061164e565b905092915050565b600033905090565b60008060009054906101000a900473ffffffffffffffffffffffffffffffffffffffff169050816000806101000a81548173ffffffffffffffffffffffffffffffffffffffff021916908373ffffffffffffffffffffffffffffffffffffffff1602179055508173ffffffffffffffffffffffffffffffffffffffff168173ffffffffffffffffffffffffffffffffffffffff167f8be0079c531659141344cd1fd0a4f28419497f9722a3daafe3b4186f6b6457e060405160405180910390a35050565b600081519050919050565b600082825260208201905092915050565b6000819050602082019050919050565b6000819050919050565b610f7281610f5f565b82525050565b6000610f848383610f69565b60208301905092915050565b6000602082019050919050565b6000610fa882610f33565b610fb28185610f3e565b9350610fbd83610f4f565b8060005b83811015610fee578151610fd58882610f78565b9750610fe083610f90565b925050600181019050610fc1565b5085935050505092915050565b600060208201905081810360008301526110158184610f9d565b905092915050565b600080fd5b61102b81610f5f565b811461103657600080fd5b50565b60008135905061104881611022565b92915050565b600080604083850312156110655761106461101d565b5b600061107385828601611039565b925050602061108485828601611039565b9150509250929050565b6000602082840312156110a4576110a361101d565b5b60006110b284828501611039565b91505092915050565b600073ffffffffffffffffffffffffffffffffffffffff82169050919050565b60006110e6826110bb565b9050919050565b6110f6816110db565b82525050565b600060208201905061111160008301846110ed565b92915050565b61112081610f5f565b82525050565b600060408201905061113b60008301856110ed565b6111486020830184611117565b9392505050565b60006020820190506111646000830184611117565b92915050565b611173816110db565b811461117e57600080fd5b50565b6000813590506111908161116a565b92915050565b6000602082840312156111ac576111ab61101d565b5b60006111ba84828501611181565b91505092915050565b7f4e487b7100000000000000000000000000000000000000000000000000000000600052604160045260246000fd5b60008151905061120181611022565b92915050565b60006020828403121561121d5761121c61101d565b5b600061122b848285016111f2565b91505092915050565b7f4e487b7100000000000000000000000000000000000000000000000000000000600052603260045260246000fd5b7f4e487b7100000000000000000000000000000000000000000000000000000000600052601160045260246000fd5b600061129d82610f5f565b91507fffffffffffffffffffffffffffffffffffffffffffffffffffffffffffffffff82036112cf576112ce611263565b5b600182019050919050565b600082825260208201905092915050565b7f596f7572207072696365206e6f7420616c6f7700000000000000000000000000600082015250565b60006113216013836112da565b915061132c826112eb565b602082019050919050565b6000602082019050818103600083015261135081611314565b9050919050565b6000815190506113668161116a565b92915050565b6000602082840312156113825761138161101d565b5b600061139084828501611357565b91505092915050565b7f746f6b656e206e6f7420616c6f77000000000000000000000000000000000000600082015250565b60006113cf600e836112da565b91506113da82611399565b602082019050919050565b600060208201905081810360008301526113fe816113c2565b9050919050565b60008115159050919050565b61141a81611405565b82525050565b600060608201905061143560008301866110ed565b61144260208301856110ed565b61144f6040830184611411565b949350505050565b7f4f776e61626c653a2063616c6c6572206973206e6f7420746865206f776e6572600082015250565b600061148d6020836112da565b915061149882611457565b602082019050919050565b600060208201905081810360008301526114bc81611480565b9050919050565b7f4e6f20656e6f756768206d6f6e65790000000000000000000000000000000000600082015250565b60006114f9600f836112da565b9150611504826114c3565b602082019050919050565b60006020820190508181036000830152611528816114ec565b9050919050565b600060608201905061154460008301866110ed565b61155160208301856110ed565b61155e6040830184611117565b949350505050565b7f4f776e61626c653a206e6577206f776e657220697320746865207a65726f206160008201527f6464726573730000000000000000000000000000000000000000000000000000602082015250565b60006115c26026836112da565b91506115cd82611566565b604082019050919050565b600060208201905081810360008301526115f1816115b5565b9050919050565b600061160382610f5f565b915061160e83610f5f565b9250827fffffffffffffffffffffffffffffffffffffffffffffffffffffffffffffffff0382111561164357611642611263565b5b828201905092915050565b600061165982610f5f565b915061166483610f5f565b92508282101561167757611676611263565b5b82820390509291505056fea2646970667358221220b6f39e339aabfcdc0d52f6985e47689101d0311c47f92142ebfea02e803a524c64736f6c634300080d0033",
  "immutableReferences": {},
  "source": "// SPDX-License-Identifier: MIT\r\npragma solidity ^0.8.13;\r\n\r\nimport \"./Douya.sol\";\r\nimport \"./DouyaNFT.sol\";\r\nimport \"@openzeppelin/contracts/access/Ownable.sol\";\r\nimport \"@openzeppelin/contracts/utils/math/SafeMath.sol\";\r\n\r\ncontract Market is Ownable{\r\n    using SafeMath for uint256;\r\n    \r\n    Douya private _douya;\r\n\r\n    DouyaNFT private _douyaNFT;\r\n\r\n    constructor(address douyacoinAddr,address douyaNFTAddr){\r\n        _douya=Douya(douyacoinAddr);\r\n        _douyaNFT=DouyaNFT(douyaNFTAddr);\r\n    }\r\n    \r\n    struct Sales{\r\n        address seller;\r\n        uint price;\r\n    }\r\n    mapping(uint=>Sales) public shop;\r\n    uint shopCount;\r\n    uint public minPrice = 1*10**18;\r\n\r\n    event Sale(uint indexed tokenId,address indexed seller);\r\n    event Cancel(uint indexed tokenId,address indexed seller);\r\n    event Buy(uint indexed tokenId,address indexed buyer,address indexed seller);\r\n\r\n    function sale(uint _tokenId,uint _price)public{\r\n        require(_price>=minPrice,'Your price not alow');\r\n        require(_douyaNFT.ownerOf(_tokenId)==msg.sender,\"token not alow\");\r\n        shop[_tokenId] = Sales(msg.sender,_price);\r\n        shopCount = shopCount.add(1);\r\n        _douyaNFT.setMoveNft(msg.sender,address(this),true);\r\n        emit Sale(_tokenId,msg.sender);\r\n    }\r\n\r\n    function cancel(uint _tokenId)public{\r\n        require(_douyaNFT.ownerOf(_tokenId)==msg.sender,\"token not alow\");\r\n        delete shop[_tokenId];\r\n        _douyaNFT.setMoveNft(msg.sender,address(this),false);\r\n        shopCount = shopCount.sub(1);\r\n        emit Cancel(_tokenId,msg.sender);\r\n    }\r\n\r\n    function buy(uint _tokenId)public{\r\n        require(_douya.balanceOf(msg.sender) >= shop[_tokenId].price,'No enough money');\r\n        _douya.transferRole(msg.sender,shop[_tokenId].seller,shop[_tokenId].price);//contract transfer money to seller\r\n        _douyaNFT.safeTransferFrom(shop[_tokenId].seller,msg.sender,_tokenId);//contract transfer NFT from seller to buyer\r\n        delete shop[_tokenId];\r\n        shopCount = shopCount.sub(1);\r\n        emit Buy(_tokenId,msg.sender,shop[_tokenId].seller);\r\n    }\r\n\r\n    function getShop() external view returns(uint[] memory) {\r\n        uint[] memory result = new uint[](shopCount);\r\n        uint counter = 0;\r\n        for (uint i = 1; i <= _douyaNFT.tokenIds(); i++) {\r\n            if (shop[i].price != 0) {\r\n                result[counter] = i;\r\n                counter++;\r\n            }\r\n        }\r\n        return result;\r\n    }\r\n\r\n    function setMinPrice(uint _value)public onlyOwner{\r\n        minPrice = _value;\r\n    }\r\n}",
  "sourcePath": "E:/Douya_Coin_NFT/contracts/Market.sol",
  "compiler": {
    "name": "solc",
    "version": "0.8.13+commit.abaa5c0e.Emscripten.clang"
  },
  "schemaVersion": "3.3.4",
  "updatedAt": "2022-03-21T15:10:37.512Z",
  "networkType": "ethereum",
  "devdoc": {
    "kind": "dev",
    "methods": {
      "owner()": {
        "details": "Returns the address of the current owner."
      },
      "renounceOwnership()": {
        "details": "Leaves the contract without owner. It will not be possible to call `onlyOwner` functions anymore. Can only be called by the current owner. NOTE: Renouncing ownership will leave the contract without an owner, thereby removing any functionality that is only available to the owner."
      },
      "transferOwnership(address)": {
        "details": "Transfers ownership of the contract to a new account (`newOwner`). Can only be called by the current owner."
      }
    },
    "version": 1
  },
  "userdoc": {
    "kind": "user",
    "methods": {},
    "version": 1
  }
}