{
  "contractName": "TokenBank",
  "abi": [
    {
      "inputs": [
        {
          "internalType": "address",
          "name": "_douya",
          "type": "address"
        }
      ],
      "stateMutability": "nonpayable",
      "type": "constructor"
    },
    {
      "inputs": [],
      "name": "douya",
      "outputs": [
        {
          "internalType": "contract Douya",
          "name": "",
          "type": "address"
        }
      ],
      "stateMutability": "view",
      "type": "function"
    },
    {
      "inputs": [
        {
          "internalType": "address",
          "name": "",
          "type": "address"
        }
      ],
      "name": "hasStaked",
      "outputs": [
        {
          "internalType": "bool",
          "name": "",
          "type": "bool"
        }
      ],
      "stateMutability": "view",
      "type": "function"
    },
    {
      "inputs": [
        {
          "internalType": "address",
          "name": "",
          "type": "address"
        }
      ],
      "name": "isStaking",
      "outputs": [
        {
          "internalType": "bool",
          "name": "",
          "type": "bool"
        }
      ],
      "stateMutability": "view",
      "type": "function"
    },
    {
      "inputs": [],
      "name": "owner",
      "outputs": [
        {
          "internalType": "address",
          "name": "",
          "type": "address"
        }
      ],
      "stateMutability": "view",
      "type": "function"
    },
    {
      "inputs": [
        {
          "internalType": "uint256",
          "name": "",
          "type": "uint256"
        }
      ],
      "name": "stakers",
      "outputs": [
        {
          "internalType": "address",
          "name": "",
          "type": "address"
        }
      ],
      "stateMutability": "view",
      "type": "function"
    },
    {
      "inputs": [
        {
          "internalType": "address",
          "name": "",
          "type": "address"
        }
      ],
      "name": "stakingBalance",
      "outputs": [
        {
          "internalType": "uint256",
          "name": "",
          "type": "uint256"
        }
      ],
      "stateMutability": "view",
      "type": "function"
    },
    {
      "inputs": [
        {
          "internalType": "uint256",
          "name": "_amount",
          "type": "uint256"
        }
      ],
      "name": "stakeTokens",
      "outputs": [],
      "stateMutability": "nonpayable",
      "type": "function"
    },
    {
      "inputs": [],
      "name": "unstakeTokens",
      "outputs": [],
      "stateMutability": "nonpayable",
      "type": "function"
    },
    {
      "inputs": [],
      "name": "issueTokens",
      "outputs": [],
      "stateMutability": "nonpayable",
      "type": "function"
    }
  ],
  "bytecode": "0x60806040523480156200001157600080fd5b506040516200119c3803806200119c833981810160405281019062000037919062000129565b80600160006101000a81548173ffffffffffffffffffffffffffffffffffffffff021916908373ffffffffffffffffffffffffffffffffffffffff160217905550336000806101000a81548173ffffffffffffffffffffffffffffffffffffffff021916908373ffffffffffffffffffffffffffffffffffffffff160217905550506200015b565b600080fd5b600073ffffffffffffffffffffffffffffffffffffffff82169050919050565b6000620000f182620000c4565b9050919050565b6200010381620000e4565b81146200010f57600080fd5b50565b6000815190506200012381620000f8565b92915050565b600060208284031215620001425762000141620000bf565b5b6000620001528482850162000112565b91505092915050565b611031806200016b6000396000f3fe608060405234801561001057600080fd5b50600436106100935760003560e01c80638da5cb5b116100665780638da5cb5b1461011e578063a5ce413b1461013c578063c93c8f3414610146578063e8acbf4b14610176578063fd5e6dd11461019457610093565b806345bc78ab1461009857806360ab5852146100c85780636f49712b146100d25780637547c7a314610102575b600080fd5b6100b260048036038101906100ad9190610a6b565b6101c4565b6040516100bf9190610ab1565b60405180910390f35b6100d06101dc565b005b6100ec60048036038101906100e79190610a6b565b6103d0565b6040516100f99190610ae7565b60405180910390f35b61011c60048036038101906101179190610b2e565b6103f0565b005b610126610797565b6040516101339190610b6a565b60405180910390f35b6101446107bb565b005b610160600480360381019061015b9190610a6b565b610983565b60405161016d9190610ae7565b60405180910390f35b61017e6109a3565b60405161018b9190610be4565b60405180910390f35b6101ae60048036038101906101a99190610b2e565b6109c9565b6040516101bb9190610b6a565b60405180910390f35b60036020528060005260406000206000915090505481565b60008054906101000a900473ffffffffffffffffffffffffffffffffffffffff1673ffffffffffffffffffffffffffffffffffffffff163373ffffffffffffffffffffffffffffffffffffffff161461026a576040517f08c379a000000000000000000000000000000000000000000000000000000000815260040161026190610c5c565b60405180910390fd5b60005b6002805490508110156103cd576000600282815481106102905761028f610c7c565b5b9060005260206000200160009054906101000a900473ffffffffffffffffffffffffffffffffffffffff1690506000600360008373ffffffffffffffffffffffffffffffffffffffff1673ffffffffffffffffffffffffffffffffffffffff16815260200190815260200160002054905060008111156103b857600160009054906101000a900473ffffffffffffffffffffffffffffffffffffffff1673ffffffffffffffffffffffffffffffffffffffff1663a9059cbb83600a846103569190610d09565b6040518363ffffffff1660e01b8152600401610373929190610d3a565b6020604051808303816000875af1158015610392573d6000803e3d6000fd5b505050506040513d601f19601f820116820180604052508101906103b69190610d8f565b505b505080806103c590610dbc565b91505061026d565b50565b60056020528060005260406000206000915054906101000a900460ff1681565b60008111610433576040517f08c379a000000000000000000000000000000000000000000000000000000000815260040161042a90610e50565b60405180910390fd5b600160009054906101000a900473ffffffffffffffffffffffffffffffffffffffff1673ffffffffffffffffffffffffffffffffffffffff166323b872dd3330846040518463ffffffff1660e01b815260040161049293929190610e70565b6020604051808303816000875af11580156104b1573d6000803e3d6000fd5b505050506040513d601f19601f820116820180604052508101906104d59190610d8f565b50600360003373ffffffffffffffffffffffffffffffffffffffff1673ffffffffffffffffffffffffffffffffffffffff1681526020019081526020016000205481600360003373ffffffffffffffffffffffffffffffffffffffff1673ffffffffffffffffffffffffffffffffffffffff168152602001908152602001600020546105619190610ea7565b116105a1576040517f08c379a000000000000000000000000000000000000000000000000000000000815260040161059890610f6f565b60405180910390fd5b80600360003373ffffffffffffffffffffffffffffffffffffffff1673ffffffffffffffffffffffffffffffffffffffff168152602001908152602001600020546105ec9190610ea7565b600360003373ffffffffffffffffffffffffffffffffffffffff1673ffffffffffffffffffffffffffffffffffffffff16815260200190815260200160002081905550600460003373ffffffffffffffffffffffffffffffffffffffff1673ffffffffffffffffffffffffffffffffffffffff16815260200190815260200160002060009054906101000a900460ff166106e4576002339080600181540180825580915050600190039060005260206000200160009091909190916101000a81548173ffffffffffffffffffffffffffffffffffffffff021916908373ffffffffffffffffffffffffffffffffffffffff1602179055505b6001600560003373ffffffffffffffffffffffffffffffffffffffff1673ffffffffffffffffffffffffffffffffffffffff16815260200190815260200160002060006101000a81548160ff0219169083151502179055506001600460003373ffffffffffffffffffffffffffffffffffffffff1673ffffffffffffffffffffffffffffffffffffffff16815260200190815260200160002060006101000a81548160ff02191690831515021790555050565b60008054906101000a900473ffffffffffffffffffffffffffffffffffffffff1681565b6000600360003373ffffffffffffffffffffffffffffffffffffffff1673ffffffffffffffffffffffffffffffffffffffff16815260200190815260200160002054905060008111610842576040517f08c379a000000000000000000000000000000000000000000000000000000000815260040161083990610fdb565b60405180910390fd5b600160009054906101000a900473ffffffffffffffffffffffffffffffffffffffff1673ffffffffffffffffffffffffffffffffffffffff1663a9059cbb33836040518363ffffffff1660e01b815260040161089f929190610d3a565b6020604051808303816000875af11580156108be573d6000803e3d6000fd5b505050506040513d601f19601f820116820180604052508101906108e29190610d8f565b506000600360003373ffffffffffffffffffffffffffffffffffffffff1673ffffffffffffffffffffffffffffffffffffffff168152602001908152602001600020819055506000600560003373ffffffffffffffffffffffffffffffffffffffff1673ffffffffffffffffffffffffffffffffffffffff16815260200190815260200160002060006101000a81548160ff02191690831515021790555050565b60046020528060005260406000206000915054906101000a900460ff1681565b600160009054906101000a900473ffffffffffffffffffffffffffffffffffffffff1681565b600281815481106109d957600080fd5b906000526020600020016000915054906101000a900473ffffffffffffffffffffffffffffffffffffffff1681565b600080fd5b600073ffffffffffffffffffffffffffffffffffffffff82169050919050565b6000610a3882610a0d565b9050919050565b610a4881610a2d565b8114610a5357600080fd5b50565b600081359050610a6581610a3f565b92915050565b600060208284031215610a8157610a80610a08565b5b6000610a8f84828501610a56565b91505092915050565b6000819050919050565b610aab81610a98565b82525050565b6000602082019050610ac66000830184610aa2565b92915050565b60008115159050919050565b610ae181610acc565b82525050565b6000602082019050610afc6000830184610ad8565b92915050565b610b0b81610a98565b8114610b1657600080fd5b50565b600081359050610b2881610b02565b92915050565b600060208284031215610b4457610b43610a08565b5b6000610b5284828501610b19565b91505092915050565b610b6481610a2d565b82525050565b6000602082019050610b7f6000830184610b5b565b92915050565b6000819050919050565b6000610baa610ba5610ba084610a0d565b610b85565b610a0d565b9050919050565b6000610bbc82610b8f565b9050919050565b6000610bce82610bb1565b9050919050565b610bde81610bc3565b82525050565b6000602082019050610bf96000830184610bd5565b92915050565b600082825260208201905092915050565b7f63616c6c6572206d75737420626520746865206f776e65720000000000000000600082015250565b6000610c46601883610bff565b9150610c5182610c10565b602082019050919050565b60006020820190508181036000830152610c7581610c39565b9050919050565b7f4e487b7100000000000000000000000000000000000000000000000000000000600052603260045260246000fd5b7f4e487b7100000000000000000000000000000000000000000000000000000000600052601260045260246000fd5b7f4e487b7100000000000000000000000000000000000000000000000000000000600052601160045260246000fd5b6000610d1482610a98565b9150610d1f83610a98565b925082610d2f57610d2e610cab565b5b828204905092915050565b6000604082019050610d4f6000830185610b5b565b610d5c6020830184610aa2565b9392505050565b610d6c81610acc565b8114610d7757600080fd5b50565b600081519050610d8981610d63565b92915050565b600060208284031215610da557610da4610a08565b5b6000610db384828501610d7a565b91505092915050565b6000610dc782610a98565b91507fffffffffffffffffffffffffffffffffffffffffffffffffffffffffffffffff8203610df957610df8610cda565b5b600182019050919050565b7f616d6f756e742063616e6e6f7420626520300000000000000000000000000000600082015250565b6000610e3a601283610bff565b9150610e4582610e04565b602082019050919050565b60006020820190508181036000830152610e6981610e2d565b9050919050565b6000606082019050610e856000830186610b5b565b610e926020830185610b5b565b610e9f6040830184610aa2565b949350505050565b6000610eb282610a98565b9150610ebd83610a98565b9250827fffffffffffffffffffffffffffffffffffffffffffffffffffffffffffffffff03821115610ef257610ef1610cda565b5b828201905092915050565b7f6e65772076616c756520697320736d616c6c6572207468616e206265666f726560008201527f2e00000000000000000000000000000000000000000000000000000000000000602082015250565b6000610f59602183610bff565b9150610f6482610efd565b604082019050919050565b60006020820190508181036000830152610f8881610f4c565b9050919050565b7f7374616b696e672062616c616e63652063616e6e6f7420626520300000000000600082015250565b6000610fc5601b83610bff565b9150610fd082610f8f565b602082019050919050565b60006020820190508181036000830152610ff481610fb8565b905091905056fea264697066735822122033eaf12a60cf356170ea4bac8d7b5f9cb286e78398a967255bc9890bb4e9a31164736f6c634300080d0033",
  "immutableReferences": {},
  "source": "// SPDX-License-Identifier: MIT\r\npragma solidity ^0.8.13;\r\n\r\nimport \"./Douya.sol\";\r\n\r\ncontract TokenBank {\r\n    address public owner;\r\n    Douya public douya;\r\n\r\n    address[] public stakers;\r\n    mapping(address => uint256) public stakingBalance;\r\n    mapping(address => bool) public hasStaked;\r\n    mapping(address => bool) public isStaking;\r\n\r\n    constructor(address _douya) {\r\n        douya = Douya(_douya);\r\n        owner = msg.sender;\r\n    }\r\n\r\n    function stakeTokens(uint256 _amount) public {\r\n        // Require amount greater than 0\r\n        require(_amount > 0, \"amount cannot be 0\");\r\n\r\n        // Trasnfer Mock Dai tokens to this contract for staking\r\n        douya.transferFrom(msg.sender, address(this), _amount);\r\n\r\n        // Update staking balance\r\n        // \r\n        require(\r\n            stakingBalance[msg.sender] + _amount > stakingBalance[msg.sender],\r\n            \"new value is smaller than before.\"\r\n        );\r\n        stakingBalance[msg.sender] = stakingBalance[msg.sender] + _amount;\r\n\r\n        // Add user to stakers array *only* if they haven't staked already\r\n        if (!hasStaked[msg.sender]) {\r\n            stakers.push(msg.sender);\r\n        }\r\n\r\n        // Update staking status\r\n        isStaking[msg.sender] = true;\r\n        hasStaked[msg.sender] = true;\r\n    }\r\n\r\n    // Unstaking Tokens (Withdraw)\r\n    function unstakeTokens() public {\r\n        // Fetch staking balance\r\n        uint256 balance = stakingBalance[msg.sender];\r\n\r\n        // Require amount greater than 0\r\n        require(balance > 0, \"staking balance cannot be 0\");\r\n\r\n        // Transfer Mock Dai tokens to this contract for staking\r\n        douya.transfer(msg.sender, balance);\r\n\r\n        // Reset staking balance\r\n        stakingBalance[msg.sender] = 0;\r\n\r\n        // Update staking status\r\n        isStaking[msg.sender] = false;\r\n    }\r\n\r\n    // Issuing Tokens\r\n    function issueTokens() public {\r\n        // Only owner can call this function\r\n        require(msg.sender == owner, \"caller must be the owner\");\r\n\r\n        // Issue tokens to all stakers\r\n        for (uint256 i = 0; i < stakers.length; i++) {\r\n            address recipient = stakers[i];\r\n            uint256 balance = stakingBalance[recipient];\r\n            if (balance > 0) {\r\n                douya.transfer(recipient, balance / 10);\r\n            }\r\n        }\r\n    }\r\n}\r\n",
  "sourcePath": "E:\\Douya_Coin_NFT\\contracts\\TokenBank.sol",
  "compiler": {
    "name": "solc",
    "version": "0.8.13+commit.abaa5c0e.Emscripten.clang"
  },
  "schemaVersion": "3.4.6",
  "updatedAt": "2022-03-25T20:49:57.524Z",
  "devdoc": {
    "kind": "dev",
    "methods": {},
    "version": 1
  },
  "userdoc": {
    "kind": "user",
    "methods": {},
    "version": 1
  }
}